{
	"data": {
		"bytecode": {
			"linkReferences": {},
			"object": "610180604052348015610010575f5ffd5b50604051616fe2380380616fe2833981810160405281019061003291906105da565b8082611c2061c4e0670de0b6b3a76400006040518060400160405280600a81526020017f4d79476f7665726e6f7200000000000000000000000000000000000000000000815250806100886101bf60201b60201c565b61009b5f836101fc60201b90919060201c565b61012081815250506100b76001826101fc60201b90919060201c565b6101408181525050818051906020012060e08181525050808051906020012061010081815250504660a081815250506100f461024960201b60201c565b608081815250503073ffffffffffffffffffffffffffffffffffffffff1660c08173ffffffffffffffffffffffffffffffffffffffff1681525050505080600390816101409190610855565b5050610151836102a360201b60201c565b6101608261031660201b60201c565b61016f816103cf60201b60201c565b5050508073ffffffffffffffffffffffffffffffffffffffff166101608173ffffffffffffffffffffffffffffffffffffffff1681525050506101b78161041460201b60201c565b505050610c32565b60606040518060400160405280600181526020017f3100000000000000000000000000000000000000000000000000000000000000815250905090565b5f60208351101561021d57610216836104b160201b60201c565b9050610243565b8261022d8361051660201b60201c565b5f01908161023b9190610855565b5060ff5f1b90505b92915050565b5f7f8b73c3c69bb8fe3d512ecc4cf759cc79239f7b179b0ffacaa9a75d522b39400f60e05161010051463060405160200161028895949392919061095a565b60405160208183030381529060405280519060200120905090565b7fc565b045403dc03c2eea82b81a0465edad9e2e7fc4d97e11421c209da93d7a9360085f9054906101000a900465ffffffffffff16826040516102e79291906109ec565b60405180910390a18060085f6101000a81548165ffffffffffff021916908365ffffffffffff16021790555050565b5f8163ffffffff1603610360575f6040517ff1cfbf050000000000000000000000000000000000000000000000000000000081526004016103579190610a4c565b60405180910390fd5b7f7e3f7f0708a84de9203036abaa450dccc85ad5ff52f78c170f3edb55cf5e8828600860069054906101000a900463ffffffff16826040516103a3929190610aa4565b60405180910390a180600860066101000a81548163ffffffff021916908363ffffffff16021790555050565b7fccb45da8d5717e6c4544694297c4ba5cf151d455c9bb0ed4fc7a38411bc0546160075482604051610402929190610acb565b60405180910390a18060078190555050565b7f08f74ea46ef7894f65eabfb5e6e695de773a000b47c529ab559178069b226401600a5f9054906101000a900473ffffffffffffffffffffffffffffffffffffffff1682604051610466929190610af2565b60405180910390a180600a5f6101000a81548173ffffffffffffffffffffffffffffffffffffffff021916908373ffffffffffffffffffffffffffffffffffffffff16021790555050565b5f5f829050601f815111156104fd57826040517f305a27a90000000000000000000000000000000000000000000000000000000081526004016104f49190610b7f565b60405180910390fd5b80518161050990610bcc565b5f1c175f1b915050919050565b5f819050919050565b5f5ffd5b5f73ffffffffffffffffffffffffffffffffffffffff82169050919050565b5f61054c82610523565b9050919050565b5f61055d82610542565b9050919050565b61056d81610553565b8114610577575f5ffd5b50565b5f8151905061058881610564565b92915050565b5f61059882610523565b9050919050565b5f6105a98261058e565b9050919050565b6105b98161059f565b81146105c3575f5ffd5b50565b5f815190506105d4816105b0565b92915050565b5f5f604083850312156105f0576105ef61051f565b5b5f6105fd8582860161057a565b925050602061060e858286016105c6565b9150509250929050565b5f81519050919050565b7f4e487b71000000000000000000000000000000000000000000000000000000005f52604160045260245ffd5b7f4e487b71000000000000000000000000000000000000000000000000000000005f52602260045260245ffd5b5f600282049050600182168061069357607f821691505b6020821081036106a6576106a561064f565b5b50919050565b5f819050815f5260205f209050919050565b5f6020601f8301049050919050565b5f82821b905092915050565b5f600883026107087fffffffffffffffffffffffffffffffffffffffffffffffffffffffffffffffff826106cd565b61071286836106cd565b95508019841693508086168417925050509392505050565b5f819050919050565b5f819050919050565b5f61075661075161074c8461072a565b610733565b61072a565b9050919050565b5f819050919050565b61076f8361073c565b61078361077b8261075d565b8484546106d9565b825550505050565b5f5f905090565b61079a61078b565b6107a5818484610766565b505050565b5b818110156107c8576107bd5f82610792565b6001810190506107ab565b5050565b601f82111561080d576107de816106ac565b6107e7846106be565b810160208510156107f6578190505b61080a610802856106be565b8301826107aa565b50505b505050565b5f82821c905092915050565b5f61082d5f1984600802610812565b1980831691505092915050565b5f610845838361081e565b9150826002028217905092915050565b61085e82610618565b67ffffffffffffffff81111561087757610876610622565b5b610881825461067c565b61088c8282856107cc565b5f60209050601f8311600181146108bd575f84156108ab578287015190505b6108b5858261083a565b86555061091c565b601f1984166108cb866106ac565b5f5b828110156108f2578489015182556001820191506020850194506020810190506108cd565b8683101561090f578489015161090b601f89168261081e565b8355505b6001600288020188555050505b505050505050565b5f819050919050565b61093681610924565b82525050565b6109458161072a565b82525050565b61095481610542565b82525050565b5f60a08201905061096d5f83018861092d565b61097a602083018761092d565b610987604083018661092d565b610994606083018561093c565b6109a1608083018461094b565b9695505050505050565b5f65ffffffffffff82169050919050565b5f6109d66109d16109cc846109ab565b610733565b61072a565b9050919050565b6109e6816109bc565b82525050565b5f6040820190506109ff5f8301856109dd565b610a0c60208301846109dd565b9392505050565b5f819050919050565b5f610a36610a31610a2c84610a13565b610733565b61072a565b9050919050565b610a4681610a1c565b82525050565b5f602082019050610a5f5f830184610a3d565b92915050565b5f63ffffffff82169050919050565b5f610a8e610a89610a8484610a65565b610733565b61072a565b9050919050565b610a9e81610a74565b82525050565b5f604082019050610ab75f830185610a95565b610ac46020830184610a95565b9392505050565b5f604082019050610ade5f83018561093c565b610aeb602083018461093c565b9392505050565b5f604082019050610b055f83018561094b565b610b12602083018461094b565b9392505050565b5f82825260208201905092915050565b8281835e5f83830152505050565b5f601f19601f8301169050919050565b5f610b5182610618565b610b5b8185610b19565b9350610b6b818560208601610b29565b610b7481610b37565b840191505092915050565b5f6020820190508181035f830152610b978184610b47565b905092915050565b5f81519050919050565b5f819050602082019050919050565b5f610bc38251610924565b80915050919050565b5f610bd682610b9f565b82610be084610ba9565b9050610beb81610bb8565b92506020821015610c2b57610c267fffffffffffffffffffffffffffffffffffffffffffffffffffffffffffffffff836020036008026106cd565b831692505b5050919050565b60805160a05160c05160e05161010051610120516101405161016051616355610c8d5f395f611cd601525f61285c01525f61282101525f613dc001525f613d9f01525f6138f001525f61394601525f61396f01526163555ff3fe608060405260043610610275575f3560e01c80637ecebe001161014e578063c01f9e37116100c0578063e540d01d11610079578063e540d01d14610aec578063eb9019d414610b14578063ece40cc114610b50578063f23a6e6114610b78578063f8ce560a14610bb4578063fc0c546a14610bf0576102e8565b8063c01f9e37146109da578063c28bc2fa14610a16578063c59057e414610a32578063d33219b414610a6e578063dd4e2ba514610a98578063deaaa7cc14610ac2576102e8565b8063a890c91011610112578063a890c91014610898578063a8f8a668146108c0578063a9a95294146108fc578063ab58fb8e14610938578063b58131b014610974578063bc197c811461099e576102e8565b80637ecebe001461078a57806384b0196e146107c65780638ff262e3146107f657806391ddadf4146108325780639a802a6d1461085c576102e8565b806343859632116101e757806356781388116101ab57806356781388146106365780635b8d0e0d146106725780635f398a14146106ae57806379051887146106ea5780637b3c71d3146107125780637d5e81e21461074e576102e8565b8063438596321461052c578063452115d6146105685780634bf5d7e9146105a4578063544ffc9c146105ce57806354fd4d501461060c576102e8565b8063160cbed711610239578063160cbed7146103f45780632656227d146104305780632d63f693146104605780632fe3e2611461049c5780633932abb1146104c65780633e4f49e6146104f0576102e8565b806301ffc9a7146102ec57806302a251a31461032857806306fdde0314610352578063143489d01461037c578063150b7a02146103b8576102e8565b366102e8573073ffffffffffffffffffffffffffffffffffffffff16610299610c1a565b73ffffffffffffffffffffffffffffffffffffffff16146102e6576040517fe90a651e00000000000000000000000000000000000000000000000000000000815260040160405180910390fd5b005b5f5ffd5b3480156102f7575f5ffd5b50610312600480360381019061030d919061403b565b610c28565b60405161031f9190614080565b60405180910390f35b348015610333575f5ffd5b5061033c610d7a565b60405161034991906140b1565b60405180910390f35b34801561035d575f5ffd5b50610366610d99565b604051610373919061413a565b60405180910390f35b348015610387575f5ffd5b506103a2600480360381019061039d9190614184565b610e29565b6040516103af91906141ee565b60405180910390f35b3480156103c3575f5ffd5b506103de60048036038101906103d9919061435d565b610e64565b6040516103eb91906143ec565b60405180910390f35b3480156103ff575f5ffd5b5061041a6004803603810190610415919061469a565b610ee3565b60405161042791906140b1565b60405180910390f35b61044a6004803603810190610445919061469a565b610fd9565b60405161045791906140b1565b60405180910390f35b34801561046b575f5ffd5b5061048660048036038101906104819190614184565b6111b6565b60405161049391906140b1565b60405180910390f35b3480156104a7575f5ffd5b506104b06111ec565b6040516104bd9190614761565b60405180910390f35b3480156104d1575f5ffd5b506104da611210565b6040516104e791906140b1565b60405180910390f35b3480156104fb575f5ffd5b5061051660048036038101906105119190614184565b611232565b60405161052391906147ed565b60405180910390f35b348015610537575f5ffd5b50610552600480360381019061054d9190614806565b611243565b60405161055f9190614080565b60405180910390f35b348015610573575f5ffd5b5061058e6004803603810190610589919061469a565b6112a8565b60405161059b91906140b1565b60405180910390f35b3480156105af575f5ffd5b506105b8611328565b6040516105c5919061413a565b60405180910390f35b3480156105d9575f5ffd5b506105f460048036038101906105ef9190614184565b6113e5565b60405161060393929190614844565b60405180910390f35b348015610617575f5ffd5b50610620611418565b60405161062d919061413a565b60405180910390f35b348015610641575f5ffd5b5061065c600480360381019061065791906148af565b611455565b60405161066991906140b1565b60405180910390f35b34801561067d575f5ffd5b5061069860048036038101906106939190614946565b611484565b6040516106a591906140b1565b60405180910390f35b3480156106b9575f5ffd5b506106d460048036038101906106cf9190614a28565b611574565b6040516106e191906140b1565b60405180910390f35b3480156106f5575f5ffd5b50610710600480360381019061070b9190614b03565b6115dc565b005b34801561071d575f5ffd5b5061073860048036038101906107339190614b2e565b6115f0565b60405161074591906140b1565b60405180910390f35b348015610759575f5ffd5b50610774600480360381019061076f9190614c3d565b611656565b60405161078191906140b1565b60405180910390f35b348015610795575f5ffd5b506107b060048036038101906107ab9190614d11565b61174c565b6040516107bd91906140b1565b60405180910390f35b3480156107d1575f5ffd5b506107da611792565b6040516107ed9796959493929190614e2d565b60405180910390f35b348015610801575f5ffd5b5061081c60048036038101906108179190614eaf565b611837565b60405161082991906140b1565b60405180910390f35b34801561083d575f5ffd5b506108466118a9565b6040516108539190614f3e565b60405180910390f35b348015610867575f5ffd5b50610882600480360381019061087d9190614f57565b611934565b60405161088f91906140b1565b60405180910390f35b3480156108a3575f5ffd5b506108be60048036038101906108b9919061500f565b611949565b005b3480156108cb575f5ffd5b506108e660048036038101906108e1919061469a565b61195d565b6040516108f391906140b1565b60405180910390f35b348015610907575f5ffd5b50610922600480360381019061091d9190614184565b611974565b60405161092f9190614080565b60405180910390f35b348015610943575f5ffd5b5061095e60048036038101906109599190614184565b611985565b60405161096b91906140b1565b60405180910390f35b34801561097f575f5ffd5b506109886119bb565b60405161099591906140b1565b60405180910390f35b3480156109a9575f5ffd5b506109c460048036038101906109bf919061503a565b6119c9565b6040516109d191906143ec565b60405180910390f35b3480156109e5575f5ffd5b50610a0060048036038101906109fb9190614184565b611a49565b604051610a0d91906140b1565b60405180910390f35b610a306004803603810190610a2b919061515a565b611ab3565b005b348015610a3d575f5ffd5b50610a586004803603810190610a53919061469a565b611b3c565b604051610a6591906140b1565b60405180910390f35b348015610a79575f5ffd5b50610a82611b76565b604051610a8f91906141ee565b60405180910390f35b348015610aa3575f5ffd5b50610aac611b9e565b604051610ab9919061413a565b60405180910390f35b348015610acd575f5ffd5b50610ad6611bdb565b604051610ae39190614761565b60405180910390f35b348015610af7575f5ffd5b50610b126004803603810190610b0d9190615204565b611bff565b005b348015610b1f575f5ffd5b50610b3a6004803603810190610b35919061522f565b611c13565b604051610b4791906140b1565b60405180910390f35b348015610b5b575f5ffd5b50610b766004803603810190610b719190614184565b611c2e565b005b348015610b83575f5ffd5b50610b9e6004803603810190610b99919061526d565b611c42565b604051610bab91906143ec565b60405180910390f35b348015610bbf575f5ffd5b50610bda6004803603810190610bd59190614184565b611cc2565b604051610be791906140b1565b60405180910390f35b348015610bfb575f5ffd5b50610c04611cd3565b604051610c11919061535b565b60405180910390f35b5f610c23611cfa565b905090565b5f7fcdbdfcee000000000000000000000000000000000000000000000000000000007bffffffffffffffffffffffffffffffffffffffffffffffffffffffff1916827bffffffffffffffffffffffffffffffffffffffffffffffffffffffff19161480610cfb575063a8f8a66860e01b7fcdbdfcee00000000000000000000000000000000000000000000000000000000187bffffffffffffffffffffffffffffffffffffffffffffffffffffffff1916827bffffffffffffffffffffffffffffffffffffffffffffffffffffffff1916145b80610d6357507f4e2312e0000000000000000000000000000000000000000000000000000000007bffffffffffffffffffffffffffffffffffffffffffffffffffffffff1916827bffffffffffffffffffffffffffffffffffffffffffffffffffffffff1916145b80610d735750610d7282611d22565b5b9050919050565b5f600860069054906101000a900463ffffffff1663ffffffff16905090565b606060038054610da8906153a1565b80601f0160208091040260200160405190810160405280929190818152602001828054610dd4906153a1565b8015610e1f5780601f10610df657610100808354040283529160200191610e1f565b820191905f5260205f20905b815481529060010190602001808311610e0257829003601f168201915b5050505050905090565b5f60045f8381526020019081526020015f205f015f9054906101000a900473ffffffffffffffffffffffffffffffffffffffff169050919050565b5f3073ffffffffffffffffffffffffffffffffffffffff16610e84610c1a565b73ffffffffffffffffffffffffffffffffffffffff1614610ed1576040517fe90a651e00000000000000000000000000000000000000000000000000000000815260040160405180910390fd5b63150b7a0260e01b9050949350505050565b5f5f610ef18686868661195d565b9050610f0681610f016004611d8b565b611daf565b505f610f158288888888611e1a565b90505f8165ffffffffffff1614610f9a578060045f8481526020019081526020015f206001015f6101000a81548165ffffffffffff021916908365ffffffffffff1602179055507f9a2e42fd6722813d69113e7d0079d3d940171428df7373df9c7f7617cfda28928282604051610f8d929190615401565b60405180910390a1610fcc565b6040517f90884a4600000000000000000000000000000000000000000000000000000000815260040160405180910390fd5b8192505050949350505050565b5f5f610fe78686868661195d565b905061100781610ff76005611d8b565b6110016004611d8b565b17611daf565b50600160045f8381526020019081526020015f205f01601e6101000a81548160ff0219169083151502179055503073ffffffffffffffffffffffffffffffffffffffff16611053610c1a565b73ffffffffffffffffffffffffffffffffffffffff161461110c575f5f90505b865181101561110a573073ffffffffffffffffffffffffffffffffffffffff168782815181106110a6576110a5615428565b5b602002602001015173ffffffffffffffffffffffffffffffffffffffff16036110ff576110fe8582815181106110df576110de615428565b5b6020026020010151805190602001206005611e3390919063ffffffff16565b5b806001019050611073565b505b6111198187878787611e55565b3073ffffffffffffffffffffffffffffffffffffffff16611138610c1a565b73ffffffffffffffffffffffffffffffffffffffff161415801561116357506111616005611e69565b155b15611173576111726005611ed5565b5b7f712ae1383f79ac853f8d882153778e0260ef8f03b504e2866e0593e04d2b291f816040516111a291906140b1565b60405180910390a180915050949350505050565b5f60045f8381526020019081526020015f205f0160149054906101000a900465ffffffffffff1665ffffffffffff169050919050565b7f3e83946653575f9a39005e1545185629e92736b7528ab20ca3816f315424a81181565b5f60085f9054906101000a900465ffffffffffff1665ffffffffffff16905090565b5f61123c82611f4b565b9050919050565b5f60095f8481526020019081526020015f206003015f8373ffffffffffffffffffffffffffffffffffffffff1673ffffffffffffffffffffffffffffffffffffffff1681526020019081526020015f205f9054906101000a900460ff16905092915050565b5f5f6112b68686868661195d565b90505f6112c1612100565b90506112cd8282612107565b6113105781816040517f8fe5d8a9000000000000000000000000000000000000000000000000000000008152600401611307929190615455565b60405180910390fd5b61131c8787878761217e565b92505050949350505050565b6060611332611cd3565b73ffffffffffffffffffffffffffffffffffffffff16634bf5d7e96040518163ffffffff1660e01b81526004015f60405180830381865afa92505050801561139c57506040513d5f823e3d601f19601f8201168201806040525081019061139991906154ea565b60015b6113dd576040518060400160405280601d81526020017f6d6f64653d626c6f636b6e756d6265722666726f6d3d64656661756c7400000081525090506113e2565b809150505b90565b5f5f5f5f60095f8681526020019081526020015f209050805f015481600101548260020154935093509350509193909250565b60606040518060400160405280600181526020017f3100000000000000000000000000000000000000000000000000000000000000815250905090565b5f5f61145f612100565b905061147b84828560405180602001604052805f815250612195565b91505092915050565b5f6114d688888888888080601f0160208091040260200160405190810160405280939291908181526020018383808284375f81840152601f19601f8201169050808301925050505050505087876121b4565b61151757856040517f94ab6c0700000000000000000000000000000000000000000000000000000000815260040161150e91906141ee565b60405180910390fd5b61156788878988888080601f0160208091040260200160405190810160405280939291908181526020018383808284375f81840152601f19601f820116905080830192505050505050508761223c565b9050979650505050505050565b5f5f61157e612100565b90506115d087828888888080601f0160208091040260200160405190810160405280939291908181526020018383808284375f81840152601f19601f820116905080830192505050505050508761223c565b91505095945050505050565b6115e4612346565b6115ed8161243b565b50565b5f5f6115fa612100565b905061164b86828787878080601f0160208091040260200160405190810160405280939291908181526020018383808284375f81840152601f19601f82011690508083019250505050505050612195565b915050949350505050565b5f5f611660612100565b905061166c81846124ae565b6116ad57806040517fd9b395570000000000000000000000000000000000000000000000000000000081526004016116a491906141ee565b60405180910390fd5b5f6116b66119bb565b90505f811115611733575f6116e68360016116cf6118a9565b6116d9919061555e565b65ffffffffffff16611c13565b905081811015611731578281836040517fc242ee1600000000000000000000000000000000000000000000000000000000815260040161172893929190615597565b60405180910390fd5b505b6117408787878786612594565b92505050949350505050565b5f60025f8373ffffffffffffffffffffffffffffffffffffffff1673ffffffffffffffffffffffffffffffffffffffff1681526020019081526020015f20549050919050565b5f6060805f5f5f60606117a3612819565b6117ab612853565b46305f5f1b5f67ffffffffffffffff8111156117ca576117c9614239565b5b6040519080825280602002602001820160405280156117f85781602001602082028036833780820191505090505b507f0f00000000000000000000000000000000000000000000000000000000000000959493929190965096509650965096509650965090919293949596565b5f6118448585858561288e565b61188557826040517f94ab6c0700000000000000000000000000000000000000000000000000000000815260040161187c91906141ee565b60405180910390fd5b61189f85848660405180602001604052805f815250612195565b9050949350505050565b5f6118b2611cd3565b73ffffffffffffffffffffffffffffffffffffffff166391ddadf46040518163ffffffff1660e01b8152600401602060405180830381865afa92505050801561191957506040513d601f19601f8201168201806040525081019061191691906155e0565b60015b61192c57611925612902565b9050611931565b809150505b90565b5f611940848484612911565b90509392505050565b611951612346565b61195a8161299c565b50565b5f61196a85858585611b3c565b9050949350505050565b5f61197e82612a39565b9050919050565b5f60045f8381526020019081526020015f206001015f9054906101000a900465ffffffffffff1665ffffffffffff169050919050565b5f6119c4612a43565b905090565b5f3073ffffffffffffffffffffffffffffffffffffffff166119e9610c1a565b73ffffffffffffffffffffffffffffffffffffffff1614611a36576040517fe90a651e00000000000000000000000000000000000000000000000000000000815260040160405180910390fd5b63bc197c8160e01b905095945050505050565b5f60045f8381526020019081526020015f205f01601a9054906101000a900463ffffffff1663ffffffff1660045f8481526020019081526020015f205f0160149054906101000a900465ffffffffffff16611aa4919061560b565b65ffffffffffff169050919050565b611abb612346565b5f5f8573ffffffffffffffffffffffffffffffffffffffff16858585604051611ae5929190615672565b5f6040518083038185875af1925050503d805f8114611b1f576040519150601f19603f3d011682016040523d82523d5f602084013e611b24565b606091505b5091509150611b338282612a4c565b50505050505050565b5f84848484604051602001611b54949392919061584e565b604051602081830303815290604052805190602001205f1c9050949350505050565b5f600a5f9054906101000a900473ffffffffffffffffffffffffffffffffffffffff16905090565b60606040518060400160405280602081526020017f737570706f72743d627261766f2671756f72756d3d666f722c6162737461696e815250905090565b7ff2aad550cf55f045cb27e9c559f9889fdfb6e6cdaa032301d6ea397784ae51d781565b611c07612346565b611c1081612aac565b50565b5f611c268383611c21612b65565b612911565b905092915050565b611c36612346565b611c3f81612b7b565b50565b5f3073ffffffffffffffffffffffffffffffffffffffff16611c62610c1a565b73ffffffffffffffffffffffffffffffffffffffff1614611caf576040517fe90a651e00000000000000000000000000000000000000000000000000000000815260040160405180910390fd5b63f23a6e6160e01b905095945050505050565b5f670de0b6b3a76400009050919050565b5f7f0000000000000000000000000000000000000000000000000000000000000000905090565b5f600a5f9054906101000a900473ffffffffffffffffffffffffffffffffffffffff16905090565b5f7f01ffc9a7000000000000000000000000000000000000000000000000000000007bffffffffffffffffffffffffffffffffffffffffffffffffffffffff1916827bffffffffffffffffffffffffffffffffffffffffffffffffffffffff1916149050919050565b5f816007811115611d9f57611d9e61477a565b5b60ff166001901b5f1b9050919050565b5f5f611dba84611232565b90505f5f1b83611dc983611d8b565b1603611e10578381846040517f31b75e4d000000000000000000000000000000000000000000000000000000008152600401611e07939291906158a6565b60405180910390fd5b8091505092915050565b5f611e288686868686612bc0565b905095945050505050565b5f611e3e8383612dc6565b905080611e5057611e4f6041612ec4565b5b505050565b611e628585858585612ed5565b5050505050565b5f815f015f9054906101000a90046fffffffffffffffffffffffffffffffff166fffffffffffffffffffffffffffffffff16825f0160109054906101000a90046fffffffffffffffffffffffffffffffff166fffffffffffffffffffffffffffffffff16149050919050565b5f815f015f6101000a8154816fffffffffffffffffffffffffffffffff02191690836fffffffffffffffffffffffffffffffff1602179055505f815f0160106101000a8154816fffffffffffffffffffffffffffffffff02191690836fffffffffffffffffffffffffffffffff16021790555050565b5f5f611f5683612f89565b905060056007811115611f6c57611f6b61477a565b5b816007811115611f7f57611f7e61477a565b5b14611f8d57809150506120fb565b5f600b5f8581526020019081526020015f20549050600a5f9054906101000a900473ffffffffffffffffffffffffffffffffffffffff1673ffffffffffffffffffffffffffffffffffffffff1663584b153e826040518263ffffffff1660e01b8152600401611ffc9190614761565b602060405180830381865afa158015612017573d5f5f3e3d5ffd5b505050506040513d601f19601f8201168201806040525081019061203b9190615905565b1561204b576005925050506120fb565b600a5f9054906101000a900473ffffffffffffffffffffffffffffffffffffffff1673ffffffffffffffffffffffffffffffffffffffff16632ab0f529826040518263ffffffff1660e01b81526004016120a59190614761565b602060405180830381865afa1580156120c0573d5f5f3e3d5ffd5b505050506040513d601f19601f820116820180604052508101906120e49190615905565b156120f4576007925050506120fb565b6002925050505b919050565b5f33905090565b5f5f600781111561211b5761211a61477a565b5b61212484611232565b60078111156121365761213561477a565b5b148015612176575061214783610e29565b73ffffffffffffffffffffffffffffffffffffffff168273ffffffffffffffffffffffffffffffffffffffff16145b905092915050565b5f61218b858585856130e0565b9050949350505050565b5f6121aa858585856121a5612b65565b61223c565b9050949350505050565b5f6122308561222a7f3e83946653575f9a39005e1545185629e92736b7528ab20ca3816f315424a8118a8a8a6121e98c6131b7565b8b805190602001208b8051906020012060405160200161220f979695949392919061593f565b6040516020818303038152906040528051906020012061320a565b84613223565b90509695505050505050565b5f6122508661224b6001611d8b565b611daf565b505f6122658661225f896111b6565b85612911565b90505f61227588888885886132cf565b90505f8451036122d8578673ffffffffffffffffffffffffffffffffffffffff167fb8e138887d0aa13bab447e82de9d5c1777041ecd21ca36ba824ff1e6c07ddda4898884896040516122cb94939291906159ac565b60405180910390a261232f565b8673ffffffffffffffffffffffffffffffffffffffff167fe2babfbac5889a709b63bb7f598b324e08bc5a4fb9ec647fb3cbc9ec07eb87128988848989604051612326959493929190615a3e565b60405180910390a25b612338886134c4565b809250505095945050505050565b61234e612100565b73ffffffffffffffffffffffffffffffffffffffff1661236c610c1a565b73ffffffffffffffffffffffffffffffffffffffff16146123cb5761238f612100565b6040517f47096e470000000000000000000000000000000000000000000000000000000081526004016123c291906141ee565b60405180910390fd5b3073ffffffffffffffffffffffffffffffffffffffff166123ea610c1a565b73ffffffffffffffffffffffffffffffffffffffff1614612439575f61240e6134c7565b60405161241c929190615672565b604051809103902090505b8061243260056134d3565b0361242757505b565b7fc565b045403dc03c2eea82b81a0465edad9e2e7fc4d97e11421c209da93d7a9360085f9054906101000a900465ffffffffffff168260405161247f929190615a9d565b60405180910390a18060085f6101000a81548165ffffffffffff021916908365ffffffffffff16021790555050565b5f5f8251905060348110156124c757600191505061258e565b5f6124d584603484036134fd565b90507f2370726f706f7365723d0000000000000000000000000000000000000000000075ffffffffffffffffffffffffffffffffffffffffffff19168175ffffffffffffffffffffffffffffffffffffffffffff19161461253b5760019250505061258e565b5f5f61254b86602a86038661350d565b9150915081158061258757508673ffffffffffffffffffffffffffffffffffffffff168173ffffffffffffffffffffffffffffffffffffffff16145b9450505050505b92915050565b5f6125a8868686868051906020012061195d565b9050845186511415806125bd57508351865114155b806125c857505f8651145b15612611578551845186516040517f447b05d000000000000000000000000000000000000000000000000000000000815260040161260893929190614844565b60405180910390fd5b5f60045f8381526020019081526020015f205f0160149054906101000a900465ffffffffffff1665ffffffffffff1614612690578061264f82611232565b5f5f1b6040517f31b75e4d000000000000000000000000000000000000000000000000000000008152600401612687939291906158a6565b60405180910390fd5b5f612699611210565b6126a16118a9565b65ffffffffffff166126b39190615ac4565b90505f6126be610d7a565b90505f60045f8581526020019081526020015f20905084815f015f6101000a81548173ffffffffffffffffffffffffffffffffffffffff021916908373ffffffffffffffffffffffffffffffffffffffff16021790555061271e8361361e565b815f0160146101000a81548165ffffffffffff021916908365ffffffffffff16021790555061274c82613677565b815f01601a6101000a81548163ffffffff021916908363ffffffff1602179055507f7d84a6263ae0d98d3329bd7b46bb4e8d6f98cd35a7adb45c274c8b7fd5ebd5e084868b8b8d5167ffffffffffffffff8111156127ad576127ac614239565b5b6040519080825280602002602001820160405280156127e057816020015b60608152602001906001900390816127cb5790505b508c89898b6127ef9190615ac4565b8e60405161280599989796959493929190615bfa565b60405180910390a150505095945050505050565b606061284e5f7f00000000000000000000000000000000000000000000000000000000000000006136ce90919063ffffffff16565b905090565b606061288960017f00000000000000000000000000000000000000000000000000000000000000006136ce90919063ffffffff16565b905090565b5f6128f8836128f27ff2aad550cf55f045cb27e9c559f9889fdfb6e6cdaa032301d6ea397784ae51d78888886128c38a6131b7565b6040516020016128d7959493929190615ca8565b6040516020818303038152906040528051906020012061320a565b84613223565b9050949350505050565b5f61290c4361361e565b905090565b5f61291a611cd3565b73ffffffffffffffffffffffffffffffffffffffff16633a46b1a885856040518363ffffffff1660e01b8152600401612954929190615cf9565b602060405180830381865afa15801561296f573d5f5f3e3d5ffd5b505050506040513d601f19601f820116820180604052508101906129939190615d34565b90509392505050565b7f08f74ea46ef7894f65eabfb5e6e695de773a000b47c529ab559178069b226401600a5f9054906101000a900473ffffffffffffffffffffffffffffffffffffffff16826040516129ee929190615d5f565b60405180910390a180600a5f6101000a81548173ffffffffffffffffffffffffffffffffffffffff021916908373ffffffffffffffffffffffffffffffffffffffff16021790555050565b5f60019050919050565b5f600754905090565b60608215612a5c57819050612aa6565b5f82511115612a7357612a6e8261377b565b612aa5565b6040517fd6bda27500000000000000000000000000000000000000000000000000000000815260040160405180910390fd5b5b92915050565b5f8163ffffffff1603612af6575f6040517ff1cfbf05000000000000000000000000000000000000000000000000000000008152600401612aed9190615dbf565b60405180910390fd5b7f7e3f7f0708a84de9203036abaa450dccc85ad5ff52f78c170f3edb55cf5e8828600860069054906101000a900463ffffffff1682604051612b39929190615e08565b60405180910390a180600860066101000a81548163ffffffff021916908363ffffffff16021790555050565b606060405180602001604052805f815250905090565b7fccb45da8d5717e6c4544694297c4ba5cf151d455c9bb0ed4fc7a38411bc0546160075482604051612bae929190615e2f565b60405180910390a18060078190555050565b5f5f600a5f9054906101000a900473ffffffffffffffffffffffffffffffffffffffff1673ffffffffffffffffffffffffffffffffffffffff1663f27a0c926040518163ffffffff1660e01b8152600401602060405180830381865afa158015612c2c573d5f5f3e3d5ffd5b505050506040513d601f19601f82011682018060405250810190612c509190615d34565b90505f612c5c84613783565b9050600a5f9054906101000a900473ffffffffffffffffffffffffffffffffffffffff1673ffffffffffffffffffffffffffffffffffffffff1663b1c5f4278888885f866040518663ffffffff1660e01b8152600401612cc0959493929190615e91565b602060405180830381865afa158015612cdb573d5f5f3e3d5ffd5b505050506040513d601f19601f82011682018060405250810190612cff9190615f0b565b600b5f8a81526020019081526020015f2081905550600a5f9054906101000a900473ffffffffffffffffffffffffffffffffffffffff1673ffffffffffffffffffffffffffffffffffffffff16638f2a0bb08888885f86886040518763ffffffff1660e01b8152600401612d7896959493929190615f36565b5f604051808303815f87803b158015612d8f575f5ffd5b505af1158015612da1573d5f5f3e3d5ffd5b50505050612db98242612db49190615ac4565b61361e565b9250505095945050505050565b5f5f835f0160109054906101000a90046fffffffffffffffffffffffffffffffff169050835f015f9054906101000a90046fffffffffffffffffffffffffffffffff166fffffffffffffffffffffffffffffffff16600182016fffffffffffffffffffffffffffffffff1603612e3f575f915050612ebe565b82846001015f836fffffffffffffffffffffffffffffffff166fffffffffffffffffffffffffffffffff1681526020019081526020015f208190555060018101845f0160106101000a8154816fffffffffffffffffffffffffffffffff02191690836fffffffffffffffffffffffffffffffff16021790555060019150505b92915050565b634e487b715f52806020526024601cfd5b600a5f9054906101000a900473ffffffffffffffffffffffffffffffffffffffff1673ffffffffffffffffffffffffffffffffffffffff1663e38335e5348686865f612f2088613783565b6040518763ffffffff1660e01b8152600401612f40959493929190615e91565b5f604051808303818588803b158015612f57575f5ffd5b505af1158015612f69573d5f5f3e3d5ffd5b5050505050600b5f8681526020019081526020015f205f90555050505050565b5f5f60045f8481526020019081526020015f2090505f815f01601e9054906101000a900460ff1690505f825f01601f9054906101000a900460ff1690508115612fd857600793505050506130db565b8015612fea57600293505050506130db565b5f612ff4866111b6565b90505f810361303a57856040517f6ad0607500000000000000000000000000000000000000000000000000000000815260040161303191906140b1565b60405180910390fd5b5f6130436118a9565b65ffffffffffff169050808210613061575f955050505050506130db565b5f61306b88611a49565b905081811061308357600196505050505050506130db565b61308c886137a0565b158061309e575061309c886137e4565b155b156130b257600396505050505050506130db565b5f6130bc89611985565b036130d057600496505050505050506130db565b600596505050505050505b919050565b5f5f6130ee8686868661380b565b90505f600b5f8381526020019081526020015f205490505f5f1b81146131aa57600a5f9054906101000a900473ffffffffffffffffffffffffffffffffffffffff1673ffffffffffffffffffffffffffffffffffffffff1663c4d252f5826040518263ffffffff1660e01b81526004016131689190614761565b5f604051808303815f87803b15801561317f575f5ffd5b505af1158015613191573d5f5f3e3d5ffd5b50505050600b5f8381526020019081526020015f205f90555b8192505050949350505050565b5f60025f8373ffffffffffffffffffffffffffffffffffffffff1673ffffffffffffffffffffffffffffffffffffffff1681526020019081526020015f205f815480929190600101919050559050919050565b5f61321c6132166138ed565b836139a3565b9050919050565b5f5f8473ffffffffffffffffffffffffffffffffffffffff163b036132ba575f5f61324e85856139e3565b50915091505f60038111156132665761326561477a565b5b8160038111156132795761327861477a565b5b1480156132b157508573ffffffffffffffffffffffffffffffffffffffff168273ffffffffffffffffffffffffffffffffffffffff16145b925050506132c8565b6132c5848484613a38565b90505b9392505050565b5f5f60095f8881526020019081526020015f209050806003015f8773ffffffffffffffffffffffffffffffffffffffff1673ffffffffffffffffffffffffffffffffffffffff1681526020019081526020015f205f9054906101000a900460ff161561337257856040517f71c6af4900000000000000000000000000000000000000000000000000000000815260040161336991906141ee565b60405180910390fd5b6001816003015f8873ffffffffffffffffffffffffffffffffffffffff1673ffffffffffffffffffffffffffffffffffffffff1681526020019081526020015f205f6101000a81548160ff0219169083151502179055505f60028111156133dc576133db61477a565b5b60ff168560ff16036134065783815f015f8282546133fa9190615ac4565b925050819055506134b7565b6001600281111561341a5761341961477a565b5b60ff168560ff16036134455783816001015f8282546134399190615ac4565b925050819055506134b6565b6002808111156134585761345761477a565b5b60ff168560ff16036134835783816002015f8282546134779190615ac4565b925050819055506134b5565b6040517f06b337c200000000000000000000000000000000000000000000000000000000815260040160405180910390fd5b5b5b8391505095945050505050565b50565b365f5f36915091509091565b5f5f5f6134df84613a89565b91509150816134f3576134f26031612ec4565b5b8092505050919050565b5f81602084010151905092915050565b5f5f845183118061351d57508284115b1561352d575f5f91509150613616565b5f60018561353b9190615ac4565b841180156135b357507f30780000000000000000000000000000000000000000000000000000000000007dffffffffffffffffffffffffffffffffffffffffffffffffffffffffffff19166135908787613bc0565b7dffffffffffffffffffffffffffffffffffffffffffffffffffffffffffff1916145b90505f60026135c3831515613bd0565b6135cd9190615faa565b60286135d99190615ac4565b90508086866135e89190615feb565b0361360d575f5f6135fa898989613bdb565b9150915081819550955050505050613616565b5f5f9350935050505b935093915050565b5f65ffffffffffff801682111561366f576030826040517f6dfcc650000000000000000000000000000000000000000000000000000000008152600401613666929190616057565b60405180910390fd5b819050919050565b5f63ffffffff80168211156136c6576020826040517f6dfcc6500000000000000000000000000000000000000000000000000000000081526004016136bd9291906160b7565b60405180910390fd5b819050919050565b606060ff5f1b83146136ea576136e383613d09565b9050613775565b8180546136f6906153a1565b80601f0160208091040260200160405190810160405280929190818152602001828054613722906153a1565b801561376d5780601f106137445761010080835404028352916020019161376d565b820191905f5260205f20905b81548152906001019060200180831161375057829003601f168201915b505050505090505b92915050565b805160208201fd5b5f813060601b6bffffffffffffffffffffffff1916189050919050565b5f5f60095f8481526020019081526020015f209050806002015481600101546137c99190615ac4565b6137da6137d5856111b6565b611cc2565b1115915050919050565b5f5f60095f8481526020019081526020015f209050805f0154816001015411915050919050565b5f5f6138198686868661195d565b905061387d816138296007611d8b565b6138336006611d8b565b61383d6002611d8b565b6001806007808111156138535761385261477a565b5b61385d91906160de565b60026138699190616241565b6138739190615feb565b5f1b181818611daf565b50600160045f8381526020019081526020015f205f01601f6101000a81548160ff0219169083151502179055507f789cf55be980739dad1d0699b93b58e806b51c9d96619bfa8fe0a28abaa7b30c816040516138d991906140b1565b60405180910390a180915050949350505050565b5f7f000000000000000000000000000000000000000000000000000000000000000073ffffffffffffffffffffffffffffffffffffffff163073ffffffffffffffffffffffffffffffffffffffff1614801561396857507f000000000000000000000000000000000000000000000000000000000000000046145b15613995577f000000000000000000000000000000000000000000000000000000000000000090506139a0565b61399d613d7b565b90505b90565b5f6040517f190100000000000000000000000000000000000000000000000000000000000081528360028201528260228201526042812091505092915050565b5f5f5f6041845103613a23575f5f5f602087015192506040870151915060608701515f1a9050613a1588828585613e10565b955095509550505050613a31565b5f600285515f1b9250925092505b9250925092565b5f5f631626ba7e60e01b90505f83519050604051828152856004820152604060248201526020820185604483015e60205f60648401838a5afa835f5114601f3d111681169450505050509392505050565b5f5f5f835f015f9054906101000a90046fffffffffffffffffffffffffffffffff169050835f0160109054906101000a90046fffffffffffffffffffffffffffffffff166fffffffffffffffffffffffffffffffff16816fffffffffffffffffffffffffffffffff1603613b05575f5f5f1b9250925050613bbb565b60019250836001015f826fffffffffffffffffffffffffffffffff166fffffffffffffffffffffffffffffffff1681526020019081526020015f20549150836001015f826fffffffffffffffffffffffffffffffff166fffffffffffffffffffffffffffffffff1681526020019081526020015f205f905560018101845f015f6101000a8154816fffffffffffffffffffffffffffffffff02191690836fffffffffffffffffffffffffffffffff160217905550505b915091565b5f81602084010151905092915050565b5f8115159050919050565b5f5f5f8590505f600186613bef9190615ac4565b85118015613c6757507f30780000000000000000000000000000000000000000000000000000000000007dffffffffffffffffffffffffffffffffffffffffffffffffffffffffffff1916613c448388613bc0565b7dffffffffffffffffffffffffffffffffffffffffffffffffffffffffffff1916145b90505f6002613c77831515613bd0565b613c819190615faa565b90505f5f90505f8289613c949190615ac4565b90505b87811015613cf4575f613cb2613cad8784613bc0565b613ef7565b9050600f8160ff161115613cd1575f5f97509750505050505050613d01565b601083613cde9190615faa565b92508060ff168301925050806001019050613c97565b5060018195509550505050505b935093915050565b60605f613d1583613f87565b90505f602067ffffffffffffffff811115613d3357613d32614239565b5b6040519080825280601f01601f191660200182016040528015613d655781602001600182028036833780820191505090505b5090508181528360208201528092505050919050565b5f7f8b73c3c69bb8fe3d512ecc4cf759cc79239f7b179b0ffacaa9a75d522b39400f7f00000000000000000000000000000000000000000000000000000000000000007f00000000000000000000000000000000000000000000000000000000000000004630604051602001613df595949392919061628b565b60405160208183030381529060405280519060200120905090565b5f5f5f7f7fffffffffffffffffffffffffffffff5d576e7357a4501ddfe92f46681b20a0845f1c1115613e4c575f600385925092509250613eed565b5f6001888888886040515f8152602001604052604051613e6f94939291906162dc565b6020604051602081039080840390855afa158015613e8f573d5f5f3e3d5ffd5b5050506020604051035190505f73ffffffffffffffffffffffffffffffffffffffff168173ffffffffffffffffffffffffffffffffffffffff1603613ee0575f60015f5f1b93509350935050613eed565b805f5f5f1b935093509350505b9450945094915050565b5f5f8260f81c9050602f8160ff16118015613f155750603a8160ff16105b15613f2557603081039050613f7d565b60608160ff16118015613f3b575060678160ff16105b15613f4b57605781039050613f7c565b60408160ff16118015613f61575060478160ff16105b15613f7157603781039050613f7b565b60ff915050613f82565b5b5b809150505b919050565b5f5f60ff835f1c169050601f811115613fcc576040517fb3512b0c00000000000000000000000000000000000000000000000000000000815260040160405180910390fd5b80915050919050565b5f604051905090565b5f5ffd5b5f5ffd5b5f7fffffffff0000000000000000000000000000000000000000000000000000000082169050919050565b61401a81613fe6565b8114614024575f5ffd5b50565b5f8135905061403581614011565b92915050565b5f602082840312156140505761404f613fde565b5b5f61405d84828501614027565b91505092915050565b5f8115159050919050565b61407a81614066565b82525050565b5f6020820190506140935f830184614071565b92915050565b5f819050919050565b6140ab81614099565b82525050565b5f6020820190506140c45f8301846140a2565b92915050565b5f81519050919050565b5f82825260208201905092915050565b8281835e5f83830152505050565b5f601f19601f8301169050919050565b5f61410c826140ca565b61411681856140d4565b93506141268185602086016140e4565b61412f816140f2565b840191505092915050565b5f6020820190508181035f8301526141528184614102565b905092915050565b61416381614099565b811461416d575f5ffd5b50565b5f8135905061417e8161415a565b92915050565b5f6020828403121561419957614198613fde565b5b5f6141a684828501614170565b91505092915050565b5f73ffffffffffffffffffffffffffffffffffffffff82169050919050565b5f6141d8826141af565b9050919050565b6141e8816141ce565b82525050565b5f6020820190506142015f8301846141df565b92915050565b614210816141ce565b811461421a575f5ffd5b50565b5f8135905061422b81614207565b92915050565b5f5ffd5b5f5ffd5b7f4e487b71000000000000000000000000000000000000000000000000000000005f52604160045260245ffd5b61426f826140f2565b810181811067ffffffffffffffff8211171561428e5761428d614239565b5b80604052505050565b5f6142a0613fd5565b90506142ac8282614266565b919050565b5f67ffffffffffffffff8211156142cb576142ca614239565b5b6142d4826140f2565b9050602081019050919050565b828183375f83830152505050565b5f6143016142fc846142b1565b614297565b90508281526020810184848401111561431d5761431c614235565b5b6143288482856142e1565b509392505050565b5f82601f83011261434457614343614231565b5b81356143548482602086016142ef565b91505092915050565b5f5f5f5f6080858703121561437557614374613fde565b5b5f6143828782880161421d565b94505060206143938782880161421d565b93505060406143a487828801614170565b925050606085013567ffffffffffffffff8111156143c5576143c4613fe2565b5b6143d187828801614330565b91505092959194509250565b6143e681613fe6565b82525050565b5f6020820190506143ff5f8301846143dd565b92915050565b5f67ffffffffffffffff82111561441f5761441e614239565b5b602082029050602081019050919050565b5f5ffd5b5f61444661444184614405565b614297565b9050808382526020820190506020840283018581111561446957614468614430565b5b835b81811015614492578061447e888261421d565b84526020840193505060208101905061446b565b5050509392505050565b5f82601f8301126144b0576144af614231565b5b81356144c0848260208601614434565b91505092915050565b5f67ffffffffffffffff8211156144e3576144e2614239565b5b602082029050602081019050919050565b5f614506614501846144c9565b614297565b9050808382526020820190506020840283018581111561452957614528614430565b5b835b81811015614552578061453e8882614170565b84526020840193505060208101905061452b565b5050509392505050565b5f82601f8301126145705761456f614231565b5b81356145808482602086016144f4565b91505092915050565b5f67ffffffffffffffff8211156145a3576145a2614239565b5b602082029050602081019050919050565b5f6145c66145c184614589565b614297565b905080838252602082019050602084028301858111156145e9576145e8614430565b5b835b8181101561463057803567ffffffffffffffff81111561460e5761460d614231565b5b80860161461b8982614330565b855260208501945050506020810190506145eb565b5050509392505050565b5f82601f83011261464e5761464d614231565b5b813561465e8482602086016145b4565b91505092915050565b5f819050919050565b61467981614667565b8114614683575f5ffd5b50565b5f8135905061469481614670565b92915050565b5f5f5f5f608085870312156146b2576146b1613fde565b5b5f85013567ffffffffffffffff8111156146cf576146ce613fe2565b5b6146db8782880161449c565b945050602085013567ffffffffffffffff8111156146fc576146fb613fe2565b5b6147088782880161455c565b935050604085013567ffffffffffffffff81111561472957614728613fe2565b5b6147358782880161463a565b925050606061474687828801614686565b91505092959194509250565b61475b81614667565b82525050565b5f6020820190506147745f830184614752565b92915050565b7f4e487b71000000000000000000000000000000000000000000000000000000005f52602160045260245ffd5b600881106147b8576147b761477a565b5b50565b5f8190506147c8826147a7565b919050565b5f6147d7826147bb565b9050919050565b6147e7816147cd565b82525050565b5f6020820190506148005f8301846147de565b92915050565b5f5f6040838503121561481c5761481b613fde565b5b5f61482985828601614170565b925050602061483a8582860161421d565b9150509250929050565b5f6060820190506148575f8301866140a2565b61486460208301856140a2565b61487160408301846140a2565b949350505050565b5f60ff82169050919050565b61488e81614879565b8114614898575f5ffd5b50565b5f813590506148a981614885565b92915050565b5f5f604083850312156148c5576148c4613fde565b5b5f6148d285828601614170565b92505060206148e38582860161489b565b9150509250929050565b5f5ffd5b5f5f83601f84011261490657614905614231565b5b8235905067ffffffffffffffff811115614923576149226148ed565b5b60208301915083600182028301111561493f5761493e614430565b5b9250929050565b5f5f5f5f5f5f5f60c0888a03121561496157614960613fde565b5b5f61496e8a828b01614170565b975050602061497f8a828b0161489b565b96505060406149908a828b0161421d565b955050606088013567ffffffffffffffff8111156149b1576149b0613fe2565b5b6149bd8a828b016148f1565b9450945050608088013567ffffffffffffffff8111156149e0576149df613fe2565b5b6149ec8a828b01614330565b92505060a088013567ffffffffffffffff811115614a0d57614a0c613fe2565b5b614a198a828b01614330565b91505092959891949750929550565b5f5f5f5f5f60808688031215614a4157614a40613fde565b5b5f614a4e88828901614170565b9550506020614a5f8882890161489b565b945050604086013567ffffffffffffffff811115614a8057614a7f613fe2565b5b614a8c888289016148f1565b9350935050606086013567ffffffffffffffff811115614aaf57614aae613fe2565b5b614abb88828901614330565b9150509295509295909350565b5f65ffffffffffff82169050919050565b614ae281614ac8565b8114614aec575f5ffd5b50565b5f81359050614afd81614ad9565b92915050565b5f60208284031215614b1857614b17613fde565b5b5f614b2584828501614aef565b91505092915050565b5f5f5f5f60608587031215614b4657614b45613fde565b5b5f614b5387828801614170565b9450506020614b648782880161489b565b935050604085013567ffffffffffffffff811115614b8557614b84613fe2565b5b614b91878288016148f1565b925092505092959194509250565b5f67ffffffffffffffff821115614bb957614bb8614239565b5b614bc2826140f2565b9050602081019050919050565b5f614be1614bdc84614b9f565b614297565b905082815260208101848484011115614bfd57614bfc614235565b5b614c088482856142e1565b509392505050565b5f82601f830112614c2457614c23614231565b5b8135614c34848260208601614bcf565b91505092915050565b5f5f5f5f60808587031215614c5557614c54613fde565b5b5f85013567ffffffffffffffff811115614c7257614c71613fe2565b5b614c7e8782880161449c565b945050602085013567ffffffffffffffff811115614c9f57614c9e613fe2565b5b614cab8782880161455c565b935050604085013567ffffffffffffffff811115614ccc57614ccb613fe2565b5b614cd88782880161463a565b925050606085013567ffffffffffffffff811115614cf957614cf8613fe2565b5b614d0587828801614c10565b91505092959194509250565b5f60208284031215614d2657614d25613fde565b5b5f614d338482850161421d565b91505092915050565b5f7fff0000000000000000000000000000000000000000000000000000000000000082169050919050565b614d7081614d3c565b82525050565b5f81519050919050565b5f82825260208201905092915050565b5f819050602082019050919050565b614da881614099565b82525050565b5f614db98383614d9f565b60208301905092915050565b5f602082019050919050565b5f614ddb82614d76565b614de58185614d80565b9350614df083614d90565b805f5b83811015614e20578151614e078882614dae565b9750614e1283614dc5565b925050600181019050614df3565b5085935050505092915050565b5f60e082019050614e405f83018a614d67565b8181036020830152614e528189614102565b90508181036040830152614e668188614102565b9050614e7560608301876140a2565b614e8260808301866141df565b614e8f60a0830185614752565b81810360c0830152614ea18184614dd1565b905098975050505050505050565b5f5f5f5f60808587031215614ec757614ec6613fde565b5b5f614ed487828801614170565b9450506020614ee58782880161489b565b9350506040614ef68782880161421d565b925050606085013567ffffffffffffffff811115614f1757614f16613fe2565b5b614f2387828801614330565b91505092959194509250565b614f3881614ac8565b82525050565b5f602082019050614f515f830184614f2f565b92915050565b5f5f5f60608486031215614f6e57614f6d613fde565b5b5f614f7b8682870161421d565b9350506020614f8c86828701614170565b925050604084013567ffffffffffffffff811115614fad57614fac613fe2565b5b614fb986828701614330565b9150509250925092565b5f614fcd826141af565b9050919050565b5f614fde82614fc3565b9050919050565b614fee81614fd4565b8114614ff8575f5ffd5b50565b5f8135905061500981614fe5565b92915050565b5f6020828403121561502457615023613fde565b5b5f61503184828501614ffb565b91505092915050565b5f5f5f5f5f60a0868803121561505357615052613fde565b5b5f6150608882890161421d565b95505060206150718882890161421d565b945050604086013567ffffffffffffffff81111561509257615091613fe2565b5b61509e8882890161455c565b935050606086013567ffffffffffffffff8111156150bf576150be613fe2565b5b6150cb8882890161455c565b925050608086013567ffffffffffffffff8111156150ec576150eb613fe2565b5b6150f888828901614330565b9150509295509295909350565b5f5f83601f84011261511a57615119614231565b5b8235905067ffffffffffffffff811115615137576151366148ed565b5b60208301915083600182028301111561515357615152614430565b5b9250929050565b5f5f5f5f6060858703121561517257615171613fde565b5b5f61517f8782880161421d565b945050602061519087828801614170565b935050604085013567ffffffffffffffff8111156151b1576151b0613fe2565b5b6151bd87828801615105565b925092505092959194509250565b5f63ffffffff82169050919050565b6151e3816151cb565b81146151ed575f5ffd5b50565b5f813590506151fe816151da565b92915050565b5f6020828403121561521957615218613fde565b5b5f615226848285016151f0565b91505092915050565b5f5f6040838503121561524557615244613fde565b5b5f6152528582860161421d565b925050602061526385828601614170565b9150509250929050565b5f5f5f5f5f60a0868803121561528657615285613fde565b5b5f6152938882890161421d565b95505060206152a48882890161421d565b94505060406152b588828901614170565b93505060606152c688828901614170565b925050608086013567ffffffffffffffff8111156152e7576152e6613fe2565b5b6152f388828901614330565b9150509295509295909350565b5f819050919050565b5f61532361531e615319846141af565b615300565b6141af565b9050919050565b5f61533482615309565b9050919050565b5f6153458261532a565b9050919050565b6153558161533b565b82525050565b5f60208201905061536e5f83018461534c565b92915050565b7f4e487b71000000000000000000000000000000000000000000000000000000005f52602260045260245ffd5b5f60028204905060018216806153b857607f821691505b6020821081036153cb576153ca615374565b5b50919050565b5f6153eb6153e66153e184614ac8565b615300565b614099565b9050919050565b6153fb816153d1565b82525050565b5f6040820190506154145f8301856140a2565b61542160208301846153f2565b9392505050565b7f4e487b71000000000000000000000000000000000000000000000000000000005f52603260045260245ffd5b5f6040820190506154685f8301856140a2565b61547560208301846141df565b9392505050565b5f61548e61548984614b9f565b614297565b9050828152602081018484840111156154aa576154a9614235565b5b6154b58482856140e4565b509392505050565b5f82601f8301126154d1576154d0614231565b5b81516154e184826020860161547c565b91505092915050565b5f602082840312156154ff576154fe613fde565b5b5f82015167ffffffffffffffff81111561551c5761551b613fe2565b5b615528848285016154bd565b91505092915050565b7f4e487b71000000000000000000000000000000000000000000000000000000005f52601160045260245ffd5b5f61556882614ac8565b915061557383614ac8565b9250828203905065ffffffffffff81111561559157615590615531565b5b92915050565b5f6060820190506155aa5f8301866141df565b6155b760208301856140a2565b6155c460408301846140a2565b949350505050565b5f815190506155da81614ad9565b92915050565b5f602082840312156155f5576155f4613fde565b5b5f615602848285016155cc565b91505092915050565b5f61561582614ac8565b915061562083614ac8565b9250828201905065ffffffffffff81111561563e5761563d615531565b5b92915050565b5f81905092915050565b5f6156598385615644565b93506156668385846142e1565b82840190509392505050565b5f61567e82848661564e565b91508190509392505050565b5f81519050919050565b5f82825260208201905092915050565b5f819050602082019050919050565b6156bc816141ce565b82525050565b5f6156cd83836156b3565b60208301905092915050565b5f602082019050919050565b5f6156ef8261568a565b6156f98185615694565b9350615704836156a4565b805f5b8381101561573457815161571b88826156c2565b9750615726836156d9565b925050600181019050615707565b5085935050505092915050565b5f81519050919050565b5f82825260208201905092915050565b5f819050602082019050919050565b5f81519050919050565b5f82825260208201905092915050565b5f61578e8261576a565b6157988185615774565b93506157a88185602086016140e4565b6157b1816140f2565b840191505092915050565b5f6157c78383615784565b905092915050565b5f602082019050919050565b5f6157e582615741565b6157ef818561574b565b9350836020820285016158018561575b565b805f5b8581101561583c578484038952815161581d85826157bc565b9450615828836157cf565b925060208a01995050600181019050615804565b50829750879550505050505092915050565b5f6080820190508181035f83015261586681876156e5565b9050818103602083015261587a8186614dd1565b9050818103604083015261588e81856157db565b905061589d6060830184614752565b95945050505050565b5f6060820190506158b95f8301866140a2565b6158c660208301856147de565b6158d36040830184614752565b949350505050565b6158e481614066565b81146158ee575f5ffd5b50565b5f815190506158ff816158db565b92915050565b5f6020828403121561591a57615919613fde565b5b5f615927848285016158f1565b91505092915050565b61593981614879565b82525050565b5f60e0820190506159525f83018a614752565b61595f60208301896140a2565b61596c6040830188615930565b61597960608301876141df565b61598660808301866140a2565b61599360a0830185614752565b6159a060c0830184614752565b98975050505050505050565b5f6080820190506159bf5f8301876140a2565b6159cc6020830186615930565b6159d960408301856140a2565b81810360608301526159eb8184614102565b905095945050505050565b5f82825260208201905092915050565b5f615a108261576a565b615a1a81856159f6565b9350615a2a8185602086016140e4565b615a33816140f2565b840191505092915050565b5f60a082019050615a515f8301886140a2565b615a5e6020830187615930565b615a6b60408301866140a2565b8181036060830152615a7d8185614102565b90508181036080830152615a918184615a06565b90509695505050505050565b5f604082019050615ab05f8301856153f2565b615abd60208301846153f2565b9392505050565b5f615ace82614099565b9150615ad983614099565b9250828201905080821115615af157615af0615531565b5b92915050565b5f81519050919050565b5f82825260208201905092915050565b5f819050602082019050919050565b5f82825260208201905092915050565b5f615b3a826140ca565b615b448185615b20565b9350615b548185602086016140e4565b615b5d816140f2565b840191505092915050565b5f615b738383615b30565b905092915050565b5f602082019050919050565b5f615b9182615af7565b615b9b8185615b01565b935083602082028501615bad85615b11565b805f5b85811015615be85784840389528151615bc98582615b68565b9450615bd483615b7b565b925060208a01995050600181019050615bb0565b50829750879550505050505092915050565b5f61012082019050615c0e5f83018c6140a2565b615c1b602083018b6141df565b8181036040830152615c2d818a6156e5565b90508181036060830152615c418189614dd1565b90508181036080830152615c558188615b87565b905081810360a0830152615c6981876157db565b9050615c7860c08301866140a2565b615c8560e08301856140a2565b818103610100830152615c988184614102565b90509a9950505050505050505050565b5f60a082019050615cbb5f830188614752565b615cc860208301876140a2565b615cd56040830186615930565b615ce260608301856141df565b615cef60808301846140a2565b9695505050505050565b5f604082019050615d0c5f8301856141df565b615d1960208301846140a2565b9392505050565b5f81519050615d2e8161415a565b92915050565b5f60208284031215615d4957615d48613fde565b5b5f615d5684828501615d20565b91505092915050565b5f604082019050615d725f8301856141df565b615d7f60208301846141df565b9392505050565b5f819050919050565b5f615da9615da4615d9f84615d86565b615300565b614099565b9050919050565b615db981615d8f565b82525050565b5f602082019050615dd25f830184615db0565b92915050565b5f615df2615ded615de8846151cb565b615300565b614099565b9050919050565b615e0281615dd8565b82525050565b5f604082019050615e1b5f830185615df9565b615e286020830184615df9565b9392505050565b5f604082019050615e425f8301856140a2565b615e4f60208301846140a2565b9392505050565b5f815f1b9050919050565b5f615e7b615e76615e7184615d86565b615e56565b614667565b9050919050565b615e8b81615e61565b82525050565b5f60a0820190508181035f830152615ea981886156e5565b90508181036020830152615ebd8187614dd1565b90508181036040830152615ed181866157db565b9050615ee06060830185615e82565b615eed6080830184614752565b9695505050505050565b5f81519050615f0581614670565b92915050565b5f60208284031215615f2057615f1f613fde565b5b5f615f2d84828501615ef7565b91505092915050565b5f60c0820190508181035f830152615f4e81896156e5565b90508181036020830152615f628188614dd1565b90508181036040830152615f7681876157db565b9050615f856060830186615e82565b615f926080830185614752565b615f9f60a08301846140a2565b979650505050505050565b5f615fb482614099565b9150615fbf83614099565b9250828202615fcd81614099565b91508282048414831517615fe457615fe3615531565b5b5092915050565b5f615ff582614099565b915061600083614099565b925082820390508181111561601857616017615531565b5b92915050565b5f819050919050565b5f61604161603c6160378461601e565b615300565b614879565b9050919050565b61605181616027565b82525050565b5f60408201905061606a5f830185616048565b61607760208301846140a2565b9392505050565b5f819050919050565b5f6160a161609c6160978461607e565b615300565b614879565b9050919050565b6160b181616087565b82525050565b5f6040820190506160ca5f8301856160a8565b6160d760208301846140a2565b9392505050565b5f6160e882614879565b91506160f383614879565b9250828201905060ff81111561610c5761610b615531565b5b92915050565b5f8160011c9050919050565b5f5f8291508390505b60018511156161675780860481111561614357616142615531565b5b60018516156161525780820291505b808102905061616085616112565b9450616127565b94509492505050565b5f8261617f576001905061623a565b8161618c575f905061623a565b81600181146161a257600281146161ac576161db565b600191505061623a565b60ff8411156161be576161bd615531565b5b8360020a9150848211156161d5576161d4615531565b5b5061623a565b5060208310610133831016604e8410600b84101617156162105782820a90508381111561620b5761620a615531565b5b61623a565b61621d848484600161611e565b9250905081840481111561623457616233615531565b5b81810290505b9392505050565b5f61624b82614099565b915061625683614879565b92506162837fffffffffffffffffffffffffffffffffffffffffffffffffffffffffffffffff8484616170565b905092915050565b5f60a08201905061629e5f830188614752565b6162ab6020830187614752565b6162b86040830186614752565b6162c560608301856140a2565b6162d260808301846141df565b9695505050505050565b5f6080820190506162ef5f830187614752565b6162fc6020830186615930565b6163096040830185614752565b6163166060830184614752565b9594505050505056fea26469706673582212200841b6a7a4b7e9838f677dc953ebb844efed508fc32ebf7eee3d010f9c94edb864736f6c634300081f0033",
			"opcodes": "PUSH2 0x180 PUSH1 0x40 MSTORE CALLVALUE DUP1 ISZERO PUSH2 0x10 JUMPI PUSH0 PUSH0 REVERT JUMPDEST POP PUSH1 0x40 MLOAD PUSH2 0x6FE2 CODESIZE SUB DUP1 PUSH2 0x6FE2 DUP4 CODECOPY DUP2 DUP2 ADD PUSH1 0x40 MSTORE DUP2 ADD SWAP1 PUSH2 0x32 SWAP2 SWAP1 PUSH2 0x5DA JUMP JUMPDEST DUP1 DUP3 PUSH2 0x1C20 PUSH2 0xC4E0 PUSH8 0xDE0B6B3A7640000 PUSH1 0x40 MLOAD DUP1 PUSH1 0x40 ADD PUSH1 0x40 MSTORE DUP1 PUSH1 0xA DUP2 MSTORE PUSH1 0x20 ADD PUSH32 0x4D79476F7665726E6F7200000000000000000000000000000000000000000000 DUP2 MSTORE POP DUP1 PUSH2 0x88 PUSH2 0x1BF PUSH1 0x20 SHL PUSH1 0x20 SHR JUMP JUMPDEST PUSH2 0x9B PUSH0 DUP4 PUSH2 0x1FC PUSH1 0x20 SHL SWAP1 SWAP2 SWAP1 PUSH1 0x20 SHR JUMP JUMPDEST PUSH2 0x120 DUP2 DUP2 MSTORE POP POP PUSH2 0xB7 PUSH1 0x1 DUP3 PUSH2 0x1FC PUSH1 0x20 SHL SWAP1 SWAP2 SWAP1 PUSH1 0x20 SHR JUMP JUMPDEST PUSH2 0x140 DUP2 DUP2 MSTORE POP POP DUP2 DUP1 MLOAD SWAP1 PUSH1 0x20 ADD KECCAK256 PUSH1 0xE0 DUP2 DUP2 MSTORE POP POP DUP1 DUP1 MLOAD SWAP1 PUSH1 0x20 ADD KECCAK256 PUSH2 0x100 DUP2 DUP2 MSTORE POP POP CHAINID PUSH1 0xA0 DUP2 DUP2 MSTORE POP POP PUSH2 0xF4 PUSH2 0x249 PUSH1 0x20 SHL PUSH1 0x20 SHR JUMP JUMPDEST PUSH1 0x80 DUP2 DUP2 MSTORE POP POP ADDRESS PUSH20 0xFFFFFFFFFFFFFFFFFFFFFFFFFFFFFFFFFFFFFFFF AND PUSH1 0xC0 DUP2 PUSH20 0xFFFFFFFFFFFFFFFFFFFFFFFFFFFFFFFFFFFFFFFF AND DUP2 MSTORE POP POP POP POP DUP1 PUSH1 0x3 SWAP1 DUP2 PUSH2 0x140 SWAP2 SWAP1 PUSH2 0x855 JUMP JUMPDEST POP POP PUSH2 0x151 DUP4 PUSH2 0x2A3 PUSH1 0x20 SHL PUSH1 0x20 SHR JUMP JUMPDEST PUSH2 0x160 DUP3 PUSH2 0x316 PUSH1 0x20 SHL PUSH1 0x20 SHR JUMP JUMPDEST PUSH2 0x16F DUP2 PUSH2 0x3CF PUSH1 0x20 SHL PUSH1 0x20 SHR JUMP JUMPDEST POP POP POP DUP1 PUSH20 0xFFFFFFFFFFFFFFFFFFFFFFFFFFFFFFFFFFFFFFFF AND PUSH2 0x160 DUP2 PUSH20 0xFFFFFFFFFFFFFFFFFFFFFFFFFFFFFFFFFFFFFFFF AND DUP2 MSTORE POP POP POP PUSH2 0x1B7 DUP2 PUSH2 0x414 PUSH1 0x20 SHL PUSH1 0x20 SHR JUMP JUMPDEST POP POP POP PUSH2 0xC32 JUMP JUMPDEST PUSH1 0x60 PUSH1 0x40 MLOAD DUP1 PUSH1 0x40 ADD PUSH1 0x40 MSTORE DUP1 PUSH1 0x1 DUP2 MSTORE PUSH1 0x20 ADD PUSH32 0x3100000000000000000000000000000000000000000000000000000000000000 DUP2 MSTORE POP SWAP1 POP SWAP1 JUMP JUMPDEST PUSH0 PUSH1 0x20 DUP4 MLOAD LT ISZERO PUSH2 0x21D JUMPI PUSH2 0x216 DUP4 PUSH2 0x4B1 PUSH1 0x20 SHL PUSH1 0x20 SHR JUMP JUMPDEST SWAP1 POP PUSH2 0x243 JUMP JUMPDEST DUP3 PUSH2 0x22D DUP4 PUSH2 0x516 PUSH1 0x20 SHL PUSH1 0x20 SHR JUMP JUMPDEST PUSH0 ADD SWAP1 DUP2 PUSH2 0x23B SWAP2 SWAP1 PUSH2 0x855 JUMP JUMPDEST POP PUSH1 0xFF PUSH0 SHL SWAP1 POP JUMPDEST SWAP3 SWAP2 POP POP JUMP JUMPDEST PUSH0 PUSH32 0x8B73C3C69BB8FE3D512ECC4CF759CC79239F7B179B0FFACAA9A75D522B39400F PUSH1 0xE0 MLOAD PUSH2 0x100 MLOAD CHAINID ADDRESS PUSH1 0x40 MLOAD PUSH1 0x20 ADD PUSH2 0x288 SWAP6 SWAP5 SWAP4 SWAP3 SWAP2 SWAP1 PUSH2 0x95A JUMP JUMPDEST PUSH1 0x40 MLOAD PUSH1 0x20 DUP2 DUP4 SUB SUB DUP2 MSTORE SWAP1 PUSH1 0x40 MSTORE DUP1 MLOAD SWAP1 PUSH1 0x20 ADD KECCAK256 SWAP1 POP SWAP1 JUMP JUMPDEST PUSH32 0xC565B045403DC03C2EEA82B81A0465EDAD9E2E7FC4D97E11421C209DA93D7A93 PUSH1 0x8 PUSH0 SWAP1 SLOAD SWAP1 PUSH2 0x100 EXP SWAP1 DIV PUSH6 0xFFFFFFFFFFFF AND DUP3 PUSH1 0x40 MLOAD PUSH2 0x2E7 SWAP3 SWAP2 SWAP1 PUSH2 0x9EC JUMP JUMPDEST PUSH1 0x40 MLOAD DUP1 SWAP2 SUB SWAP1 LOG1 DUP1 PUSH1 0x8 PUSH0 PUSH2 0x100 EXP DUP2 SLOAD DUP2 PUSH6 0xFFFFFFFFFFFF MUL NOT AND SWAP1 DUP4 PUSH6 0xFFFFFFFFFFFF AND MUL OR SWAP1 SSTORE POP POP JUMP JUMPDEST PUSH0 DUP2 PUSH4 0xFFFFFFFF AND SUB PUSH2 0x360 JUMPI PUSH0 PUSH1 0x40 MLOAD PUSH32 0xF1CFBF0500000000000000000000000000000000000000000000000000000000 DUP2 MSTORE PUSH1 0x4 ADD PUSH2 0x357 SWAP2 SWAP1 PUSH2 0xA4C JUMP JUMPDEST PUSH1 0x40 MLOAD DUP1 SWAP2 SUB SWAP1 REVERT JUMPDEST PUSH32 0x7E3F7F0708A84DE9203036ABAA450DCCC85AD5FF52F78C170F3EDB55CF5E8828 PUSH1 0x8 PUSH1 0x6 SWAP1 SLOAD SWAP1 PUSH2 0x100 EXP SWAP1 DIV PUSH4 0xFFFFFFFF AND DUP3 PUSH1 0x40 MLOAD PUSH2 0x3A3 SWAP3 SWAP2 SWAP1 PUSH2 0xAA4 JUMP JUMPDEST PUSH1 0x40 MLOAD DUP1 SWAP2 SUB SWAP1 LOG1 DUP1 PUSH1 0x8 PUSH1 0x6 PUSH2 0x100 EXP DUP2 SLOAD DUP2 PUSH4 0xFFFFFFFF MUL NOT AND SWAP1 DUP4 PUSH4 0xFFFFFFFF AND MUL OR SWAP1 SSTORE POP POP JUMP JUMPDEST PUSH32 0xCCB45DA8D5717E6C4544694297C4BA5CF151D455C9BB0ED4FC7A38411BC05461 PUSH1 0x7 SLOAD DUP3 PUSH1 0x40 MLOAD PUSH2 0x402 SWAP3 SWAP2 SWAP1 PUSH2 0xACB JUMP JUMPDEST PUSH1 0x40 MLOAD DUP1 SWAP2 SUB SWAP1 LOG1 DUP1 PUSH1 0x7 DUP2 SWAP1 SSTORE POP POP JUMP JUMPDEST PUSH32 0x8F74EA46EF7894F65EABFB5E6E695DE773A000B47C529AB559178069B226401 PUSH1 0xA PUSH0 SWAP1 SLOAD SWAP1 PUSH2 0x100 EXP SWAP1 DIV PUSH20 0xFFFFFFFFFFFFFFFFFFFFFFFFFFFFFFFFFFFFFFFF AND DUP3 PUSH1 0x40 MLOAD PUSH2 0x466 SWAP3 SWAP2 SWAP1 PUSH2 0xAF2 JUMP JUMPDEST PUSH1 0x40 MLOAD DUP1 SWAP2 SUB SWAP1 LOG1 DUP1 PUSH1 0xA PUSH0 PUSH2 0x100 EXP DUP2 SLOAD DUP2 PUSH20 0xFFFFFFFFFFFFFFFFFFFFFFFFFFFFFFFFFFFFFFFF MUL NOT AND SWAP1 DUP4 PUSH20 0xFFFFFFFFFFFFFFFFFFFFFFFFFFFFFFFFFFFFFFFF AND MUL OR SWAP1 SSTORE POP POP JUMP JUMPDEST PUSH0 PUSH0 DUP3 SWAP1 POP PUSH1 0x1F DUP2 MLOAD GT ISZERO PUSH2 0x4FD JUMPI DUP3 PUSH1 0x40 MLOAD PUSH32 0x305A27A900000000000000000000000000000000000000000000000000000000 DUP2 MSTORE PUSH1 0x4 ADD PUSH2 0x4F4 SWAP2 SWAP1 PUSH2 0xB7F JUMP JUMPDEST PUSH1 0x40 MLOAD DUP1 SWAP2 SUB SWAP1 REVERT JUMPDEST DUP1 MLOAD DUP2 PUSH2 0x509 SWAP1 PUSH2 0xBCC JUMP JUMPDEST PUSH0 SHR OR PUSH0 SHL SWAP2 POP POP SWAP2 SWAP1 POP JUMP JUMPDEST PUSH0 DUP2 SWAP1 POP SWAP2 SWAP1 POP JUMP JUMPDEST PUSH0 PUSH0 REVERT JUMPDEST PUSH0 PUSH20 0xFFFFFFFFFFFFFFFFFFFFFFFFFFFFFFFFFFFFFFFF DUP3 AND SWAP1 POP SWAP2 SWAP1 POP JUMP JUMPDEST PUSH0 PUSH2 0x54C DUP3 PUSH2 0x523 JUMP JUMPDEST SWAP1 POP SWAP2 SWAP1 POP JUMP JUMPDEST PUSH0 PUSH2 0x55D DUP3 PUSH2 0x542 JUMP JUMPDEST SWAP1 POP SWAP2 SWAP1 POP JUMP JUMPDEST PUSH2 0x56D DUP2 PUSH2 0x553 JUMP JUMPDEST DUP2 EQ PUSH2 0x577 JUMPI PUSH0 PUSH0 REVERT JUMPDEST POP JUMP JUMPDEST PUSH0 DUP2 MLOAD SWAP1 POP PUSH2 0x588 DUP2 PUSH2 0x564 JUMP JUMPDEST SWAP3 SWAP2 POP POP JUMP JUMPDEST PUSH0 PUSH2 0x598 DUP3 PUSH2 0x523 JUMP JUMPDEST SWAP1 POP SWAP2 SWAP1 POP JUMP JUMPDEST PUSH0 PUSH2 0x5A9 DUP3 PUSH2 0x58E JUMP JUMPDEST SWAP1 POP SWAP2 SWAP1 POP JUMP JUMPDEST PUSH2 0x5B9 DUP2 PUSH2 0x59F JUMP JUMPDEST DUP2 EQ PUSH2 0x5C3 JUMPI PUSH0 PUSH0 REVERT JUMPDEST POP JUMP JUMPDEST PUSH0 DUP2 MLOAD SWAP1 POP PUSH2 0x5D4 DUP2 PUSH2 0x5B0 JUMP JUMPDEST SWAP3 SWAP2 POP POP JUMP JUMPDEST PUSH0 PUSH0 PUSH1 0x40 DUP4 DUP6 SUB SLT ISZERO PUSH2 0x5F0 JUMPI PUSH2 0x5EF PUSH2 0x51F JUMP JUMPDEST JUMPDEST PUSH0 PUSH2 0x5FD DUP6 DUP3 DUP7 ADD PUSH2 0x57A JUMP JUMPDEST SWAP3 POP POP PUSH1 0x20 PUSH2 0x60E DUP6 DUP3 DUP7 ADD PUSH2 0x5C6 JUMP JUMPDEST SWAP2 POP POP SWAP3 POP SWAP3 SWAP1 POP JUMP JUMPDEST PUSH0 DUP2 MLOAD SWAP1 POP SWAP2 SWAP1 POP JUMP JUMPDEST PUSH32 0x4E487B7100000000000000000000000000000000000000000000000000000000 PUSH0 MSTORE PUSH1 0x41 PUSH1 0x4 MSTORE PUSH1 0x24 PUSH0 REVERT JUMPDEST PUSH32 0x4E487B7100000000000000000000000000000000000000000000000000000000 PUSH0 MSTORE PUSH1 0x22 PUSH1 0x4 MSTORE PUSH1 0x24 PUSH0 REVERT JUMPDEST PUSH0 PUSH1 0x2 DUP3 DIV SWAP1 POP PUSH1 0x1 DUP3 AND DUP1 PUSH2 0x693 JUMPI PUSH1 0x7F DUP3 AND SWAP2 POP JUMPDEST PUSH1 0x20 DUP3 LT DUP2 SUB PUSH2 0x6A6 JUMPI PUSH2 0x6A5 PUSH2 0x64F JUMP JUMPDEST JUMPDEST POP SWAP2 SWAP1 POP JUMP JUMPDEST PUSH0 DUP2 SWAP1 POP DUP2 PUSH0 MSTORE PUSH1 0x20 PUSH0 KECCAK256 SWAP1 POP SWAP2 SWAP1 POP JUMP JUMPDEST PUSH0 PUSH1 0x20 PUSH1 0x1F DUP4 ADD DIV SWAP1 POP SWAP2 SWAP1 POP JUMP JUMPDEST PUSH0 DUP3 DUP3 SHL SWAP1 POP SWAP3 SWAP2 POP POP JUMP JUMPDEST PUSH0 PUSH1 0x8 DUP4 MUL PUSH2 0x708 PUSH32 0xFFFFFFFFFFFFFFFFFFFFFFFFFFFFFFFFFFFFFFFFFFFFFFFFFFFFFFFFFFFFFFFF DUP3 PUSH2 0x6CD JUMP JUMPDEST PUSH2 0x712 DUP7 DUP4 PUSH2 0x6CD JUMP JUMPDEST SWAP6 POP DUP1 NOT DUP5 AND SWAP4 POP DUP1 DUP7 AND DUP5 OR SWAP3 POP POP POP SWAP4 SWAP3 POP POP POP JUMP JUMPDEST PUSH0 DUP2 SWAP1 POP SWAP2 SWAP1 POP JUMP JUMPDEST PUSH0 DUP2 SWAP1 POP SWAP2 SWAP1 POP JUMP JUMPDEST PUSH0 PUSH2 0x756 PUSH2 0x751 PUSH2 0x74C DUP5 PUSH2 0x72A JUMP JUMPDEST PUSH2 0x733 JUMP JUMPDEST PUSH2 0x72A JUMP JUMPDEST SWAP1 POP SWAP2 SWAP1 POP JUMP JUMPDEST PUSH0 DUP2 SWAP1 POP SWAP2 SWAP1 POP JUMP JUMPDEST PUSH2 0x76F DUP4 PUSH2 0x73C JUMP JUMPDEST PUSH2 0x783 PUSH2 0x77B DUP3 PUSH2 0x75D JUMP JUMPDEST DUP5 DUP5 SLOAD PUSH2 0x6D9 JUMP JUMPDEST DUP3 SSTORE POP POP POP POP JUMP JUMPDEST PUSH0 PUSH0 SWAP1 POP SWAP1 JUMP JUMPDEST PUSH2 0x79A PUSH2 0x78B JUMP JUMPDEST PUSH2 0x7A5 DUP2 DUP5 DUP5 PUSH2 0x766 JUMP JUMPDEST POP POP POP JUMP JUMPDEST JUMPDEST DUP2 DUP2 LT ISZERO PUSH2 0x7C8 JUMPI PUSH2 0x7BD PUSH0 DUP3 PUSH2 0x792 JUMP JUMPDEST PUSH1 0x1 DUP2 ADD SWAP1 POP PUSH2 0x7AB JUMP JUMPDEST POP POP JUMP JUMPDEST PUSH1 0x1F DUP3 GT ISZERO PUSH2 0x80D JUMPI PUSH2 0x7DE DUP2 PUSH2 0x6AC JUMP JUMPDEST PUSH2 0x7E7 DUP5 PUSH2 0x6BE JUMP JUMPDEST DUP2 ADD PUSH1 0x20 DUP6 LT ISZERO PUSH2 0x7F6 JUMPI DUP2 SWAP1 POP JUMPDEST PUSH2 0x80A PUSH2 0x802 DUP6 PUSH2 0x6BE JUMP JUMPDEST DUP4 ADD DUP3 PUSH2 0x7AA JUMP JUMPDEST POP POP JUMPDEST POP POP POP JUMP JUMPDEST PUSH0 DUP3 DUP3 SHR SWAP1 POP SWAP3 SWAP2 POP POP JUMP JUMPDEST PUSH0 PUSH2 0x82D PUSH0 NOT DUP5 PUSH1 0x8 MUL PUSH2 0x812 JUMP JUMPDEST NOT DUP1 DUP4 AND SWAP2 POP POP SWAP3 SWAP2 POP POP JUMP JUMPDEST PUSH0 PUSH2 0x845 DUP4 DUP4 PUSH2 0x81E JUMP JUMPDEST SWAP2 POP DUP3 PUSH1 0x2 MUL DUP3 OR SWAP1 POP SWAP3 SWAP2 POP POP JUMP JUMPDEST PUSH2 0x85E DUP3 PUSH2 0x618 JUMP JUMPDEST PUSH8 0xFFFFFFFFFFFFFFFF DUP2 GT ISZERO PUSH2 0x877 JUMPI PUSH2 0x876 PUSH2 0x622 JUMP JUMPDEST JUMPDEST PUSH2 0x881 DUP3 SLOAD PUSH2 0x67C JUMP JUMPDEST PUSH2 0x88C DUP3 DUP3 DUP6 PUSH2 0x7CC JUMP JUMPDEST PUSH0 PUSH1 0x20 SWAP1 POP PUSH1 0x1F DUP4 GT PUSH1 0x1 DUP2 EQ PUSH2 0x8BD JUMPI PUSH0 DUP5 ISZERO PUSH2 0x8AB JUMPI DUP3 DUP8 ADD MLOAD SWAP1 POP JUMPDEST PUSH2 0x8B5 DUP6 DUP3 PUSH2 0x83A JUMP JUMPDEST DUP7 SSTORE POP PUSH2 0x91C JUMP JUMPDEST PUSH1 0x1F NOT DUP5 AND PUSH2 0x8CB DUP7 PUSH2 0x6AC JUMP JUMPDEST PUSH0 JUMPDEST DUP3 DUP2 LT ISZERO PUSH2 0x8F2 JUMPI DUP5 DUP10 ADD MLOAD DUP3 SSTORE PUSH1 0x1 DUP3 ADD SWAP2 POP PUSH1 0x20 DUP6 ADD SWAP5 POP PUSH1 0x20 DUP2 ADD SWAP1 POP PUSH2 0x8CD JUMP JUMPDEST DUP7 DUP4 LT ISZERO PUSH2 0x90F JUMPI DUP5 DUP10 ADD MLOAD PUSH2 0x90B PUSH1 0x1F DUP10 AND DUP3 PUSH2 0x81E JUMP JUMPDEST DUP4 SSTORE POP JUMPDEST PUSH1 0x1 PUSH1 0x2 DUP9 MUL ADD DUP9 SSTORE POP POP POP JUMPDEST POP POP POP POP POP POP JUMP JUMPDEST PUSH0 DUP2 SWAP1 POP SWAP2 SWAP1 POP JUMP JUMPDEST PUSH2 0x936 DUP2 PUSH2 0x924 JUMP JUMPDEST DUP3 MSTORE POP POP JUMP JUMPDEST PUSH2 0x945 DUP2 PUSH2 0x72A JUMP JUMPDEST DUP3 MSTORE POP POP JUMP JUMPDEST PUSH2 0x954 DUP2 PUSH2 0x542 JUMP JUMPDEST DUP3 MSTORE POP POP JUMP JUMPDEST PUSH0 PUSH1 0xA0 DUP3 ADD SWAP1 POP PUSH2 0x96D PUSH0 DUP4 ADD DUP9 PUSH2 0x92D JUMP JUMPDEST PUSH2 0x97A PUSH1 0x20 DUP4 ADD DUP8 PUSH2 0x92D JUMP JUMPDEST PUSH2 0x987 PUSH1 0x40 DUP4 ADD DUP7 PUSH2 0x92D JUMP JUMPDEST PUSH2 0x994 PUSH1 0x60 DUP4 ADD DUP6 PUSH2 0x93C JUMP JUMPDEST PUSH2 0x9A1 PUSH1 0x80 DUP4 ADD DUP5 PUSH2 0x94B JUMP JUMPDEST SWAP7 SWAP6 POP POP POP POP POP POP JUMP JUMPDEST PUSH0 PUSH6 0xFFFFFFFFFFFF DUP3 AND SWAP1 POP SWAP2 SWAP1 POP JUMP JUMPDEST PUSH0 PUSH2 0x9D6 PUSH2 0x9D1 PUSH2 0x9CC DUP5 PUSH2 0x9AB JUMP JUMPDEST PUSH2 0x733 JUMP JUMPDEST PUSH2 0x72A JUMP JUMPDEST SWAP1 POP SWAP2 SWAP1 POP JUMP JUMPDEST PUSH2 0x9E6 DUP2 PUSH2 0x9BC JUMP JUMPDEST DUP3 MSTORE POP POP JUMP JUMPDEST PUSH0 PUSH1 0x40 DUP3 ADD SWAP1 POP PUSH2 0x9FF PUSH0 DUP4 ADD DUP6 PUSH2 0x9DD JUMP JUMPDEST PUSH2 0xA0C PUSH1 0x20 DUP4 ADD DUP5 PUSH2 0x9DD JUMP JUMPDEST SWAP4 SWAP3 POP POP POP JUMP JUMPDEST PUSH0 DUP2 SWAP1 POP SWAP2 SWAP1 POP JUMP JUMPDEST PUSH0 PUSH2 0xA36 PUSH2 0xA31 PUSH2 0xA2C DUP5 PUSH2 0xA13 JUMP JUMPDEST PUSH2 0x733 JUMP JUMPDEST PUSH2 0x72A JUMP JUMPDEST SWAP1 POP SWAP2 SWAP1 POP JUMP JUMPDEST PUSH2 0xA46 DUP2 PUSH2 0xA1C JUMP JUMPDEST DUP3 MSTORE POP POP JUMP JUMPDEST PUSH0 PUSH1 0x20 DUP3 ADD SWAP1 POP PUSH2 0xA5F PUSH0 DUP4 ADD DUP5 PUSH2 0xA3D JUMP JUMPDEST SWAP3 SWAP2 POP POP JUMP JUMPDEST PUSH0 PUSH4 0xFFFFFFFF DUP3 AND SWAP1 POP SWAP2 SWAP1 POP JUMP JUMPDEST PUSH0 PUSH2 0xA8E PUSH2 0xA89 PUSH2 0xA84 DUP5 PUSH2 0xA65 JUMP JUMPDEST PUSH2 0x733 JUMP JUMPDEST PUSH2 0x72A JUMP JUMPDEST SWAP1 POP SWAP2 SWAP1 POP JUMP JUMPDEST PUSH2 0xA9E DUP2 PUSH2 0xA74 JUMP JUMPDEST DUP3 MSTORE POP POP JUMP JUMPDEST PUSH0 PUSH1 0x40 DUP3 ADD SWAP1 POP PUSH2 0xAB7 PUSH0 DUP4 ADD DUP6 PUSH2 0xA95 JUMP JUMPDEST PUSH2 0xAC4 PUSH1 0x20 DUP4 ADD DUP5 PUSH2 0xA95 JUMP JUMPDEST SWAP4 SWAP3 POP POP POP JUMP JUMPDEST PUSH0 PUSH1 0x40 DUP3 ADD SWAP1 POP PUSH2 0xADE PUSH0 DUP4 ADD DUP6 PUSH2 0x93C JUMP JUMPDEST PUSH2 0xAEB PUSH1 0x20 DUP4 ADD DUP5 PUSH2 0x93C JUMP JUMPDEST SWAP4 SWAP3 POP POP POP JUMP JUMPDEST PUSH0 PUSH1 0x40 DUP3 ADD SWAP1 POP PUSH2 0xB05 PUSH0 DUP4 ADD DUP6 PUSH2 0x94B JUMP JUMPDEST PUSH2 0xB12 PUSH1 0x20 DUP4 ADD DUP5 PUSH2 0x94B JUMP JUMPDEST SWAP4 SWAP3 POP POP POP JUMP JUMPDEST PUSH0 DUP3 DUP3 MSTORE PUSH1 0x20 DUP3 ADD SWAP1 POP SWAP3 SWAP2 POP POP JUMP JUMPDEST DUP3 DUP2 DUP4 MCOPY PUSH0 DUP4 DUP4 ADD MSTORE POP POP POP JUMP JUMPDEST PUSH0 PUSH1 0x1F NOT PUSH1 0x1F DUP4 ADD AND SWAP1 POP SWAP2 SWAP1 POP JUMP JUMPDEST PUSH0 PUSH2 0xB51 DUP3 PUSH2 0x618 JUMP JUMPDEST PUSH2 0xB5B DUP2 DUP6 PUSH2 0xB19 JUMP JUMPDEST SWAP4 POP PUSH2 0xB6B DUP2 DUP6 PUSH1 0x20 DUP7 ADD PUSH2 0xB29 JUMP JUMPDEST PUSH2 0xB74 DUP2 PUSH2 0xB37 JUMP JUMPDEST DUP5 ADD SWAP2 POP POP SWAP3 SWAP2 POP POP JUMP JUMPDEST PUSH0 PUSH1 0x20 DUP3 ADD SWAP1 POP DUP2 DUP2 SUB PUSH0 DUP4 ADD MSTORE PUSH2 0xB97 DUP2 DUP5 PUSH2 0xB47 JUMP JUMPDEST SWAP1 POP SWAP3 SWAP2 POP POP JUMP JUMPDEST PUSH0 DUP2 MLOAD SWAP1 POP SWAP2 SWAP1 POP JUMP JUMPDEST PUSH0 DUP2 SWAP1 POP PUSH1 0x20 DUP3 ADD SWAP1 POP SWAP2 SWAP1 POP JUMP JUMPDEST PUSH0 PUSH2 0xBC3 DUP3 MLOAD PUSH2 0x924 JUMP JUMPDEST DUP1 SWAP2 POP POP SWAP2 SWAP1 POP JUMP JUMPDEST PUSH0 PUSH2 0xBD6 DUP3 PUSH2 0xB9F JUMP JUMPDEST DUP3 PUSH2 0xBE0 DUP5 PUSH2 0xBA9 JUMP JUMPDEST SWAP1 POP PUSH2 0xBEB DUP2 PUSH2 0xBB8 JUMP JUMPDEST SWAP3 POP PUSH1 0x20 DUP3 LT ISZERO PUSH2 0xC2B JUMPI PUSH2 0xC26 PUSH32 0xFFFFFFFFFFFFFFFFFFFFFFFFFFFFFFFFFFFFFFFFFFFFFFFFFFFFFFFFFFFFFFFF DUP4 PUSH1 0x20 SUB PUSH1 0x8 MUL PUSH2 0x6CD JUMP JUMPDEST DUP4 AND SWAP3 POP JUMPDEST POP POP SWAP2 SWAP1 POP JUMP JUMPDEST PUSH1 0x80 MLOAD PUSH1 0xA0 MLOAD PUSH1 0xC0 MLOAD PUSH1 0xE0 MLOAD PUSH2 0x100 MLOAD PUSH2 0x120 MLOAD PUSH2 0x140 MLOAD PUSH2 0x160 MLOAD PUSH2 0x6355 PUSH2 0xC8D PUSH0 CODECOPY PUSH0 PUSH2 0x1CD6 ADD MSTORE PUSH0 PUSH2 0x285C ADD MSTORE PUSH0 PUSH2 0x2821 ADD MSTORE PUSH0 PUSH2 0x3DC0 ADD MSTORE PUSH0 PUSH2 0x3D9F ADD MSTORE PUSH0 PUSH2 0x38F0 ADD MSTORE PUSH0 PUSH2 0x3946 ADD MSTORE PUSH0 PUSH2 0x396F ADD MSTORE PUSH2 0x6355 PUSH0 RETURN INVALID PUSH1 0x80 PUSH1 0x40 MSTORE PUSH1 0x4 CALLDATASIZE LT PUSH2 0x275 JUMPI PUSH0 CALLDATALOAD PUSH1 0xE0 SHR DUP1 PUSH4 0x7ECEBE00 GT PUSH2 0x14E JUMPI DUP1 PUSH4 0xC01F9E37 GT PUSH2 0xC0 JUMPI DUP1 PUSH4 0xE540D01D GT PUSH2 0x79 JUMPI DUP1 PUSH4 0xE540D01D EQ PUSH2 0xAEC JUMPI DUP1 PUSH4 0xEB9019D4 EQ PUSH2 0xB14 JUMPI DUP1 PUSH4 0xECE40CC1 EQ PUSH2 0xB50 JUMPI DUP1 PUSH4 0xF23A6E61 EQ PUSH2 0xB78 JUMPI DUP1 PUSH4 0xF8CE560A EQ PUSH2 0xBB4 JUMPI DUP1 PUSH4 0xFC0C546A EQ PUSH2 0xBF0 JUMPI PUSH2 0x2E8 JUMP JUMPDEST DUP1 PUSH4 0xC01F9E37 EQ PUSH2 0x9DA JUMPI DUP1 PUSH4 0xC28BC2FA EQ PUSH2 0xA16 JUMPI DUP1 PUSH4 0xC59057E4 EQ PUSH2 0xA32 JUMPI DUP1 PUSH4 0xD33219B4 EQ PUSH2 0xA6E JUMPI DUP1 PUSH4 0xDD4E2BA5 EQ PUSH2 0xA98 JUMPI DUP1 PUSH4 0xDEAAA7CC EQ PUSH2 0xAC2 JUMPI PUSH2 0x2E8 JUMP JUMPDEST DUP1 PUSH4 0xA890C910 GT PUSH2 0x112 JUMPI DUP1 PUSH4 0xA890C910 EQ PUSH2 0x898 JUMPI DUP1 PUSH4 0xA8F8A668 EQ PUSH2 0x8C0 JUMPI DUP1 PUSH4 0xA9A95294 EQ PUSH2 0x8FC JUMPI DUP1 PUSH4 0xAB58FB8E EQ PUSH2 0x938 JUMPI DUP1 PUSH4 0xB58131B0 EQ PUSH2 0x974 JUMPI DUP1 PUSH4 0xBC197C81 EQ PUSH2 0x99E JUMPI PUSH2 0x2E8 JUMP JUMPDEST DUP1 PUSH4 0x7ECEBE00 EQ PUSH2 0x78A JUMPI DUP1 PUSH4 0x84B0196E EQ PUSH2 0x7C6 JUMPI DUP1 PUSH4 0x8FF262E3 EQ PUSH2 0x7F6 JUMPI DUP1 PUSH4 0x91DDADF4 EQ PUSH2 0x832 JUMPI DUP1 PUSH4 0x9A802A6D EQ PUSH2 0x85C JUMPI PUSH2 0x2E8 JUMP JUMPDEST DUP1 PUSH4 0x43859632 GT PUSH2 0x1E7 JUMPI DUP1 PUSH4 0x56781388 GT PUSH2 0x1AB JUMPI DUP1 PUSH4 0x56781388 EQ PUSH2 0x636 JUMPI DUP1 PUSH4 0x5B8D0E0D EQ PUSH2 0x672 JUMPI DUP1 PUSH4 0x5F398A14 EQ PUSH2 0x6AE JUMPI DUP1 PUSH4 0x79051887 EQ PUSH2 0x6EA JUMPI DUP1 PUSH4 0x7B3C71D3 EQ PUSH2 0x712 JUMPI DUP1 PUSH4 0x7D5E81E2 EQ PUSH2 0x74E JUMPI PUSH2 0x2E8 JUMP JUMPDEST DUP1 PUSH4 0x43859632 EQ PUSH2 0x52C JUMPI DUP1 PUSH4 0x452115D6 EQ PUSH2 0x568 JUMPI DUP1 PUSH4 0x4BF5D7E9 EQ PUSH2 0x5A4 JUMPI DUP1 PUSH4 0x544FFC9C EQ PUSH2 0x5CE JUMPI DUP1 PUSH4 0x54FD4D50 EQ PUSH2 0x60C JUMPI PUSH2 0x2E8 JUMP JUMPDEST DUP1 PUSH4 0x160CBED7 GT PUSH2 0x239 JUMPI DUP1 PUSH4 0x160CBED7 EQ PUSH2 0x3F4 JUMPI DUP1 PUSH4 0x2656227D EQ PUSH2 0x430 JUMPI DUP1 PUSH4 0x2D63F693 EQ PUSH2 0x460 JUMPI DUP1 PUSH4 0x2FE3E261 EQ PUSH2 0x49C JUMPI DUP1 PUSH4 0x3932ABB1 EQ PUSH2 0x4C6 JUMPI DUP1 PUSH4 0x3E4F49E6 EQ PUSH2 0x4F0 JUMPI PUSH2 0x2E8 JUMP JUMPDEST DUP1 PUSH4 0x1FFC9A7 EQ PUSH2 0x2EC JUMPI DUP1 PUSH4 0x2A251A3 EQ PUSH2 0x328 JUMPI DUP1 PUSH4 0x6FDDE03 EQ PUSH2 0x352 JUMPI DUP1 PUSH4 0x143489D0 EQ PUSH2 0x37C JUMPI DUP1 PUSH4 0x150B7A02 EQ PUSH2 0x3B8 JUMPI PUSH2 0x2E8 JUMP JUMPDEST CALLDATASIZE PUSH2 0x2E8 JUMPI ADDRESS PUSH20 0xFFFFFFFFFFFFFFFFFFFFFFFFFFFFFFFFFFFFFFFF AND PUSH2 0x299 PUSH2 0xC1A JUMP JUMPDEST PUSH20 0xFFFFFFFFFFFFFFFFFFFFFFFFFFFFFFFFFFFFFFFF AND EQ PUSH2 0x2E6 JUMPI PUSH1 0x40 MLOAD PUSH32 0xE90A651E00000000000000000000000000000000000000000000000000000000 DUP2 MSTORE PUSH1 0x4 ADD PUSH1 0x40 MLOAD DUP1 SWAP2 SUB SWAP1 REVERT JUMPDEST STOP JUMPDEST PUSH0 PUSH0 REVERT JUMPDEST CALLVALUE DUP1 ISZERO PUSH2 0x2F7 JUMPI PUSH0 PUSH0 REVERT JUMPDEST POP PUSH2 0x312 PUSH1 0x4 DUP1 CALLDATASIZE SUB DUP2 ADD SWAP1 PUSH2 0x30D SWAP2 SWAP1 PUSH2 0x403B JUMP JUMPDEST PUSH2 0xC28 JUMP JUMPDEST PUSH1 0x40 MLOAD PUSH2 0x31F SWAP2 SWAP1 PUSH2 0x4080 JUMP JUMPDEST PUSH1 0x40 MLOAD DUP1 SWAP2 SUB SWAP1 RETURN JUMPDEST CALLVALUE DUP1 ISZERO PUSH2 0x333 JUMPI PUSH0 PUSH0 REVERT JUMPDEST POP PUSH2 0x33C PUSH2 0xD7A JUMP JUMPDEST PUSH1 0x40 MLOAD PUSH2 0x349 SWAP2 SWAP1 PUSH2 0x40B1 JUMP JUMPDEST PUSH1 0x40 MLOAD DUP1 SWAP2 SUB SWAP1 RETURN JUMPDEST CALLVALUE DUP1 ISZERO PUSH2 0x35D JUMPI PUSH0 PUSH0 REVERT JUMPDEST POP PUSH2 0x366 PUSH2 0xD99 JUMP JUMPDEST PUSH1 0x40 MLOAD PUSH2 0x373 SWAP2 SWAP1 PUSH2 0x413A JUMP JUMPDEST PUSH1 0x40 MLOAD DUP1 SWAP2 SUB SWAP1 RETURN JUMPDEST CALLVALUE DUP1 ISZERO PUSH2 0x387 JUMPI PUSH0 PUSH0 REVERT JUMPDEST POP PUSH2 0x3A2 PUSH1 0x4 DUP1 CALLDATASIZE SUB DUP2 ADD SWAP1 PUSH2 0x39D SWAP2 SWAP1 PUSH2 0x4184 JUMP JUMPDEST PUSH2 0xE29 JUMP JUMPDEST PUSH1 0x40 MLOAD PUSH2 0x3AF SWAP2 SWAP1 PUSH2 0x41EE JUMP JUMPDEST PUSH1 0x40 MLOAD DUP1 SWAP2 SUB SWAP1 RETURN JUMPDEST CALLVALUE DUP1 ISZERO PUSH2 0x3C3 JUMPI PUSH0 PUSH0 REVERT JUMPDEST POP PUSH2 0x3DE PUSH1 0x4 DUP1 CALLDATASIZE SUB DUP2 ADD SWAP1 PUSH2 0x3D9 SWAP2 SWAP1 PUSH2 0x435D JUMP JUMPDEST PUSH2 0xE64 JUMP JUMPDEST PUSH1 0x40 MLOAD PUSH2 0x3EB SWAP2 SWAP1 PUSH2 0x43EC JUMP JUMPDEST PUSH1 0x40 MLOAD DUP1 SWAP2 SUB SWAP1 RETURN JUMPDEST CALLVALUE DUP1 ISZERO PUSH2 0x3FF JUMPI PUSH0 PUSH0 REVERT JUMPDEST POP PUSH2 0x41A PUSH1 0x4 DUP1 CALLDATASIZE SUB DUP2 ADD SWAP1 PUSH2 0x415 SWAP2 SWAP1 PUSH2 0x469A JUMP JUMPDEST PUSH2 0xEE3 JUMP JUMPDEST PUSH1 0x40 MLOAD PUSH2 0x427 SWAP2 SWAP1 PUSH2 0x40B1 JUMP JUMPDEST PUSH1 0x40 MLOAD DUP1 SWAP2 SUB SWAP1 RETURN JUMPDEST PUSH2 0x44A PUSH1 0x4 DUP1 CALLDATASIZE SUB DUP2 ADD SWAP1 PUSH2 0x445 SWAP2 SWAP1 PUSH2 0x469A JUMP JUMPDEST PUSH2 0xFD9 JUMP JUMPDEST PUSH1 0x40 MLOAD PUSH2 0x457 SWAP2 SWAP1 PUSH2 0x40B1 JUMP JUMPDEST PUSH1 0x40 MLOAD DUP1 SWAP2 SUB SWAP1 RETURN JUMPDEST CALLVALUE DUP1 ISZERO PUSH2 0x46B JUMPI PUSH0 PUSH0 REVERT JUMPDEST POP PUSH2 0x486 PUSH1 0x4 DUP1 CALLDATASIZE SUB DUP2 ADD SWAP1 PUSH2 0x481 SWAP2 SWAP1 PUSH2 0x4184 JUMP JUMPDEST PUSH2 0x11B6 JUMP JUMPDEST PUSH1 0x40 MLOAD PUSH2 0x493 SWAP2 SWAP1 PUSH2 0x40B1 JUMP JUMPDEST PUSH1 0x40 MLOAD DUP1 SWAP2 SUB SWAP1 RETURN JUMPDEST CALLVALUE DUP1 ISZERO PUSH2 0x4A7 JUMPI PUSH0 PUSH0 REVERT JUMPDEST POP PUSH2 0x4B0 PUSH2 0x11EC JUMP JUMPDEST PUSH1 0x40 MLOAD PUSH2 0x4BD SWAP2 SWAP1 PUSH2 0x4761 JUMP JUMPDEST PUSH1 0x40 MLOAD DUP1 SWAP2 SUB SWAP1 RETURN JUMPDEST CALLVALUE DUP1 ISZERO PUSH2 0x4D1 JUMPI PUSH0 PUSH0 REVERT JUMPDEST POP PUSH2 0x4DA PUSH2 0x1210 JUMP JUMPDEST PUSH1 0x40 MLOAD PUSH2 0x4E7 SWAP2 SWAP1 PUSH2 0x40B1 JUMP JUMPDEST PUSH1 0x40 MLOAD DUP1 SWAP2 SUB SWAP1 RETURN JUMPDEST CALLVALUE DUP1 ISZERO PUSH2 0x4FB JUMPI PUSH0 PUSH0 REVERT JUMPDEST POP PUSH2 0x516 PUSH1 0x4 DUP1 CALLDATASIZE SUB DUP2 ADD SWAP1 PUSH2 0x511 SWAP2 SWAP1 PUSH2 0x4184 JUMP JUMPDEST PUSH2 0x1232 JUMP JUMPDEST PUSH1 0x40 MLOAD PUSH2 0x523 SWAP2 SWAP1 PUSH2 0x47ED JUMP JUMPDEST PUSH1 0x40 MLOAD DUP1 SWAP2 SUB SWAP1 RETURN JUMPDEST CALLVALUE DUP1 ISZERO PUSH2 0x537 JUMPI PUSH0 PUSH0 REVERT JUMPDEST POP PUSH2 0x552 PUSH1 0x4 DUP1 CALLDATASIZE SUB DUP2 ADD SWAP1 PUSH2 0x54D SWAP2 SWAP1 PUSH2 0x4806 JUMP JUMPDEST PUSH2 0x1243 JUMP JUMPDEST PUSH1 0x40 MLOAD PUSH2 0x55F SWAP2 SWAP1 PUSH2 0x4080 JUMP JUMPDEST PUSH1 0x40 MLOAD DUP1 SWAP2 SUB SWAP1 RETURN JUMPDEST CALLVALUE DUP1 ISZERO PUSH2 0x573 JUMPI PUSH0 PUSH0 REVERT JUMPDEST POP PUSH2 0x58E PUSH1 0x4 DUP1 CALLDATASIZE SUB DUP2 ADD SWAP1 PUSH2 0x589 SWAP2 SWAP1 PUSH2 0x469A JUMP JUMPDEST PUSH2 0x12A8 JUMP JUMPDEST PUSH1 0x40 MLOAD PUSH2 0x59B SWAP2 SWAP1 PUSH2 0x40B1 JUMP JUMPDEST PUSH1 0x40 MLOAD DUP1 SWAP2 SUB SWAP1 RETURN JUMPDEST CALLVALUE DUP1 ISZERO PUSH2 0x5AF JUMPI PUSH0 PUSH0 REVERT JUMPDEST POP PUSH2 0x5B8 PUSH2 0x1328 JUMP JUMPDEST PUSH1 0x40 MLOAD PUSH2 0x5C5 SWAP2 SWAP1 PUSH2 0x413A JUMP JUMPDEST PUSH1 0x40 MLOAD DUP1 SWAP2 SUB SWAP1 RETURN JUMPDEST CALLVALUE DUP1 ISZERO PUSH2 0x5D9 JUMPI PUSH0 PUSH0 REVERT JUMPDEST POP PUSH2 0x5F4 PUSH1 0x4 DUP1 CALLDATASIZE SUB DUP2 ADD SWAP1 PUSH2 0x5EF SWAP2 SWAP1 PUSH2 0x4184 JUMP JUMPDEST PUSH2 0x13E5 JUMP JUMPDEST PUSH1 0x40 MLOAD PUSH2 0x603 SWAP4 SWAP3 SWAP2 SWAP1 PUSH2 0x4844 JUMP JUMPDEST PUSH1 0x40 MLOAD DUP1 SWAP2 SUB SWAP1 RETURN JUMPDEST CALLVALUE DUP1 ISZERO PUSH2 0x617 JUMPI PUSH0 PUSH0 REVERT JUMPDEST POP PUSH2 0x620 PUSH2 0x1418 JUMP JUMPDEST PUSH1 0x40 MLOAD PUSH2 0x62D SWAP2 SWAP1 PUSH2 0x413A JUMP JUMPDEST PUSH1 0x40 MLOAD DUP1 SWAP2 SUB SWAP1 RETURN JUMPDEST CALLVALUE DUP1 ISZERO PUSH2 0x641 JUMPI PUSH0 PUSH0 REVERT JUMPDEST POP PUSH2 0x65C PUSH1 0x4 DUP1 CALLDATASIZE SUB DUP2 ADD SWAP1 PUSH2 0x657 SWAP2 SWAP1 PUSH2 0x48AF JUMP JUMPDEST PUSH2 0x1455 JUMP JUMPDEST PUSH1 0x40 MLOAD PUSH2 0x669 SWAP2 SWAP1 PUSH2 0x40B1 JUMP JUMPDEST PUSH1 0x40 MLOAD DUP1 SWAP2 SUB SWAP1 RETURN JUMPDEST CALLVALUE DUP1 ISZERO PUSH2 0x67D JUMPI PUSH0 PUSH0 REVERT JUMPDEST POP PUSH2 0x698 PUSH1 0x4 DUP1 CALLDATASIZE SUB DUP2 ADD SWAP1 PUSH2 0x693 SWAP2 SWAP1 PUSH2 0x4946 JUMP JUMPDEST PUSH2 0x1484 JUMP JUMPDEST PUSH1 0x40 MLOAD PUSH2 0x6A5 SWAP2 SWAP1 PUSH2 0x40B1 JUMP JUMPDEST PUSH1 0x40 MLOAD DUP1 SWAP2 SUB SWAP1 RETURN JUMPDEST CALLVALUE DUP1 ISZERO PUSH2 0x6B9 JUMPI PUSH0 PUSH0 REVERT JUMPDEST POP PUSH2 0x6D4 PUSH1 0x4 DUP1 CALLDATASIZE SUB DUP2 ADD SWAP1 PUSH2 0x6CF SWAP2 SWAP1 PUSH2 0x4A28 JUMP JUMPDEST PUSH2 0x1574 JUMP JUMPDEST PUSH1 0x40 MLOAD PUSH2 0x6E1 SWAP2 SWAP1 PUSH2 0x40B1 JUMP JUMPDEST PUSH1 0x40 MLOAD DUP1 SWAP2 SUB SWAP1 RETURN JUMPDEST CALLVALUE DUP1 ISZERO PUSH2 0x6F5 JUMPI PUSH0 PUSH0 REVERT JUMPDEST POP PUSH2 0x710 PUSH1 0x4 DUP1 CALLDATASIZE SUB DUP2 ADD SWAP1 PUSH2 0x70B SWAP2 SWAP1 PUSH2 0x4B03 JUMP JUMPDEST PUSH2 0x15DC JUMP JUMPDEST STOP JUMPDEST CALLVALUE DUP1 ISZERO PUSH2 0x71D JUMPI PUSH0 PUSH0 REVERT JUMPDEST POP PUSH2 0x738 PUSH1 0x4 DUP1 CALLDATASIZE SUB DUP2 ADD SWAP1 PUSH2 0x733 SWAP2 SWAP1 PUSH2 0x4B2E JUMP JUMPDEST PUSH2 0x15F0 JUMP JUMPDEST PUSH1 0x40 MLOAD PUSH2 0x745 SWAP2 SWAP1 PUSH2 0x40B1 JUMP JUMPDEST PUSH1 0x40 MLOAD DUP1 SWAP2 SUB SWAP1 RETURN JUMPDEST CALLVALUE DUP1 ISZERO PUSH2 0x759 JUMPI PUSH0 PUSH0 REVERT JUMPDEST POP PUSH2 0x774 PUSH1 0x4 DUP1 CALLDATASIZE SUB DUP2 ADD SWAP1 PUSH2 0x76F SWAP2 SWAP1 PUSH2 0x4C3D JUMP JUMPDEST PUSH2 0x1656 JUMP JUMPDEST PUSH1 0x40 MLOAD PUSH2 0x781 SWAP2 SWAP1 PUSH2 0x40B1 JUMP JUMPDEST PUSH1 0x40 MLOAD DUP1 SWAP2 SUB SWAP1 RETURN JUMPDEST CALLVALUE DUP1 ISZERO PUSH2 0x795 JUMPI PUSH0 PUSH0 REVERT JUMPDEST POP PUSH2 0x7B0 PUSH1 0x4 DUP1 CALLDATASIZE SUB DUP2 ADD SWAP1 PUSH2 0x7AB SWAP2 SWAP1 PUSH2 0x4D11 JUMP JUMPDEST PUSH2 0x174C JUMP JUMPDEST PUSH1 0x40 MLOAD PUSH2 0x7BD SWAP2 SWAP1 PUSH2 0x40B1 JUMP JUMPDEST PUSH1 0x40 MLOAD DUP1 SWAP2 SUB SWAP1 RETURN JUMPDEST CALLVALUE DUP1 ISZERO PUSH2 0x7D1 JUMPI PUSH0 PUSH0 REVERT JUMPDEST POP PUSH2 0x7DA PUSH2 0x1792 JUMP JUMPDEST PUSH1 0x40 MLOAD PUSH2 0x7ED SWAP8 SWAP7 SWAP6 SWAP5 SWAP4 SWAP3 SWAP2 SWAP1 PUSH2 0x4E2D JUMP JUMPDEST PUSH1 0x40 MLOAD DUP1 SWAP2 SUB SWAP1 RETURN JUMPDEST CALLVALUE DUP1 ISZERO PUSH2 0x801 JUMPI PUSH0 PUSH0 REVERT JUMPDEST POP PUSH2 0x81C PUSH1 0x4 DUP1 CALLDATASIZE SUB DUP2 ADD SWAP1 PUSH2 0x817 SWAP2 SWAP1 PUSH2 0x4EAF JUMP JUMPDEST PUSH2 0x1837 JUMP JUMPDEST PUSH1 0x40 MLOAD PUSH2 0x829 SWAP2 SWAP1 PUSH2 0x40B1 JUMP JUMPDEST PUSH1 0x40 MLOAD DUP1 SWAP2 SUB SWAP1 RETURN JUMPDEST CALLVALUE DUP1 ISZERO PUSH2 0x83D JUMPI PUSH0 PUSH0 REVERT JUMPDEST POP PUSH2 0x846 PUSH2 0x18A9 JUMP JUMPDEST PUSH1 0x40 MLOAD PUSH2 0x853 SWAP2 SWAP1 PUSH2 0x4F3E JUMP JUMPDEST PUSH1 0x40 MLOAD DUP1 SWAP2 SUB SWAP1 RETURN JUMPDEST CALLVALUE DUP1 ISZERO PUSH2 0x867 JUMPI PUSH0 PUSH0 REVERT JUMPDEST POP PUSH2 0x882 PUSH1 0x4 DUP1 CALLDATASIZE SUB DUP2 ADD SWAP1 PUSH2 0x87D SWAP2 SWAP1 PUSH2 0x4F57 JUMP JUMPDEST PUSH2 0x1934 JUMP JUMPDEST PUSH1 0x40 MLOAD PUSH2 0x88F SWAP2 SWAP1 PUSH2 0x40B1 JUMP JUMPDEST PUSH1 0x40 MLOAD DUP1 SWAP2 SUB SWAP1 RETURN JUMPDEST CALLVALUE DUP1 ISZERO PUSH2 0x8A3 JUMPI PUSH0 PUSH0 REVERT JUMPDEST POP PUSH2 0x8BE PUSH1 0x4 DUP1 CALLDATASIZE SUB DUP2 ADD SWAP1 PUSH2 0x8B9 SWAP2 SWAP1 PUSH2 0x500F JUMP JUMPDEST PUSH2 0x1949 JUMP JUMPDEST STOP JUMPDEST CALLVALUE DUP1 ISZERO PUSH2 0x8CB JUMPI PUSH0 PUSH0 REVERT JUMPDEST POP PUSH2 0x8E6 PUSH1 0x4 DUP1 CALLDATASIZE SUB DUP2 ADD SWAP1 PUSH2 0x8E1 SWAP2 SWAP1 PUSH2 0x469A JUMP JUMPDEST PUSH2 0x195D JUMP JUMPDEST PUSH1 0x40 MLOAD PUSH2 0x8F3 SWAP2 SWAP1 PUSH2 0x40B1 JUMP JUMPDEST PUSH1 0x40 MLOAD DUP1 SWAP2 SUB SWAP1 RETURN JUMPDEST CALLVALUE DUP1 ISZERO PUSH2 0x907 JUMPI PUSH0 PUSH0 REVERT JUMPDEST POP PUSH2 0x922 PUSH1 0x4 DUP1 CALLDATASIZE SUB DUP2 ADD SWAP1 PUSH2 0x91D SWAP2 SWAP1 PUSH2 0x4184 JUMP JUMPDEST PUSH2 0x1974 JUMP JUMPDEST PUSH1 0x40 MLOAD PUSH2 0x92F SWAP2 SWAP1 PUSH2 0x4080 JUMP JUMPDEST PUSH1 0x40 MLOAD DUP1 SWAP2 SUB SWAP1 RETURN JUMPDEST CALLVALUE DUP1 ISZERO PUSH2 0x943 JUMPI PUSH0 PUSH0 REVERT JUMPDEST POP PUSH2 0x95E PUSH1 0x4 DUP1 CALLDATASIZE SUB DUP2 ADD SWAP1 PUSH2 0x959 SWAP2 SWAP1 PUSH2 0x4184 JUMP JUMPDEST PUSH2 0x1985 JUMP JUMPDEST PUSH1 0x40 MLOAD PUSH2 0x96B SWAP2 SWAP1 PUSH2 0x40B1 JUMP JUMPDEST PUSH1 0x40 MLOAD DUP1 SWAP2 SUB SWAP1 RETURN JUMPDEST CALLVALUE DUP1 ISZERO PUSH2 0x97F JUMPI PUSH0 PUSH0 REVERT JUMPDEST POP PUSH2 0x988 PUSH2 0x19BB JUMP JUMPDEST PUSH1 0x40 MLOAD PUSH2 0x995 SWAP2 SWAP1 PUSH2 0x40B1 JUMP JUMPDEST PUSH1 0x40 MLOAD DUP1 SWAP2 SUB SWAP1 RETURN JUMPDEST CALLVALUE DUP1 ISZERO PUSH2 0x9A9 JUMPI PUSH0 PUSH0 REVERT JUMPDEST POP PUSH2 0x9C4 PUSH1 0x4 DUP1 CALLDATASIZE SUB DUP2 ADD SWAP1 PUSH2 0x9BF SWAP2 SWAP1 PUSH2 0x503A JUMP JUMPDEST PUSH2 0x19C9 JUMP JUMPDEST PUSH1 0x40 MLOAD PUSH2 0x9D1 SWAP2 SWAP1 PUSH2 0x43EC JUMP JUMPDEST PUSH1 0x40 MLOAD DUP1 SWAP2 SUB SWAP1 RETURN JUMPDEST CALLVALUE DUP1 ISZERO PUSH2 0x9E5 JUMPI PUSH0 PUSH0 REVERT JUMPDEST POP PUSH2 0xA00 PUSH1 0x4 DUP1 CALLDATASIZE SUB DUP2 ADD SWAP1 PUSH2 0x9FB SWAP2 SWAP1 PUSH2 0x4184 JUMP JUMPDEST PUSH2 0x1A49 JUMP JUMPDEST PUSH1 0x40 MLOAD PUSH2 0xA0D SWAP2 SWAP1 PUSH2 0x40B1 JUMP JUMPDEST PUSH1 0x40 MLOAD DUP1 SWAP2 SUB SWAP1 RETURN JUMPDEST PUSH2 0xA30 PUSH1 0x4 DUP1 CALLDATASIZE SUB DUP2 ADD SWAP1 PUSH2 0xA2B SWAP2 SWAP1 PUSH2 0x515A JUMP JUMPDEST PUSH2 0x1AB3 JUMP JUMPDEST STOP JUMPDEST CALLVALUE DUP1 ISZERO PUSH2 0xA3D JUMPI PUSH0 PUSH0 REVERT JUMPDEST POP PUSH2 0xA58 PUSH1 0x4 DUP1 CALLDATASIZE SUB DUP2 ADD SWAP1 PUSH2 0xA53 SWAP2 SWAP1 PUSH2 0x469A JUMP JUMPDEST PUSH2 0x1B3C JUMP JUMPDEST PUSH1 0x40 MLOAD PUSH2 0xA65 SWAP2 SWAP1 PUSH2 0x40B1 JUMP JUMPDEST PUSH1 0x40 MLOAD DUP1 SWAP2 SUB SWAP1 RETURN JUMPDEST CALLVALUE DUP1 ISZERO PUSH2 0xA79 JUMPI PUSH0 PUSH0 REVERT JUMPDEST POP PUSH2 0xA82 PUSH2 0x1B76 JUMP JUMPDEST PUSH1 0x40 MLOAD PUSH2 0xA8F SWAP2 SWAP1 PUSH2 0x41EE JUMP JUMPDEST PUSH1 0x40 MLOAD DUP1 SWAP2 SUB SWAP1 RETURN JUMPDEST CALLVALUE DUP1 ISZERO PUSH2 0xAA3 JUMPI PUSH0 PUSH0 REVERT JUMPDEST POP PUSH2 0xAAC PUSH2 0x1B9E JUMP JUMPDEST PUSH1 0x40 MLOAD PUSH2 0xAB9 SWAP2 SWAP1 PUSH2 0x413A JUMP JUMPDEST PUSH1 0x40 MLOAD DUP1 SWAP2 SUB SWAP1 RETURN JUMPDEST CALLVALUE DUP1 ISZERO PUSH2 0xACD JUMPI PUSH0 PUSH0 REVERT JUMPDEST POP PUSH2 0xAD6 PUSH2 0x1BDB JUMP JUMPDEST PUSH1 0x40 MLOAD PUSH2 0xAE3 SWAP2 SWAP1 PUSH2 0x4761 JUMP JUMPDEST PUSH1 0x40 MLOAD DUP1 SWAP2 SUB SWAP1 RETURN JUMPDEST CALLVALUE DUP1 ISZERO PUSH2 0xAF7 JUMPI PUSH0 PUSH0 REVERT JUMPDEST POP PUSH2 0xB12 PUSH1 0x4 DUP1 CALLDATASIZE SUB DUP2 ADD SWAP1 PUSH2 0xB0D SWAP2 SWAP1 PUSH2 0x5204 JUMP JUMPDEST PUSH2 0x1BFF JUMP JUMPDEST STOP JUMPDEST CALLVALUE DUP1 ISZERO PUSH2 0xB1F JUMPI PUSH0 PUSH0 REVERT JUMPDEST POP PUSH2 0xB3A PUSH1 0x4 DUP1 CALLDATASIZE SUB DUP2 ADD SWAP1 PUSH2 0xB35 SWAP2 SWAP1 PUSH2 0x522F JUMP JUMPDEST PUSH2 0x1C13 JUMP JUMPDEST PUSH1 0x40 MLOAD PUSH2 0xB47 SWAP2 SWAP1 PUSH2 0x40B1 JUMP JUMPDEST PUSH1 0x40 MLOAD DUP1 SWAP2 SUB SWAP1 RETURN JUMPDEST CALLVALUE DUP1 ISZERO PUSH2 0xB5B JUMPI PUSH0 PUSH0 REVERT JUMPDEST POP PUSH2 0xB76 PUSH1 0x4 DUP1 CALLDATASIZE SUB DUP2 ADD SWAP1 PUSH2 0xB71 SWAP2 SWAP1 PUSH2 0x4184 JUMP JUMPDEST PUSH2 0x1C2E JUMP JUMPDEST STOP JUMPDEST CALLVALUE DUP1 ISZERO PUSH2 0xB83 JUMPI PUSH0 PUSH0 REVERT JUMPDEST POP PUSH2 0xB9E PUSH1 0x4 DUP1 CALLDATASIZE SUB DUP2 ADD SWAP1 PUSH2 0xB99 SWAP2 SWAP1 PUSH2 0x526D JUMP JUMPDEST PUSH2 0x1C42 JUMP JUMPDEST PUSH1 0x40 MLOAD PUSH2 0xBAB SWAP2 SWAP1 PUSH2 0x43EC JUMP JUMPDEST PUSH1 0x40 MLOAD DUP1 SWAP2 SUB SWAP1 RETURN JUMPDEST CALLVALUE DUP1 ISZERO PUSH2 0xBBF JUMPI PUSH0 PUSH0 REVERT JUMPDEST POP PUSH2 0xBDA PUSH1 0x4 DUP1 CALLDATASIZE SUB DUP2 ADD SWAP1 PUSH2 0xBD5 SWAP2 SWAP1 PUSH2 0x4184 JUMP JUMPDEST PUSH2 0x1CC2 JUMP JUMPDEST PUSH1 0x40 MLOAD PUSH2 0xBE7 SWAP2 SWAP1 PUSH2 0x40B1 JUMP JUMPDEST PUSH1 0x40 MLOAD DUP1 SWAP2 SUB SWAP1 RETURN JUMPDEST CALLVALUE DUP1 ISZERO PUSH2 0xBFB JUMPI PUSH0 PUSH0 REVERT JUMPDEST POP PUSH2 0xC04 PUSH2 0x1CD3 JUMP JUMPDEST PUSH1 0x40 MLOAD PUSH2 0xC11 SWAP2 SWAP1 PUSH2 0x535B JUMP JUMPDEST PUSH1 0x40 MLOAD DUP1 SWAP2 SUB SWAP1 RETURN JUMPDEST PUSH0 PUSH2 0xC23 PUSH2 0x1CFA JUMP JUMPDEST SWAP1 POP SWAP1 JUMP JUMPDEST PUSH0 PUSH32 0xCDBDFCEE00000000000000000000000000000000000000000000000000000000 PUSH28 0xFFFFFFFFFFFFFFFFFFFFFFFFFFFFFFFFFFFFFFFFFFFFFFFFFFFFFFFF NOT AND DUP3 PUSH28 0xFFFFFFFFFFFFFFFFFFFFFFFFFFFFFFFFFFFFFFFFFFFFFFFFFFFFFFFF NOT AND EQ DUP1 PUSH2 0xCFB JUMPI POP PUSH4 0xA8F8A668 PUSH1 0xE0 SHL PUSH32 0xCDBDFCEE00000000000000000000000000000000000000000000000000000000 XOR PUSH28 0xFFFFFFFFFFFFFFFFFFFFFFFFFFFFFFFFFFFFFFFFFFFFFFFFFFFFFFFF NOT AND DUP3 PUSH28 0xFFFFFFFFFFFFFFFFFFFFFFFFFFFFFFFFFFFFFFFFFFFFFFFFFFFFFFFF NOT AND EQ JUMPDEST DUP1 PUSH2 0xD63 JUMPI POP PUSH32 0x4E2312E000000000000000000000000000000000000000000000000000000000 PUSH28 0xFFFFFFFFFFFFFFFFFFFFFFFFFFFFFFFFFFFFFFFFFFFFFFFFFFFFFFFF NOT AND DUP3 PUSH28 0xFFFFFFFFFFFFFFFFFFFFFFFFFFFFFFFFFFFFFFFFFFFFFFFFFFFFFFFF NOT AND EQ JUMPDEST DUP1 PUSH2 0xD73 JUMPI POP PUSH2 0xD72 DUP3 PUSH2 0x1D22 JUMP JUMPDEST JUMPDEST SWAP1 POP SWAP2 SWAP1 POP JUMP JUMPDEST PUSH0 PUSH1 0x8 PUSH1 0x6 SWAP1 SLOAD SWAP1 PUSH2 0x100 EXP SWAP1 DIV PUSH4 0xFFFFFFFF AND PUSH4 0xFFFFFFFF AND SWAP1 POP SWAP1 JUMP JUMPDEST PUSH1 0x60 PUSH1 0x3 DUP1 SLOAD PUSH2 0xDA8 SWAP1 PUSH2 0x53A1 JUMP JUMPDEST DUP1 PUSH1 0x1F ADD PUSH1 0x20 DUP1 SWAP2 DIV MUL PUSH1 0x20 ADD PUSH1 0x40 MLOAD SWAP1 DUP2 ADD PUSH1 0x40 MSTORE DUP1 SWAP3 SWAP2 SWAP1 DUP2 DUP2 MSTORE PUSH1 0x20 ADD DUP3 DUP1 SLOAD PUSH2 0xDD4 SWAP1 PUSH2 0x53A1 JUMP JUMPDEST DUP1 ISZERO PUSH2 0xE1F JUMPI DUP1 PUSH1 0x1F LT PUSH2 0xDF6 JUMPI PUSH2 0x100 DUP1 DUP4 SLOAD DIV MUL DUP4 MSTORE SWAP2 PUSH1 0x20 ADD SWAP2 PUSH2 0xE1F JUMP JUMPDEST DUP3 ADD SWAP2 SWAP1 PUSH0 MSTORE PUSH1 0x20 PUSH0 KECCAK256 SWAP1 JUMPDEST DUP2 SLOAD DUP2 MSTORE SWAP1 PUSH1 0x1 ADD SWAP1 PUSH1 0x20 ADD DUP1 DUP4 GT PUSH2 0xE02 JUMPI DUP3 SWAP1 SUB PUSH1 0x1F AND DUP3 ADD SWAP2 JUMPDEST POP POP POP POP POP SWAP1 POP SWAP1 JUMP JUMPDEST PUSH0 PUSH1 0x4 PUSH0 DUP4 DUP2 MSTORE PUSH1 0x20 ADD SWAP1 DUP2 MSTORE PUSH1 0x20 ADD PUSH0 KECCAK256 PUSH0 ADD PUSH0 SWAP1 SLOAD SWAP1 PUSH2 0x100 EXP SWAP1 DIV PUSH20 0xFFFFFFFFFFFFFFFFFFFFFFFFFFFFFFFFFFFFFFFF AND SWAP1 POP SWAP2 SWAP1 POP JUMP JUMPDEST PUSH0 ADDRESS PUSH20 0xFFFFFFFFFFFFFFFFFFFFFFFFFFFFFFFFFFFFFFFF AND PUSH2 0xE84 PUSH2 0xC1A JUMP JUMPDEST PUSH20 0xFFFFFFFFFFFFFFFFFFFFFFFFFFFFFFFFFFFFFFFF AND EQ PUSH2 0xED1 JUMPI PUSH1 0x40 MLOAD PUSH32 0xE90A651E00000000000000000000000000000000000000000000000000000000 DUP2 MSTORE PUSH1 0x4 ADD PUSH1 0x40 MLOAD DUP1 SWAP2 SUB SWAP1 REVERT JUMPDEST PUSH4 0x150B7A02 PUSH1 0xE0 SHL SWAP1 POP SWAP5 SWAP4 POP POP POP POP JUMP JUMPDEST PUSH0 PUSH0 PUSH2 0xEF1 DUP7 DUP7 DUP7 DUP7 PUSH2 0x195D JUMP JUMPDEST SWAP1 POP PUSH2 0xF06 DUP2 PUSH2 0xF01 PUSH1 0x4 PUSH2 0x1D8B JUMP JUMPDEST PUSH2 0x1DAF JUMP JUMPDEST POP PUSH0 PUSH2 0xF15 DUP3 DUP9 DUP9 DUP9 DUP9 PUSH2 0x1E1A JUMP JUMPDEST SWAP1 POP PUSH0 DUP2 PUSH6 0xFFFFFFFFFFFF AND EQ PUSH2 0xF9A JUMPI DUP1 PUSH1 0x4 PUSH0 DUP5 DUP2 MSTORE PUSH1 0x20 ADD SWAP1 DUP2 MSTORE PUSH1 0x20 ADD PUSH0 KECCAK256 PUSH1 0x1 ADD PUSH0 PUSH2 0x100 EXP DUP2 SLOAD DUP2 PUSH6 0xFFFFFFFFFFFF MUL NOT AND SWAP1 DUP4 PUSH6 0xFFFFFFFFFFFF AND MUL OR SWAP1 SSTORE POP PUSH32 0x9A2E42FD6722813D69113E7D0079D3D940171428DF7373DF9C7F7617CFDA2892 DUP3 DUP3 PUSH1 0x40 MLOAD PUSH2 0xF8D SWAP3 SWAP2 SWAP1 PUSH2 0x5401 JUMP JUMPDEST PUSH1 0x40 MLOAD DUP1 SWAP2 SUB SWAP1 LOG1 PUSH2 0xFCC JUMP JUMPDEST PUSH1 0x40 MLOAD PUSH32 0x90884A4600000000000000000000000000000000000000000000000000000000 DUP2 MSTORE PUSH1 0x4 ADD PUSH1 0x40 MLOAD DUP1 SWAP2 SUB SWAP1 REVERT JUMPDEST DUP2 SWAP3 POP POP POP SWAP5 SWAP4 POP POP POP POP JUMP JUMPDEST PUSH0 PUSH0 PUSH2 0xFE7 DUP7 DUP7 DUP7 DUP7 PUSH2 0x195D JUMP JUMPDEST SWAP1 POP PUSH2 0x1007 DUP2 PUSH2 0xFF7 PUSH1 0x5 PUSH2 0x1D8B JUMP JUMPDEST PUSH2 0x1001 PUSH1 0x4 PUSH2 0x1D8B JUMP JUMPDEST OR PUSH2 0x1DAF JUMP JUMPDEST POP PUSH1 0x1 PUSH1 0x4 PUSH0 DUP4 DUP2 MSTORE PUSH1 0x20 ADD SWAP1 DUP2 MSTORE PUSH1 0x20 ADD PUSH0 KECCAK256 PUSH0 ADD PUSH1 0x1E PUSH2 0x100 EXP DUP2 SLOAD DUP2 PUSH1 0xFF MUL NOT AND SWAP1 DUP4 ISZERO ISZERO MUL OR SWAP1 SSTORE POP ADDRESS PUSH20 0xFFFFFFFFFFFFFFFFFFFFFFFFFFFFFFFFFFFFFFFF AND PUSH2 0x1053 PUSH2 0xC1A JUMP JUMPDEST PUSH20 0xFFFFFFFFFFFFFFFFFFFFFFFFFFFFFFFFFFFFFFFF AND EQ PUSH2 0x110C JUMPI PUSH0 PUSH0 SWAP1 POP JUMPDEST DUP7 MLOAD DUP2 LT ISZERO PUSH2 0x110A JUMPI ADDRESS PUSH20 0xFFFFFFFFFFFFFFFFFFFFFFFFFFFFFFFFFFFFFFFF AND DUP8 DUP3 DUP2 MLOAD DUP2 LT PUSH2 0x10A6 JUMPI PUSH2 0x10A5 PUSH2 0x5428 JUMP JUMPDEST JUMPDEST PUSH1 0x20 MUL PUSH1 0x20 ADD ADD MLOAD PUSH20 0xFFFFFFFFFFFFFFFFFFFFFFFFFFFFFFFFFFFFFFFF AND SUB PUSH2 0x10FF JUMPI PUSH2 0x10FE DUP6 DUP3 DUP2 MLOAD DUP2 LT PUSH2 0x10DF JUMPI PUSH2 0x10DE PUSH2 0x5428 JUMP JUMPDEST JUMPDEST PUSH1 0x20 MUL PUSH1 0x20 ADD ADD MLOAD DUP1 MLOAD SWAP1 PUSH1 0x20 ADD KECCAK256 PUSH1 0x5 PUSH2 0x1E33 SWAP1 SWAP2 SWAP1 PUSH4 0xFFFFFFFF AND JUMP JUMPDEST JUMPDEST DUP1 PUSH1 0x1 ADD SWAP1 POP PUSH2 0x1073 JUMP JUMPDEST POP JUMPDEST PUSH2 0x1119 DUP2 DUP8 DUP8 DUP8 DUP8 PUSH2 0x1E55 JUMP JUMPDEST ADDRESS PUSH20 0xFFFFFFFFFFFFFFFFFFFFFFFFFFFFFFFFFFFFFFFF AND PUSH2 0x1138 PUSH2 0xC1A JUMP JUMPDEST PUSH20 0xFFFFFFFFFFFFFFFFFFFFFFFFFFFFFFFFFFFFFFFF AND EQ ISZERO DUP1 ISZERO PUSH2 0x1163 JUMPI POP PUSH2 0x1161 PUSH1 0x5 PUSH2 0x1E69 JUMP JUMPDEST ISZERO JUMPDEST ISZERO PUSH2 0x1173 JUMPI PUSH2 0x1172 PUSH1 0x5 PUSH2 0x1ED5 JUMP JUMPDEST JUMPDEST PUSH32 0x712AE1383F79AC853F8D882153778E0260EF8F03B504E2866E0593E04D2B291F DUP2 PUSH1 0x40 MLOAD PUSH2 0x11A2 SWAP2 SWAP1 PUSH2 0x40B1 JUMP JUMPDEST PUSH1 0x40 MLOAD DUP1 SWAP2 SUB SWAP1 LOG1 DUP1 SWAP2 POP POP SWAP5 SWAP4 POP POP POP POP JUMP JUMPDEST PUSH0 PUSH1 0x4 PUSH0 DUP4 DUP2 MSTORE PUSH1 0x20 ADD SWAP1 DUP2 MSTORE PUSH1 0x20 ADD PUSH0 KECCAK256 PUSH0 ADD PUSH1 0x14 SWAP1 SLOAD SWAP1 PUSH2 0x100 EXP SWAP1 DIV PUSH6 0xFFFFFFFFFFFF AND PUSH6 0xFFFFFFFFFFFF AND SWAP1 POP SWAP2 SWAP1 POP JUMP JUMPDEST PUSH32 0x3E83946653575F9A39005E1545185629E92736B7528AB20CA3816F315424A811 DUP2 JUMP JUMPDEST PUSH0 PUSH1 0x8 PUSH0 SWAP1 SLOAD SWAP1 PUSH2 0x100 EXP SWAP1 DIV PUSH6 0xFFFFFFFFFFFF AND PUSH6 0xFFFFFFFFFFFF AND SWAP1 POP SWAP1 JUMP JUMPDEST PUSH0 PUSH2 0x123C DUP3 PUSH2 0x1F4B JUMP JUMPDEST SWAP1 POP SWAP2 SWAP1 POP JUMP JUMPDEST PUSH0 PUSH1 0x9 PUSH0 DUP5 DUP2 MSTORE PUSH1 0x20 ADD SWAP1 DUP2 MSTORE PUSH1 0x20 ADD PUSH0 KECCAK256 PUSH1 0x3 ADD PUSH0 DUP4 PUSH20 0xFFFFFFFFFFFFFFFFFFFFFFFFFFFFFFFFFFFFFFFF AND PUSH20 0xFFFFFFFFFFFFFFFFFFFFFFFFFFFFFFFFFFFFFFFF AND DUP2 MSTORE PUSH1 0x20 ADD SWAP1 DUP2 MSTORE PUSH1 0x20 ADD PUSH0 KECCAK256 PUSH0 SWAP1 SLOAD SWAP1 PUSH2 0x100 EXP SWAP1 DIV PUSH1 0xFF AND SWAP1 POP SWAP3 SWAP2 POP POP JUMP JUMPDEST PUSH0 PUSH0 PUSH2 0x12B6 DUP7 DUP7 DUP7 DUP7 PUSH2 0x195D JUMP JUMPDEST SWAP1 POP PUSH0 PUSH2 0x12C1 PUSH2 0x2100 JUMP JUMPDEST SWAP1 POP PUSH2 0x12CD DUP3 DUP3 PUSH2 0x2107 JUMP JUMPDEST PUSH2 0x1310 JUMPI DUP2 DUP2 PUSH1 0x40 MLOAD PUSH32 0x8FE5D8A900000000000000000000000000000000000000000000000000000000 DUP2 MSTORE PUSH1 0x4 ADD PUSH2 0x1307 SWAP3 SWAP2 SWAP1 PUSH2 0x5455 JUMP JUMPDEST PUSH1 0x40 MLOAD DUP1 SWAP2 SUB SWAP1 REVERT JUMPDEST PUSH2 0x131C DUP8 DUP8 DUP8 DUP8 PUSH2 0x217E JUMP JUMPDEST SWAP3 POP POP POP SWAP5 SWAP4 POP POP POP POP JUMP JUMPDEST PUSH1 0x60 PUSH2 0x1332 PUSH2 0x1CD3 JUMP JUMPDEST PUSH20 0xFFFFFFFFFFFFFFFFFFFFFFFFFFFFFFFFFFFFFFFF AND PUSH4 0x4BF5D7E9 PUSH1 0x40 MLOAD DUP2 PUSH4 0xFFFFFFFF AND PUSH1 0xE0 SHL DUP2 MSTORE PUSH1 0x4 ADD PUSH0 PUSH1 0x40 MLOAD DUP1 DUP4 SUB DUP2 DUP7 GAS STATICCALL SWAP3 POP POP POP DUP1 ISZERO PUSH2 0x139C JUMPI POP PUSH1 0x40 MLOAD RETURNDATASIZE PUSH0 DUP3 RETURNDATACOPY RETURNDATASIZE PUSH1 0x1F NOT PUSH1 0x1F DUP3 ADD AND DUP3 ADD DUP1 PUSH1 0x40 MSTORE POP DUP2 ADD SWAP1 PUSH2 0x1399 SWAP2 SWAP1 PUSH2 0x54EA JUMP JUMPDEST PUSH1 0x1 JUMPDEST PUSH2 0x13DD JUMPI PUSH1 0x40 MLOAD DUP1 PUSH1 0x40 ADD PUSH1 0x40 MSTORE DUP1 PUSH1 0x1D DUP2 MSTORE PUSH1 0x20 ADD PUSH32 0x6D6F64653D626C6F636B6E756D6265722666726F6D3D64656661756C74000000 DUP2 MSTORE POP SWAP1 POP PUSH2 0x13E2 JUMP JUMPDEST DUP1 SWAP2 POP POP JUMPDEST SWAP1 JUMP JUMPDEST PUSH0 PUSH0 PUSH0 PUSH0 PUSH1 0x9 PUSH0 DUP7 DUP2 MSTORE PUSH1 0x20 ADD SWAP1 DUP2 MSTORE PUSH1 0x20 ADD PUSH0 KECCAK256 SWAP1 POP DUP1 PUSH0 ADD SLOAD DUP2 PUSH1 0x1 ADD SLOAD DUP3 PUSH1 0x2 ADD SLOAD SWAP4 POP SWAP4 POP SWAP4 POP POP SWAP2 SWAP4 SWAP1 SWAP3 POP JUMP JUMPDEST PUSH1 0x60 PUSH1 0x40 MLOAD DUP1 PUSH1 0x40 ADD PUSH1 0x40 MSTORE DUP1 PUSH1 0x1 DUP2 MSTORE PUSH1 0x20 ADD PUSH32 0x3100000000000000000000000000000000000000000000000000000000000000 DUP2 MSTORE POP SWAP1 POP SWAP1 JUMP JUMPDEST PUSH0 PUSH0 PUSH2 0x145F PUSH2 0x2100 JUMP JUMPDEST SWAP1 POP PUSH2 0x147B DUP5 DUP3 DUP6 PUSH1 0x40 MLOAD DUP1 PUSH1 0x20 ADD PUSH1 0x40 MSTORE DUP1 PUSH0 DUP2 MSTORE POP PUSH2 0x2195 JUMP JUMPDEST SWAP2 POP POP SWAP3 SWAP2 POP POP JUMP JUMPDEST PUSH0 PUSH2 0x14D6 DUP9 DUP9 DUP9 DUP9 DUP9 DUP1 DUP1 PUSH1 0x1F ADD PUSH1 0x20 DUP1 SWAP2 DIV MUL PUSH1 0x20 ADD PUSH1 0x40 MLOAD SWAP1 DUP2 ADD PUSH1 0x40 MSTORE DUP1 SWAP4 SWAP3 SWAP2 SWAP1 DUP2 DUP2 MSTORE PUSH1 0x20 ADD DUP4 DUP4 DUP1 DUP3 DUP5 CALLDATACOPY PUSH0 DUP2 DUP5 ADD MSTORE PUSH1 0x1F NOT PUSH1 0x1F DUP3 ADD AND SWAP1 POP DUP1 DUP4 ADD SWAP3 POP POP POP POP POP POP POP DUP8 DUP8 PUSH2 0x21B4 JUMP JUMPDEST PUSH2 0x1517 JUMPI DUP6 PUSH1 0x40 MLOAD PUSH32 0x94AB6C0700000000000000000000000000000000000000000000000000000000 DUP2 MSTORE PUSH1 0x4 ADD PUSH2 0x150E SWAP2 SWAP1 PUSH2 0x41EE JUMP JUMPDEST PUSH1 0x40 MLOAD DUP1 SWAP2 SUB SWAP1 REVERT JUMPDEST PUSH2 0x1567 DUP9 DUP8 DUP10 DUP9 DUP9 DUP1 DUP1 PUSH1 0x1F ADD PUSH1 0x20 DUP1 SWAP2 DIV MUL PUSH1 0x20 ADD PUSH1 0x40 MLOAD SWAP1 DUP2 ADD PUSH1 0x40 MSTORE DUP1 SWAP4 SWAP3 SWAP2 SWAP1 DUP2 DUP2 MSTORE PUSH1 0x20 ADD DUP4 DUP4 DUP1 DUP3 DUP5 CALLDATACOPY PUSH0 DUP2 DUP5 ADD MSTORE PUSH1 0x1F NOT PUSH1 0x1F DUP3 ADD AND SWAP1 POP DUP1 DUP4 ADD SWAP3 POP POP POP POP POP POP POP DUP8 PUSH2 0x223C JUMP JUMPDEST SWAP1 POP SWAP8 SWAP7 POP POP POP POP POP POP POP JUMP JUMPDEST PUSH0 PUSH0 PUSH2 0x157E PUSH2 0x2100 JUMP JUMPDEST SWAP1 POP PUSH2 0x15D0 DUP8 DUP3 DUP9 DUP9 DUP9 DUP1 DUP1 PUSH1 0x1F ADD PUSH1 0x20 DUP1 SWAP2 DIV MUL PUSH1 0x20 ADD PUSH1 0x40 MLOAD SWAP1 DUP2 ADD PUSH1 0x40 MSTORE DUP1 SWAP4 SWAP3 SWAP2 SWAP1 DUP2 DUP2 MSTORE PUSH1 0x20 ADD DUP4 DUP4 DUP1 DUP3 DUP5 CALLDATACOPY PUSH0 DUP2 DUP5 ADD MSTORE PUSH1 0x1F NOT PUSH1 0x1F DUP3 ADD AND SWAP1 POP DUP1 DUP4 ADD SWAP3 POP POP POP POP POP POP POP DUP8 PUSH2 0x223C JUMP JUMPDEST SWAP2 POP POP SWAP6 SWAP5 POP POP POP POP POP JUMP JUMPDEST PUSH2 0x15E4 PUSH2 0x2346 JUMP JUMPDEST PUSH2 0x15ED DUP2 PUSH2 0x243B JUMP JUMPDEST POP JUMP JUMPDEST PUSH0 PUSH0 PUSH2 0x15FA PUSH2 0x2100 JUMP JUMPDEST SWAP1 POP PUSH2 0x164B DUP7 DUP3 DUP8 DUP8 DUP8 DUP1 DUP1 PUSH1 0x1F ADD PUSH1 0x20 DUP1 SWAP2 DIV MUL PUSH1 0x20 ADD PUSH1 0x40 MLOAD SWAP1 DUP2 ADD PUSH1 0x40 MSTORE DUP1 SWAP4 SWAP3 SWAP2 SWAP1 DUP2 DUP2 MSTORE PUSH1 0x20 ADD DUP4 DUP4 DUP1 DUP3 DUP5 CALLDATACOPY PUSH0 DUP2 DUP5 ADD MSTORE PUSH1 0x1F NOT PUSH1 0x1F DUP3 ADD AND SWAP1 POP DUP1 DUP4 ADD SWAP3 POP POP POP POP POP POP POP PUSH2 0x2195 JUMP JUMPDEST SWAP2 POP POP SWAP5 SWAP4 POP POP POP POP JUMP JUMPDEST PUSH0 PUSH0 PUSH2 0x1660 PUSH2 0x2100 JUMP JUMPDEST SWAP1 POP PUSH2 0x166C DUP2 DUP5 PUSH2 0x24AE JUMP JUMPDEST PUSH2 0x16AD JUMPI DUP1 PUSH1 0x40 MLOAD PUSH32 0xD9B3955700000000000000000000000000000000000000000000000000000000 DUP2 MSTORE PUSH1 0x4 ADD PUSH2 0x16A4 SWAP2 SWAP1 PUSH2 0x41EE JUMP JUMPDEST PUSH1 0x40 MLOAD DUP1 SWAP2 SUB SWAP1 REVERT JUMPDEST PUSH0 PUSH2 0x16B6 PUSH2 0x19BB JUMP JUMPDEST SWAP1 POP PUSH0 DUP2 GT ISZERO PUSH2 0x1733 JUMPI PUSH0 PUSH2 0x16E6 DUP4 PUSH1 0x1 PUSH2 0x16CF PUSH2 0x18A9 JUMP JUMPDEST PUSH2 0x16D9 SWAP2 SWAP1 PUSH2 0x555E JUMP JUMPDEST PUSH6 0xFFFFFFFFFFFF AND PUSH2 0x1C13 JUMP JUMPDEST SWAP1 POP DUP2 DUP2 LT ISZERO PUSH2 0x1731 JUMPI DUP3 DUP2 DUP4 PUSH1 0x40 MLOAD PUSH32 0xC242EE1600000000000000000000000000000000000000000000000000000000 DUP2 MSTORE PUSH1 0x4 ADD PUSH2 0x1728 SWAP4 SWAP3 SWAP2 SWAP1 PUSH2 0x5597 JUMP JUMPDEST PUSH1 0x40 MLOAD DUP1 SWAP2 SUB SWAP1 REVERT JUMPDEST POP JUMPDEST PUSH2 0x1740 DUP8 DUP8 DUP8 DUP8 DUP7 PUSH2 0x2594 JUMP JUMPDEST SWAP3 POP POP POP SWAP5 SWAP4 POP POP POP POP JUMP JUMPDEST PUSH0 PUSH1 0x2 PUSH0 DUP4 PUSH20 0xFFFFFFFFFFFFFFFFFFFFFFFFFFFFFFFFFFFFFFFF AND PUSH20 0xFFFFFFFFFFFFFFFFFFFFFFFFFFFFFFFFFFFFFFFF AND DUP2 MSTORE PUSH1 0x20 ADD SWAP1 DUP2 MSTORE PUSH1 0x20 ADD PUSH0 KECCAK256 SLOAD SWAP1 POP SWAP2 SWAP1 POP JUMP JUMPDEST PUSH0 PUSH1 0x60 DUP1 PUSH0 PUSH0 PUSH0 PUSH1 0x60 PUSH2 0x17A3 PUSH2 0x2819 JUMP JUMPDEST PUSH2 0x17AB PUSH2 0x2853 JUMP JUMPDEST CHAINID ADDRESS PUSH0 PUSH0 SHL PUSH0 PUSH8 0xFFFFFFFFFFFFFFFF DUP2 GT ISZERO PUSH2 0x17CA JUMPI PUSH2 0x17C9 PUSH2 0x4239 JUMP JUMPDEST JUMPDEST PUSH1 0x40 MLOAD SWAP1 DUP1 DUP3 MSTORE DUP1 PUSH1 0x20 MUL PUSH1 0x20 ADD DUP3 ADD PUSH1 0x40 MSTORE DUP1 ISZERO PUSH2 0x17F8 JUMPI DUP2 PUSH1 0x20 ADD PUSH1 0x20 DUP3 MUL DUP1 CALLDATASIZE DUP4 CALLDATACOPY DUP1 DUP3 ADD SWAP2 POP POP SWAP1 POP JUMPDEST POP PUSH32 0xF00000000000000000000000000000000000000000000000000000000000000 SWAP6 SWAP5 SWAP4 SWAP3 SWAP2 SWAP1 SWAP7 POP SWAP7 POP SWAP7 POP SWAP7 POP SWAP7 POP SWAP7 POP SWAP7 POP SWAP1 SWAP2 SWAP3 SWAP4 SWAP5 SWAP6 SWAP7 JUMP JUMPDEST PUSH0 PUSH2 0x1844 DUP6 DUP6 DUP6 DUP6 PUSH2 0x288E JUMP JUMPDEST PUSH2 0x1885 JUMPI DUP3 PUSH1 0x40 MLOAD PUSH32 0x94AB6C0700000000000000000000000000000000000000000000000000000000 DUP2 MSTORE PUSH1 0x4 ADD PUSH2 0x187C SWAP2 SWAP1 PUSH2 0x41EE JUMP JUMPDEST PUSH1 0x40 MLOAD DUP1 SWAP2 SUB SWAP1 REVERT JUMPDEST PUSH2 0x189F DUP6 DUP5 DUP7 PUSH1 0x40 MLOAD DUP1 PUSH1 0x20 ADD PUSH1 0x40 MSTORE DUP1 PUSH0 DUP2 MSTORE POP PUSH2 0x2195 JUMP JUMPDEST SWAP1 POP SWAP5 SWAP4 POP POP POP POP JUMP JUMPDEST PUSH0 PUSH2 0x18B2 PUSH2 0x1CD3 JUMP JUMPDEST PUSH20 0xFFFFFFFFFFFFFFFFFFFFFFFFFFFFFFFFFFFFFFFF AND PUSH4 0x91DDADF4 PUSH1 0x40 MLOAD DUP2 PUSH4 0xFFFFFFFF AND PUSH1 0xE0 SHL DUP2 MSTORE PUSH1 0x4 ADD PUSH1 0x20 PUSH1 0x40 MLOAD DUP1 DUP4 SUB DUP2 DUP7 GAS STATICCALL SWAP3 POP POP POP DUP1 ISZERO PUSH2 0x1919 JUMPI POP PUSH1 0x40 MLOAD RETURNDATASIZE PUSH1 0x1F NOT PUSH1 0x1F DUP3 ADD AND DUP3 ADD DUP1 PUSH1 0x40 MSTORE POP DUP2 ADD SWAP1 PUSH2 0x1916 SWAP2 SWAP1 PUSH2 0x55E0 JUMP JUMPDEST PUSH1 0x1 JUMPDEST PUSH2 0x192C JUMPI PUSH2 0x1925 PUSH2 0x2902 JUMP JUMPDEST SWAP1 POP PUSH2 0x1931 JUMP JUMPDEST DUP1 SWAP2 POP POP JUMPDEST SWAP1 JUMP JUMPDEST PUSH0 PUSH2 0x1940 DUP5 DUP5 DUP5 PUSH2 0x2911 JUMP JUMPDEST SWAP1 POP SWAP4 SWAP3 POP POP POP JUMP JUMPDEST PUSH2 0x1951 PUSH2 0x2346 JUMP JUMPDEST PUSH2 0x195A DUP2 PUSH2 0x299C JUMP JUMPDEST POP JUMP JUMPDEST PUSH0 PUSH2 0x196A DUP6 DUP6 DUP6 DUP6 PUSH2 0x1B3C JUMP JUMPDEST SWAP1 POP SWAP5 SWAP4 POP POP POP POP JUMP JUMPDEST PUSH0 PUSH2 0x197E DUP3 PUSH2 0x2A39 JUMP JUMPDEST SWAP1 POP SWAP2 SWAP1 POP JUMP JUMPDEST PUSH0 PUSH1 0x4 PUSH0 DUP4 DUP2 MSTORE PUSH1 0x20 ADD SWAP1 DUP2 MSTORE PUSH1 0x20 ADD PUSH0 KECCAK256 PUSH1 0x1 ADD PUSH0 SWAP1 SLOAD SWAP1 PUSH2 0x100 EXP SWAP1 DIV PUSH6 0xFFFFFFFFFFFF AND PUSH6 0xFFFFFFFFFFFF AND SWAP1 POP SWAP2 SWAP1 POP JUMP JUMPDEST PUSH0 PUSH2 0x19C4 PUSH2 0x2A43 JUMP JUMPDEST SWAP1 POP SWAP1 JUMP JUMPDEST PUSH0 ADDRESS PUSH20 0xFFFFFFFFFFFFFFFFFFFFFFFFFFFFFFFFFFFFFFFF AND PUSH2 0x19E9 PUSH2 0xC1A JUMP JUMPDEST PUSH20 0xFFFFFFFFFFFFFFFFFFFFFFFFFFFFFFFFFFFFFFFF AND EQ PUSH2 0x1A36 JUMPI PUSH1 0x40 MLOAD PUSH32 0xE90A651E00000000000000000000000000000000000000000000000000000000 DUP2 MSTORE PUSH1 0x4 ADD PUSH1 0x40 MLOAD DUP1 SWAP2 SUB SWAP1 REVERT JUMPDEST PUSH4 0xBC197C81 PUSH1 0xE0 SHL SWAP1 POP SWAP6 SWAP5 POP POP POP POP POP JUMP JUMPDEST PUSH0 PUSH1 0x4 PUSH0 DUP4 DUP2 MSTORE PUSH1 0x20 ADD SWAP1 DUP2 MSTORE PUSH1 0x20 ADD PUSH0 KECCAK256 PUSH0 ADD PUSH1 0x1A SWAP1 SLOAD SWAP1 PUSH2 0x100 EXP SWAP1 DIV PUSH4 0xFFFFFFFF AND PUSH4 0xFFFFFFFF AND PUSH1 0x4 PUSH0 DUP5 DUP2 MSTORE PUSH1 0x20 ADD SWAP1 DUP2 MSTORE PUSH1 0x20 ADD PUSH0 KECCAK256 PUSH0 ADD PUSH1 0x14 SWAP1 SLOAD SWAP1 PUSH2 0x100 EXP SWAP1 DIV PUSH6 0xFFFFFFFFFFFF AND PUSH2 0x1AA4 SWAP2 SWAP1 PUSH2 0x560B JUMP JUMPDEST PUSH6 0xFFFFFFFFFFFF AND SWAP1 POP SWAP2 SWAP1 POP JUMP JUMPDEST PUSH2 0x1ABB PUSH2 0x2346 JUMP JUMPDEST PUSH0 PUSH0 DUP6 PUSH20 0xFFFFFFFFFFFFFFFFFFFFFFFFFFFFFFFFFFFFFFFF AND DUP6 DUP6 DUP6 PUSH1 0x40 MLOAD PUSH2 0x1AE5 SWAP3 SWAP2 SWAP1 PUSH2 0x5672 JUMP JUMPDEST PUSH0 PUSH1 0x40 MLOAD DUP1 DUP4 SUB DUP2 DUP6 DUP8 GAS CALL SWAP3 POP POP POP RETURNDATASIZE DUP1 PUSH0 DUP2 EQ PUSH2 0x1B1F JUMPI PUSH1 0x40 MLOAD SWAP2 POP PUSH1 0x1F NOT PUSH1 0x3F RETURNDATASIZE ADD AND DUP3 ADD PUSH1 0x40 MSTORE RETURNDATASIZE DUP3 MSTORE RETURNDATASIZE PUSH0 PUSH1 0x20 DUP5 ADD RETURNDATACOPY PUSH2 0x1B24 JUMP JUMPDEST PUSH1 0x60 SWAP2 POP JUMPDEST POP SWAP2 POP SWAP2 POP PUSH2 0x1B33 DUP3 DUP3 PUSH2 0x2A4C JUMP JUMPDEST POP POP POP POP POP POP POP JUMP JUMPDEST PUSH0 DUP5 DUP5 DUP5 DUP5 PUSH1 0x40 MLOAD PUSH1 0x20 ADD PUSH2 0x1B54 SWAP5 SWAP4 SWAP3 SWAP2 SWAP1 PUSH2 0x584E JUMP JUMPDEST PUSH1 0x40 MLOAD PUSH1 0x20 DUP2 DUP4 SUB SUB DUP2 MSTORE SWAP1 PUSH1 0x40 MSTORE DUP1 MLOAD SWAP1 PUSH1 0x20 ADD KECCAK256 PUSH0 SHR SWAP1 POP SWAP5 SWAP4 POP POP POP POP JUMP JUMPDEST PUSH0 PUSH1 0xA PUSH0 SWAP1 SLOAD SWAP1 PUSH2 0x100 EXP SWAP1 DIV PUSH20 0xFFFFFFFFFFFFFFFFFFFFFFFFFFFFFFFFFFFFFFFF AND SWAP1 POP SWAP1 JUMP JUMPDEST PUSH1 0x60 PUSH1 0x40 MLOAD DUP1 PUSH1 0x40 ADD PUSH1 0x40 MSTORE DUP1 PUSH1 0x20 DUP2 MSTORE PUSH1 0x20 ADD PUSH32 0x737570706F72743D627261766F2671756F72756D3D666F722C6162737461696E DUP2 MSTORE POP SWAP1 POP SWAP1 JUMP JUMPDEST PUSH32 0xF2AAD550CF55F045CB27E9C559F9889FDFB6E6CDAA032301D6EA397784AE51D7 DUP2 JUMP JUMPDEST PUSH2 0x1C07 PUSH2 0x2346 JUMP JUMPDEST PUSH2 0x1C10 DUP2 PUSH2 0x2AAC JUMP JUMPDEST POP JUMP JUMPDEST PUSH0 PUSH2 0x1C26 DUP4 DUP4 PUSH2 0x1C21 PUSH2 0x2B65 JUMP JUMPDEST PUSH2 0x2911 JUMP JUMPDEST SWAP1 POP SWAP3 SWAP2 POP POP JUMP JUMPDEST PUSH2 0x1C36 PUSH2 0x2346 JUMP JUMPDEST PUSH2 0x1C3F DUP2 PUSH2 0x2B7B JUMP JUMPDEST POP JUMP JUMPDEST PUSH0 ADDRESS PUSH20 0xFFFFFFFFFFFFFFFFFFFFFFFFFFFFFFFFFFFFFFFF AND PUSH2 0x1C62 PUSH2 0xC1A JUMP JUMPDEST PUSH20 0xFFFFFFFFFFFFFFFFFFFFFFFFFFFFFFFFFFFFFFFF AND EQ PUSH2 0x1CAF JUMPI PUSH1 0x40 MLOAD PUSH32 0xE90A651E00000000000000000000000000000000000000000000000000000000 DUP2 MSTORE PUSH1 0x4 ADD PUSH1 0x40 MLOAD DUP1 SWAP2 SUB SWAP1 REVERT JUMPDEST PUSH4 0xF23A6E61 PUSH1 0xE0 SHL SWAP1 POP SWAP6 SWAP5 POP POP POP POP POP JUMP JUMPDEST PUSH0 PUSH8 0xDE0B6B3A7640000 SWAP1 POP SWAP2 SWAP1 POP JUMP JUMPDEST PUSH0 PUSH32 0x0 SWAP1 POP SWAP1 JUMP JUMPDEST PUSH0 PUSH1 0xA PUSH0 SWAP1 SLOAD SWAP1 PUSH2 0x100 EXP SWAP1 DIV PUSH20 0xFFFFFFFFFFFFFFFFFFFFFFFFFFFFFFFFFFFFFFFF AND SWAP1 POP SWAP1 JUMP JUMPDEST PUSH0 PUSH32 0x1FFC9A700000000000000000000000000000000000000000000000000000000 PUSH28 0xFFFFFFFFFFFFFFFFFFFFFFFFFFFFFFFFFFFFFFFFFFFFFFFFFFFFFFFF NOT AND DUP3 PUSH28 0xFFFFFFFFFFFFFFFFFFFFFFFFFFFFFFFFFFFFFFFFFFFFFFFFFFFFFFFF NOT AND EQ SWAP1 POP SWAP2 SWAP1 POP JUMP JUMPDEST PUSH0 DUP2 PUSH1 0x7 DUP2 GT ISZERO PUSH2 0x1D9F JUMPI PUSH2 0x1D9E PUSH2 0x477A JUMP JUMPDEST JUMPDEST PUSH1 0xFF AND PUSH1 0x1 SWAP1 SHL PUSH0 SHL SWAP1 POP SWAP2 SWAP1 POP JUMP JUMPDEST PUSH0 PUSH0 PUSH2 0x1DBA DUP5 PUSH2 0x1232 JUMP JUMPDEST SWAP1 POP PUSH0 PUSH0 SHL DUP4 PUSH2 0x1DC9 DUP4 PUSH2 0x1D8B JUMP JUMPDEST AND SUB PUSH2 0x1E10 JUMPI DUP4 DUP2 DUP5 PUSH1 0x40 MLOAD PUSH32 0x31B75E4D00000000000000000000000000000000000000000000000000000000 DUP2 MSTORE PUSH1 0x4 ADD PUSH2 0x1E07 SWAP4 SWAP3 SWAP2 SWAP1 PUSH2 0x58A6 JUMP JUMPDEST PUSH1 0x40 MLOAD DUP1 SWAP2 SUB SWAP1 REVERT JUMPDEST DUP1 SWAP2 POP POP SWAP3 SWAP2 POP POP JUMP JUMPDEST PUSH0 PUSH2 0x1E28 DUP7 DUP7 DUP7 DUP7 DUP7 PUSH2 0x2BC0 JUMP JUMPDEST SWAP1 POP SWAP6 SWAP5 POP POP POP POP POP JUMP JUMPDEST PUSH0 PUSH2 0x1E3E DUP4 DUP4 PUSH2 0x2DC6 JUMP JUMPDEST SWAP1 POP DUP1 PUSH2 0x1E50 JUMPI PUSH2 0x1E4F PUSH1 0x41 PUSH2 0x2EC4 JUMP JUMPDEST JUMPDEST POP POP POP JUMP JUMPDEST PUSH2 0x1E62 DUP6 DUP6 DUP6 DUP6 DUP6 PUSH2 0x2ED5 JUMP JUMPDEST POP POP POP POP POP JUMP JUMPDEST PUSH0 DUP2 PUSH0 ADD PUSH0 SWAP1 SLOAD SWAP1 PUSH2 0x100 EXP SWAP1 DIV PUSH16 0xFFFFFFFFFFFFFFFFFFFFFFFFFFFFFFFF AND PUSH16 0xFFFFFFFFFFFFFFFFFFFFFFFFFFFFFFFF AND DUP3 PUSH0 ADD PUSH1 0x10 SWAP1 SLOAD SWAP1 PUSH2 0x100 EXP SWAP1 DIV PUSH16 0xFFFFFFFFFFFFFFFFFFFFFFFFFFFFFFFF AND PUSH16 0xFFFFFFFFFFFFFFFFFFFFFFFFFFFFFFFF AND EQ SWAP1 POP SWAP2 SWAP1 POP JUMP JUMPDEST PUSH0 DUP2 PUSH0 ADD PUSH0 PUSH2 0x100 EXP DUP2 SLOAD DUP2 PUSH16 0xFFFFFFFFFFFFFFFFFFFFFFFFFFFFFFFF MUL NOT AND SWAP1 DUP4 PUSH16 0xFFFFFFFFFFFFFFFFFFFFFFFFFFFFFFFF AND MUL OR SWAP1 SSTORE POP PUSH0 DUP2 PUSH0 ADD PUSH1 0x10 PUSH2 0x100 EXP DUP2 SLOAD DUP2 PUSH16 0xFFFFFFFFFFFFFFFFFFFFFFFFFFFFFFFF MUL NOT AND SWAP1 DUP4 PUSH16 0xFFFFFFFFFFFFFFFFFFFFFFFFFFFFFFFF AND MUL OR SWAP1 SSTORE POP POP JUMP JUMPDEST PUSH0 PUSH0 PUSH2 0x1F56 DUP4 PUSH2 0x2F89 JUMP JUMPDEST SWAP1 POP PUSH1 0x5 PUSH1 0x7 DUP2 GT ISZERO PUSH2 0x1F6C JUMPI PUSH2 0x1F6B PUSH2 0x477A JUMP JUMPDEST JUMPDEST DUP2 PUSH1 0x7 DUP2 GT ISZERO PUSH2 0x1F7F JUMPI PUSH2 0x1F7E PUSH2 0x477A JUMP JUMPDEST JUMPDEST EQ PUSH2 0x1F8D JUMPI DUP1 SWAP2 POP POP PUSH2 0x20FB JUMP JUMPDEST PUSH0 PUSH1 0xB PUSH0 DUP6 DUP2 MSTORE PUSH1 0x20 ADD SWAP1 DUP2 MSTORE PUSH1 0x20 ADD PUSH0 KECCAK256 SLOAD SWAP1 POP PUSH1 0xA PUSH0 SWAP1 SLOAD SWAP1 PUSH2 0x100 EXP SWAP1 DIV PUSH20 0xFFFFFFFFFFFFFFFFFFFFFFFFFFFFFFFFFFFFFFFF AND PUSH20 0xFFFFFFFFFFFFFFFFFFFFFFFFFFFFFFFFFFFFFFFF AND PUSH4 0x584B153E DUP3 PUSH1 0x40 MLOAD DUP3 PUSH4 0xFFFFFFFF AND PUSH1 0xE0 SHL DUP2 MSTORE PUSH1 0x4 ADD PUSH2 0x1FFC SWAP2 SWAP1 PUSH2 0x4761 JUMP JUMPDEST PUSH1 0x20 PUSH1 0x40 MLOAD DUP1 DUP4 SUB DUP2 DUP7 GAS STATICCALL ISZERO DUP1 ISZERO PUSH2 0x2017 JUMPI RETURNDATASIZE PUSH0 PUSH0 RETURNDATACOPY RETURNDATASIZE PUSH0 REVERT JUMPDEST POP POP POP POP PUSH1 0x40 MLOAD RETURNDATASIZE PUSH1 0x1F NOT PUSH1 0x1F DUP3 ADD AND DUP3 ADD DUP1 PUSH1 0x40 MSTORE POP DUP2 ADD SWAP1 PUSH2 0x203B SWAP2 SWAP1 PUSH2 0x5905 JUMP JUMPDEST ISZERO PUSH2 0x204B JUMPI PUSH1 0x5 SWAP3 POP POP POP PUSH2 0x20FB JUMP JUMPDEST PUSH1 0xA PUSH0 SWAP1 SLOAD SWAP1 PUSH2 0x100 EXP SWAP1 DIV PUSH20 0xFFFFFFFFFFFFFFFFFFFFFFFFFFFFFFFFFFFFFFFF AND PUSH20 0xFFFFFFFFFFFFFFFFFFFFFFFFFFFFFFFFFFFFFFFF AND PUSH4 0x2AB0F529 DUP3 PUSH1 0x40 MLOAD DUP3 PUSH4 0xFFFFFFFF AND PUSH1 0xE0 SHL DUP2 MSTORE PUSH1 0x4 ADD PUSH2 0x20A5 SWAP2 SWAP1 PUSH2 0x4761 JUMP JUMPDEST PUSH1 0x20 PUSH1 0x40 MLOAD DUP1 DUP4 SUB DUP2 DUP7 GAS STATICCALL ISZERO DUP1 ISZERO PUSH2 0x20C0 JUMPI RETURNDATASIZE PUSH0 PUSH0 RETURNDATACOPY RETURNDATASIZE PUSH0 REVERT JUMPDEST POP POP POP POP PUSH1 0x40 MLOAD RETURNDATASIZE PUSH1 0x1F NOT PUSH1 0x1F DUP3 ADD AND DUP3 ADD DUP1 PUSH1 0x40 MSTORE POP DUP2 ADD SWAP1 PUSH2 0x20E4 SWAP2 SWAP1 PUSH2 0x5905 JUMP JUMPDEST ISZERO PUSH2 0x20F4 JUMPI PUSH1 0x7 SWAP3 POP POP POP PUSH2 0x20FB JUMP JUMPDEST PUSH1 0x2 SWAP3 POP POP POP JUMPDEST SWAP2 SWAP1 POP JUMP JUMPDEST PUSH0 CALLER SWAP1 POP SWAP1 JUMP JUMPDEST PUSH0 PUSH0 PUSH1 0x7 DUP2 GT ISZERO PUSH2 0x211B JUMPI PUSH2 0x211A PUSH2 0x477A JUMP JUMPDEST JUMPDEST PUSH2 0x2124 DUP5 PUSH2 0x1232 JUMP JUMPDEST PUSH1 0x7 DUP2 GT ISZERO PUSH2 0x2136 JUMPI PUSH2 0x2135 PUSH2 0x477A JUMP JUMPDEST JUMPDEST EQ DUP1 ISZERO PUSH2 0x2176 JUMPI POP PUSH2 0x2147 DUP4 PUSH2 0xE29 JUMP JUMPDEST PUSH20 0xFFFFFFFFFFFFFFFFFFFFFFFFFFFFFFFFFFFFFFFF AND DUP3 PUSH20 0xFFFFFFFFFFFFFFFFFFFFFFFFFFFFFFFFFFFFFFFF AND EQ JUMPDEST SWAP1 POP SWAP3 SWAP2 POP POP JUMP JUMPDEST PUSH0 PUSH2 0x218B DUP6 DUP6 DUP6 DUP6 PUSH2 0x30E0 JUMP JUMPDEST SWAP1 POP SWAP5 SWAP4 POP POP POP POP JUMP JUMPDEST PUSH0 PUSH2 0x21AA DUP6 DUP6 DUP6 DUP6 PUSH2 0x21A5 PUSH2 0x2B65 JUMP JUMPDEST PUSH2 0x223C JUMP JUMPDEST SWAP1 POP SWAP5 SWAP4 POP POP POP POP JUMP JUMPDEST PUSH0 PUSH2 0x2230 DUP6 PUSH2 0x222A PUSH32 0x3E83946653575F9A39005E1545185629E92736B7528AB20CA3816F315424A811 DUP11 DUP11 DUP11 PUSH2 0x21E9 DUP13 PUSH2 0x31B7 JUMP JUMPDEST DUP12 DUP1 MLOAD SWAP1 PUSH1 0x20 ADD KECCAK256 DUP12 DUP1 MLOAD SWAP1 PUSH1 0x20 ADD KECCAK256 PUSH1 0x40 MLOAD PUSH1 0x20 ADD PUSH2 0x220F SWAP8 SWAP7 SWAP6 SWAP5 SWAP4 SWAP3 SWAP2 SWAP1 PUSH2 0x593F JUMP JUMPDEST PUSH1 0x40 MLOAD PUSH1 0x20 DUP2 DUP4 SUB SUB DUP2 MSTORE SWAP1 PUSH1 0x40 MSTORE DUP1 MLOAD SWAP1 PUSH1 0x20 ADD KECCAK256 PUSH2 0x320A JUMP JUMPDEST DUP5 PUSH2 0x3223 JUMP JUMPDEST SWAP1 POP SWAP7 SWAP6 POP POP POP POP POP POP JUMP JUMPDEST PUSH0 PUSH2 0x2250 DUP7 PUSH2 0x224B PUSH1 0x1 PUSH2 0x1D8B JUMP JUMPDEST PUSH2 0x1DAF JUMP JUMPDEST POP PUSH0 PUSH2 0x2265 DUP7 PUSH2 0x225F DUP10 PUSH2 0x11B6 JUMP JUMPDEST DUP6 PUSH2 0x2911 JUMP JUMPDEST SWAP1 POP PUSH0 PUSH2 0x2275 DUP9 DUP9 DUP9 DUP6 DUP9 PUSH2 0x32CF JUMP JUMPDEST SWAP1 POP PUSH0 DUP5 MLOAD SUB PUSH2 0x22D8 JUMPI DUP7 PUSH20 0xFFFFFFFFFFFFFFFFFFFFFFFFFFFFFFFFFFFFFFFF AND PUSH32 0xB8E138887D0AA13BAB447E82DE9D5C1777041ECD21CA36BA824FF1E6C07DDDA4 DUP10 DUP9 DUP5 DUP10 PUSH1 0x40 MLOAD PUSH2 0x22CB SWAP5 SWAP4 SWAP3 SWAP2 SWAP1 PUSH2 0x59AC JUMP JUMPDEST PUSH1 0x40 MLOAD DUP1 SWAP2 SUB SWAP1 LOG2 PUSH2 0x232F JUMP JUMPDEST DUP7 PUSH20 0xFFFFFFFFFFFFFFFFFFFFFFFFFFFFFFFFFFFFFFFF AND PUSH32 0xE2BABFBAC5889A709B63BB7F598B324E08BC5A4FB9EC647FB3CBC9EC07EB8712 DUP10 DUP9 DUP5 DUP10 DUP10 PUSH1 0x40 MLOAD PUSH2 0x2326 SWAP6 SWAP5 SWAP4 SWAP3 SWAP2 SWAP1 PUSH2 0x5A3E JUMP JUMPDEST PUSH1 0x40 MLOAD DUP1 SWAP2 SUB SWAP1 LOG2 JUMPDEST PUSH2 0x2338 DUP9 PUSH2 0x34C4 JUMP JUMPDEST DUP1 SWAP3 POP POP POP SWAP6 SWAP5 POP POP POP POP POP JUMP JUMPDEST PUSH2 0x234E PUSH2 0x2100 JUMP JUMPDEST PUSH20 0xFFFFFFFFFFFFFFFFFFFFFFFFFFFFFFFFFFFFFFFF AND PUSH2 0x236C PUSH2 0xC1A JUMP JUMPDEST PUSH20 0xFFFFFFFFFFFFFFFFFFFFFFFFFFFFFFFFFFFFFFFF AND EQ PUSH2 0x23CB JUMPI PUSH2 0x238F PUSH2 0x2100 JUMP JUMPDEST PUSH1 0x40 MLOAD PUSH32 0x47096E4700000000000000000000000000000000000000000000000000000000 DUP2 MSTORE PUSH1 0x4 ADD PUSH2 0x23C2 SWAP2 SWAP1 PUSH2 0x41EE JUMP JUMPDEST PUSH1 0x40 MLOAD DUP1 SWAP2 SUB SWAP1 REVERT JUMPDEST ADDRESS PUSH20 0xFFFFFFFFFFFFFFFFFFFFFFFFFFFFFFFFFFFFFFFF AND PUSH2 0x23EA PUSH2 0xC1A JUMP JUMPDEST PUSH20 0xFFFFFFFFFFFFFFFFFFFFFFFFFFFFFFFFFFFFFFFF AND EQ PUSH2 0x2439 JUMPI PUSH0 PUSH2 0x240E PUSH2 0x34C7 JUMP JUMPDEST PUSH1 0x40 MLOAD PUSH2 0x241C SWAP3 SWAP2 SWAP1 PUSH2 0x5672 JUMP JUMPDEST PUSH1 0x40 MLOAD DUP1 SWAP2 SUB SWAP1 KECCAK256 SWAP1 POP JUMPDEST DUP1 PUSH2 0x2432 PUSH1 0x5 PUSH2 0x34D3 JUMP JUMPDEST SUB PUSH2 0x2427 JUMPI POP JUMPDEST JUMP JUMPDEST PUSH32 0xC565B045403DC03C2EEA82B81A0465EDAD9E2E7FC4D97E11421C209DA93D7A93 PUSH1 0x8 PUSH0 SWAP1 SLOAD SWAP1 PUSH2 0x100 EXP SWAP1 DIV PUSH6 0xFFFFFFFFFFFF AND DUP3 PUSH1 0x40 MLOAD PUSH2 0x247F SWAP3 SWAP2 SWAP1 PUSH2 0x5A9D JUMP JUMPDEST PUSH1 0x40 MLOAD DUP1 SWAP2 SUB SWAP1 LOG1 DUP1 PUSH1 0x8 PUSH0 PUSH2 0x100 EXP DUP2 SLOAD DUP2 PUSH6 0xFFFFFFFFFFFF MUL NOT AND SWAP1 DUP4 PUSH6 0xFFFFFFFFFFFF AND MUL OR SWAP1 SSTORE POP POP JUMP JUMPDEST PUSH0 PUSH0 DUP3 MLOAD SWAP1 POP PUSH1 0x34 DUP2 LT ISZERO PUSH2 0x24C7 JUMPI PUSH1 0x1 SWAP2 POP POP PUSH2 0x258E JUMP JUMPDEST PUSH0 PUSH2 0x24D5 DUP5 PUSH1 0x34 DUP5 SUB PUSH2 0x34FD JUMP JUMPDEST SWAP1 POP PUSH32 0x2370726F706F7365723D00000000000000000000000000000000000000000000 PUSH22 0xFFFFFFFFFFFFFFFFFFFFFFFFFFFFFFFFFFFFFFFFFFFF NOT AND DUP2 PUSH22 0xFFFFFFFFFFFFFFFFFFFFFFFFFFFFFFFFFFFFFFFFFFFF NOT AND EQ PUSH2 0x253B JUMPI PUSH1 0x1 SWAP3 POP POP POP PUSH2 0x258E JUMP JUMPDEST PUSH0 PUSH0 PUSH2 0x254B DUP7 PUSH1 0x2A DUP7 SUB DUP7 PUSH2 0x350D JUMP JUMPDEST SWAP2 POP SWAP2 POP DUP2 ISZERO DUP1 PUSH2 0x2587 JUMPI POP DUP7 PUSH20 0xFFFFFFFFFFFFFFFFFFFFFFFFFFFFFFFFFFFFFFFF AND DUP2 PUSH20 0xFFFFFFFFFFFFFFFFFFFFFFFFFFFFFFFFFFFFFFFF AND EQ JUMPDEST SWAP5 POP POP POP POP POP JUMPDEST SWAP3 SWAP2 POP POP JUMP JUMPDEST PUSH0 PUSH2 0x25A8 DUP7 DUP7 DUP7 DUP7 DUP1 MLOAD SWAP1 PUSH1 0x20 ADD KECCAK256 PUSH2 0x195D JUMP JUMPDEST SWAP1 POP DUP5 MLOAD DUP7 MLOAD EQ ISZERO DUP1 PUSH2 0x25BD JUMPI POP DUP4 MLOAD DUP7 MLOAD EQ ISZERO JUMPDEST DUP1 PUSH2 0x25C8 JUMPI POP PUSH0 DUP7 MLOAD EQ JUMPDEST ISZERO PUSH2 0x2611 JUMPI DUP6 MLOAD DUP5 MLOAD DUP7 MLOAD PUSH1 0x40 MLOAD PUSH32 0x447B05D000000000000000000000000000000000000000000000000000000000 DUP2 MSTORE PUSH1 0x4 ADD PUSH2 0x2608 SWAP4 SWAP3 SWAP2 SWAP1 PUSH2 0x4844 JUMP JUMPDEST PUSH1 0x40 MLOAD DUP1 SWAP2 SUB SWAP1 REVERT JUMPDEST PUSH0 PUSH1 0x4 PUSH0 DUP4 DUP2 MSTORE PUSH1 0x20 ADD SWAP1 DUP2 MSTORE PUSH1 0x20 ADD PUSH0 KECCAK256 PUSH0 ADD PUSH1 0x14 SWAP1 SLOAD SWAP1 PUSH2 0x100 EXP SWAP1 DIV PUSH6 0xFFFFFFFFFFFF AND PUSH6 0xFFFFFFFFFFFF AND EQ PUSH2 0x2690 JUMPI DUP1 PUSH2 0x264F DUP3 PUSH2 0x1232 JUMP JUMPDEST PUSH0 PUSH0 SHL PUSH1 0x40 MLOAD PUSH32 0x31B75E4D00000000000000000000000000000000000000000000000000000000 DUP2 MSTORE PUSH1 0x4 ADD PUSH2 0x2687 SWAP4 SWAP3 SWAP2 SWAP1 PUSH2 0x58A6 JUMP JUMPDEST PUSH1 0x40 MLOAD DUP1 SWAP2 SUB SWAP1 REVERT JUMPDEST PUSH0 PUSH2 0x2699 PUSH2 0x1210 JUMP JUMPDEST PUSH2 0x26A1 PUSH2 0x18A9 JUMP JUMPDEST PUSH6 0xFFFFFFFFFFFF AND PUSH2 0x26B3 SWAP2 SWAP1 PUSH2 0x5AC4 JUMP JUMPDEST SWAP1 POP PUSH0 PUSH2 0x26BE PUSH2 0xD7A JUMP JUMPDEST SWAP1 POP PUSH0 PUSH1 0x4 PUSH0 DUP6 DUP2 MSTORE PUSH1 0x20 ADD SWAP1 DUP2 MSTORE PUSH1 0x20 ADD PUSH0 KECCAK256 SWAP1 POP DUP5 DUP2 PUSH0 ADD PUSH0 PUSH2 0x100 EXP DUP2 SLOAD DUP2 PUSH20 0xFFFFFFFFFFFFFFFFFFFFFFFFFFFFFFFFFFFFFFFF MUL NOT AND SWAP1 DUP4 PUSH20 0xFFFFFFFFFFFFFFFFFFFFFFFFFFFFFFFFFFFFFFFF AND MUL OR SWAP1 SSTORE POP PUSH2 0x271E DUP4 PUSH2 0x361E JUMP JUMPDEST DUP2 PUSH0 ADD PUSH1 0x14 PUSH2 0x100 EXP DUP2 SLOAD DUP2 PUSH6 0xFFFFFFFFFFFF MUL NOT AND SWAP1 DUP4 PUSH6 0xFFFFFFFFFFFF AND MUL OR SWAP1 SSTORE POP PUSH2 0x274C DUP3 PUSH2 0x3677 JUMP JUMPDEST DUP2 PUSH0 ADD PUSH1 0x1A PUSH2 0x100 EXP DUP2 SLOAD DUP2 PUSH4 0xFFFFFFFF MUL NOT AND SWAP1 DUP4 PUSH4 0xFFFFFFFF AND MUL OR SWAP1 SSTORE POP PUSH32 0x7D84A6263AE0D98D3329BD7B46BB4E8D6F98CD35A7ADB45C274C8B7FD5EBD5E0 DUP5 DUP7 DUP12 DUP12 DUP14 MLOAD PUSH8 0xFFFFFFFFFFFFFFFF DUP2 GT ISZERO PUSH2 0x27AD JUMPI PUSH2 0x27AC PUSH2 0x4239 JUMP JUMPDEST JUMPDEST PUSH1 0x40 MLOAD SWAP1 DUP1 DUP3 MSTORE DUP1 PUSH1 0x20 MUL PUSH1 0x20 ADD DUP3 ADD PUSH1 0x40 MSTORE DUP1 ISZERO PUSH2 0x27E0 JUMPI DUP2 PUSH1 0x20 ADD JUMPDEST PUSH1 0x60 DUP2 MSTORE PUSH1 0x20 ADD SWAP1 PUSH1 0x1 SWAP1 SUB SWAP1 DUP2 PUSH2 0x27CB JUMPI SWAP1 POP JUMPDEST POP DUP13 DUP10 DUP10 DUP12 PUSH2 0x27EF SWAP2 SWAP1 PUSH2 0x5AC4 JUMP JUMPDEST DUP15 PUSH1 0x40 MLOAD PUSH2 0x2805 SWAP10 SWAP9 SWAP8 SWAP7 SWAP6 SWAP5 SWAP4 SWAP3 SWAP2 SWAP1 PUSH2 0x5BFA JUMP JUMPDEST PUSH1 0x40 MLOAD DUP1 SWAP2 SUB SWAP1 LOG1 POP POP POP SWAP6 SWAP5 POP POP POP POP POP JUMP JUMPDEST PUSH1 0x60 PUSH2 0x284E PUSH0 PUSH32 0x0 PUSH2 0x36CE SWAP1 SWAP2 SWAP1 PUSH4 0xFFFFFFFF AND JUMP JUMPDEST SWAP1 POP SWAP1 JUMP JUMPDEST PUSH1 0x60 PUSH2 0x2889 PUSH1 0x1 PUSH32 0x0 PUSH2 0x36CE SWAP1 SWAP2 SWAP1 PUSH4 0xFFFFFFFF AND JUMP JUMPDEST SWAP1 POP SWAP1 JUMP JUMPDEST PUSH0 PUSH2 0x28F8 DUP4 PUSH2 0x28F2 PUSH32 0xF2AAD550CF55F045CB27E9C559F9889FDFB6E6CDAA032301D6EA397784AE51D7 DUP9 DUP9 DUP9 PUSH2 0x28C3 DUP11 PUSH2 0x31B7 JUMP JUMPDEST PUSH1 0x40 MLOAD PUSH1 0x20 ADD PUSH2 0x28D7 SWAP6 SWAP5 SWAP4 SWAP3 SWAP2 SWAP1 PUSH2 0x5CA8 JUMP JUMPDEST PUSH1 0x40 MLOAD PUSH1 0x20 DUP2 DUP4 SUB SUB DUP2 MSTORE SWAP1 PUSH1 0x40 MSTORE DUP1 MLOAD SWAP1 PUSH1 0x20 ADD KECCAK256 PUSH2 0x320A JUMP JUMPDEST DUP5 PUSH2 0x3223 JUMP JUMPDEST SWAP1 POP SWAP5 SWAP4 POP POP POP POP JUMP JUMPDEST PUSH0 PUSH2 0x290C NUMBER PUSH2 0x361E JUMP JUMPDEST SWAP1 POP SWAP1 JUMP JUMPDEST PUSH0 PUSH2 0x291A PUSH2 0x1CD3 JUMP JUMPDEST PUSH20 0xFFFFFFFFFFFFFFFFFFFFFFFFFFFFFFFFFFFFFFFF AND PUSH4 0x3A46B1A8 DUP6 DUP6 PUSH1 0x40 MLOAD DUP4 PUSH4 0xFFFFFFFF AND PUSH1 0xE0 SHL DUP2 MSTORE PUSH1 0x4 ADD PUSH2 0x2954 SWAP3 SWAP2 SWAP1 PUSH2 0x5CF9 JUMP JUMPDEST PUSH1 0x20 PUSH1 0x40 MLOAD DUP1 DUP4 SUB DUP2 DUP7 GAS STATICCALL ISZERO DUP1 ISZERO PUSH2 0x296F JUMPI RETURNDATASIZE PUSH0 PUSH0 RETURNDATACOPY RETURNDATASIZE PUSH0 REVERT JUMPDEST POP POP POP POP PUSH1 0x40 MLOAD RETURNDATASIZE PUSH1 0x1F NOT PUSH1 0x1F DUP3 ADD AND DUP3 ADD DUP1 PUSH1 0x40 MSTORE POP DUP2 ADD SWAP1 PUSH2 0x2993 SWAP2 SWAP1 PUSH2 0x5D34 JUMP JUMPDEST SWAP1 POP SWAP4 SWAP3 POP POP POP JUMP JUMPDEST PUSH32 0x8F74EA46EF7894F65EABFB5E6E695DE773A000B47C529AB559178069B226401 PUSH1 0xA PUSH0 SWAP1 SLOAD SWAP1 PUSH2 0x100 EXP SWAP1 DIV PUSH20 0xFFFFFFFFFFFFFFFFFFFFFFFFFFFFFFFFFFFFFFFF AND DUP3 PUSH1 0x40 MLOAD PUSH2 0x29EE SWAP3 SWAP2 SWAP1 PUSH2 0x5D5F JUMP JUMPDEST PUSH1 0x40 MLOAD DUP1 SWAP2 SUB SWAP1 LOG1 DUP1 PUSH1 0xA PUSH0 PUSH2 0x100 EXP DUP2 SLOAD DUP2 PUSH20 0xFFFFFFFFFFFFFFFFFFFFFFFFFFFFFFFFFFFFFFFF MUL NOT AND SWAP1 DUP4 PUSH20 0xFFFFFFFFFFFFFFFFFFFFFFFFFFFFFFFFFFFFFFFF AND MUL OR SWAP1 SSTORE POP POP JUMP JUMPDEST PUSH0 PUSH1 0x1 SWAP1 POP SWAP2 SWAP1 POP JUMP JUMPDEST PUSH0 PUSH1 0x7 SLOAD SWAP1 POP SWAP1 JUMP JUMPDEST PUSH1 0x60 DUP3 ISZERO PUSH2 0x2A5C JUMPI DUP2 SWAP1 POP PUSH2 0x2AA6 JUMP JUMPDEST PUSH0 DUP3 MLOAD GT ISZERO PUSH2 0x2A73 JUMPI PUSH2 0x2A6E DUP3 PUSH2 0x377B JUMP JUMPDEST PUSH2 0x2AA5 JUMP JUMPDEST PUSH1 0x40 MLOAD PUSH32 0xD6BDA27500000000000000000000000000000000000000000000000000000000 DUP2 MSTORE PUSH1 0x4 ADD PUSH1 0x40 MLOAD DUP1 SWAP2 SUB SWAP1 REVERT JUMPDEST JUMPDEST SWAP3 SWAP2 POP POP JUMP JUMPDEST PUSH0 DUP2 PUSH4 0xFFFFFFFF AND SUB PUSH2 0x2AF6 JUMPI PUSH0 PUSH1 0x40 MLOAD PUSH32 0xF1CFBF0500000000000000000000000000000000000000000000000000000000 DUP2 MSTORE PUSH1 0x4 ADD PUSH2 0x2AED SWAP2 SWAP1 PUSH2 0x5DBF JUMP JUMPDEST PUSH1 0x40 MLOAD DUP1 SWAP2 SUB SWAP1 REVERT JUMPDEST PUSH32 0x7E3F7F0708A84DE9203036ABAA450DCCC85AD5FF52F78C170F3EDB55CF5E8828 PUSH1 0x8 PUSH1 0x6 SWAP1 SLOAD SWAP1 PUSH2 0x100 EXP SWAP1 DIV PUSH4 0xFFFFFFFF AND DUP3 PUSH1 0x40 MLOAD PUSH2 0x2B39 SWAP3 SWAP2 SWAP1 PUSH2 0x5E08 JUMP JUMPDEST PUSH1 0x40 MLOAD DUP1 SWAP2 SUB SWAP1 LOG1 DUP1 PUSH1 0x8 PUSH1 0x6 PUSH2 0x100 EXP DUP2 SLOAD DUP2 PUSH4 0xFFFFFFFF MUL NOT AND SWAP1 DUP4 PUSH4 0xFFFFFFFF AND MUL OR SWAP1 SSTORE POP POP JUMP JUMPDEST PUSH1 0x60 PUSH1 0x40 MLOAD DUP1 PUSH1 0x20 ADD PUSH1 0x40 MSTORE DUP1 PUSH0 DUP2 MSTORE POP SWAP1 POP SWAP1 JUMP JUMPDEST PUSH32 0xCCB45DA8D5717E6C4544694297C4BA5CF151D455C9BB0ED4FC7A38411BC05461 PUSH1 0x7 SLOAD DUP3 PUSH1 0x40 MLOAD PUSH2 0x2BAE SWAP3 SWAP2 SWAP1 PUSH2 0x5E2F JUMP JUMPDEST PUSH1 0x40 MLOAD DUP1 SWAP2 SUB SWAP1 LOG1 DUP1 PUSH1 0x7 DUP2 SWAP1 SSTORE POP POP JUMP JUMPDEST PUSH0 PUSH0 PUSH1 0xA PUSH0 SWAP1 SLOAD SWAP1 PUSH2 0x100 EXP SWAP1 DIV PUSH20 0xFFFFFFFFFFFFFFFFFFFFFFFFFFFFFFFFFFFFFFFF AND PUSH20 0xFFFFFFFFFFFFFFFFFFFFFFFFFFFFFFFFFFFFFFFF AND PUSH4 0xF27A0C92 PUSH1 0x40 MLOAD DUP2 PUSH4 0xFFFFFFFF AND PUSH1 0xE0 SHL DUP2 MSTORE PUSH1 0x4 ADD PUSH1 0x20 PUSH1 0x40 MLOAD DUP1 DUP4 SUB DUP2 DUP7 GAS STATICCALL ISZERO DUP1 ISZERO PUSH2 0x2C2C JUMPI RETURNDATASIZE PUSH0 PUSH0 RETURNDATACOPY RETURNDATASIZE PUSH0 REVERT JUMPDEST POP POP POP POP PUSH1 0x40 MLOAD RETURNDATASIZE PUSH1 0x1F NOT PUSH1 0x1F DUP3 ADD AND DUP3 ADD DUP1 PUSH1 0x40 MSTORE POP DUP2 ADD SWAP1 PUSH2 0x2C50 SWAP2 SWAP1 PUSH2 0x5D34 JUMP JUMPDEST SWAP1 POP PUSH0 PUSH2 0x2C5C DUP5 PUSH2 0x3783 JUMP JUMPDEST SWAP1 POP PUSH1 0xA PUSH0 SWAP1 SLOAD SWAP1 PUSH2 0x100 EXP SWAP1 DIV PUSH20 0xFFFFFFFFFFFFFFFFFFFFFFFFFFFFFFFFFFFFFFFF AND PUSH20 0xFFFFFFFFFFFFFFFFFFFFFFFFFFFFFFFFFFFFFFFF AND PUSH4 0xB1C5F427 DUP9 DUP9 DUP9 PUSH0 DUP7 PUSH1 0x40 MLOAD DUP7 PUSH4 0xFFFFFFFF AND PUSH1 0xE0 SHL DUP2 MSTORE PUSH1 0x4 ADD PUSH2 0x2CC0 SWAP6 SWAP5 SWAP4 SWAP3 SWAP2 SWAP1 PUSH2 0x5E91 JUMP JUMPDEST PUSH1 0x20 PUSH1 0x40 MLOAD DUP1 DUP4 SUB DUP2 DUP7 GAS STATICCALL ISZERO DUP1 ISZERO PUSH2 0x2CDB JUMPI RETURNDATASIZE PUSH0 PUSH0 RETURNDATACOPY RETURNDATASIZE PUSH0 REVERT JUMPDEST POP POP POP POP PUSH1 0x40 MLOAD RETURNDATASIZE PUSH1 0x1F NOT PUSH1 0x1F DUP3 ADD AND DUP3 ADD DUP1 PUSH1 0x40 MSTORE POP DUP2 ADD SWAP1 PUSH2 0x2CFF SWAP2 SWAP1 PUSH2 0x5F0B JUMP JUMPDEST PUSH1 0xB PUSH0 DUP11 DUP2 MSTORE PUSH1 0x20 ADD SWAP1 DUP2 MSTORE PUSH1 0x20 ADD PUSH0 KECCAK256 DUP2 SWAP1 SSTORE POP PUSH1 0xA PUSH0 SWAP1 SLOAD SWAP1 PUSH2 0x100 EXP SWAP1 DIV PUSH20 0xFFFFFFFFFFFFFFFFFFFFFFFFFFFFFFFFFFFFFFFF AND PUSH20 0xFFFFFFFFFFFFFFFFFFFFFFFFFFFFFFFFFFFFFFFF AND PUSH4 0x8F2A0BB0 DUP9 DUP9 DUP9 PUSH0 DUP7 DUP9 PUSH1 0x40 MLOAD DUP8 PUSH4 0xFFFFFFFF AND PUSH1 0xE0 SHL DUP2 MSTORE PUSH1 0x4 ADD PUSH2 0x2D78 SWAP7 SWAP6 SWAP5 SWAP4 SWAP3 SWAP2 SWAP1 PUSH2 0x5F36 JUMP JUMPDEST PUSH0 PUSH1 0x40 MLOAD DUP1 DUP4 SUB DUP2 PUSH0 DUP8 DUP1 EXTCODESIZE ISZERO DUP1 ISZERO PUSH2 0x2D8F JUMPI PUSH0 PUSH0 REVERT JUMPDEST POP GAS CALL ISZERO DUP1 ISZERO PUSH2 0x2DA1 JUMPI RETURNDATASIZE PUSH0 PUSH0 RETURNDATACOPY RETURNDATASIZE PUSH0 REVERT JUMPDEST POP POP POP POP PUSH2 0x2DB9 DUP3 TIMESTAMP PUSH2 0x2DB4 SWAP2 SWAP1 PUSH2 0x5AC4 JUMP JUMPDEST PUSH2 0x361E JUMP JUMPDEST SWAP3 POP POP POP SWAP6 SWAP5 POP POP POP POP POP JUMP JUMPDEST PUSH0 PUSH0 DUP4 PUSH0 ADD PUSH1 0x10 SWAP1 SLOAD SWAP1 PUSH2 0x100 EXP SWAP1 DIV PUSH16 0xFFFFFFFFFFFFFFFFFFFFFFFFFFFFFFFF AND SWAP1 POP DUP4 PUSH0 ADD PUSH0 SWAP1 SLOAD SWAP1 PUSH2 0x100 EXP SWAP1 DIV PUSH16 0xFFFFFFFFFFFFFFFFFFFFFFFFFFFFFFFF AND PUSH16 0xFFFFFFFFFFFFFFFFFFFFFFFFFFFFFFFF AND PUSH1 0x1 DUP3 ADD PUSH16 0xFFFFFFFFFFFFFFFFFFFFFFFFFFFFFFFF AND SUB PUSH2 0x2E3F JUMPI PUSH0 SWAP2 POP POP PUSH2 0x2EBE JUMP JUMPDEST DUP3 DUP5 PUSH1 0x1 ADD PUSH0 DUP4 PUSH16 0xFFFFFFFFFFFFFFFFFFFFFFFFFFFFFFFF AND PUSH16 0xFFFFFFFFFFFFFFFFFFFFFFFFFFFFFFFF AND DUP2 MSTORE PUSH1 0x20 ADD SWAP1 DUP2 MSTORE PUSH1 0x20 ADD PUSH0 KECCAK256 DUP2 SWAP1 SSTORE POP PUSH1 0x1 DUP2 ADD DUP5 PUSH0 ADD PUSH1 0x10 PUSH2 0x100 EXP DUP2 SLOAD DUP2 PUSH16 0xFFFFFFFFFFFFFFFFFFFFFFFFFFFFFFFF MUL NOT AND SWAP1 DUP4 PUSH16 0xFFFFFFFFFFFFFFFFFFFFFFFFFFFFFFFF AND MUL OR SWAP1 SSTORE POP PUSH1 0x1 SWAP2 POP POP JUMPDEST SWAP3 SWAP2 POP POP JUMP JUMPDEST PUSH4 0x4E487B71 PUSH0 MSTORE DUP1 PUSH1 0x20 MSTORE PUSH1 0x24 PUSH1 0x1C REVERT JUMPDEST PUSH1 0xA PUSH0 SWAP1 SLOAD SWAP1 PUSH2 0x100 EXP SWAP1 DIV PUSH20 0xFFFFFFFFFFFFFFFFFFFFFFFFFFFFFFFFFFFFFFFF AND PUSH20 0xFFFFFFFFFFFFFFFFFFFFFFFFFFFFFFFFFFFFFFFF AND PUSH4 0xE38335E5 CALLVALUE DUP7 DUP7 DUP7 PUSH0 PUSH2 0x2F20 DUP9 PUSH2 0x3783 JUMP JUMPDEST PUSH1 0x40 MLOAD DUP8 PUSH4 0xFFFFFFFF AND PUSH1 0xE0 SHL DUP2 MSTORE PUSH1 0x4 ADD PUSH2 0x2F40 SWAP6 SWAP5 SWAP4 SWAP3 SWAP2 SWAP1 PUSH2 0x5E91 JUMP JUMPDEST PUSH0 PUSH1 0x40 MLOAD DUP1 DUP4 SUB DUP2 DUP6 DUP9 DUP1 EXTCODESIZE ISZERO DUP1 ISZERO PUSH2 0x2F57 JUMPI PUSH0 PUSH0 REVERT JUMPDEST POP GAS CALL ISZERO DUP1 ISZERO PUSH2 0x2F69 JUMPI RETURNDATASIZE PUSH0 PUSH0 RETURNDATACOPY RETURNDATASIZE PUSH0 REVERT JUMPDEST POP POP POP POP POP PUSH1 0xB PUSH0 DUP7 DUP2 MSTORE PUSH1 0x20 ADD SWAP1 DUP2 MSTORE PUSH1 0x20 ADD PUSH0 KECCAK256 PUSH0 SWAP1 SSTORE POP POP POP POP POP JUMP JUMPDEST PUSH0 PUSH0 PUSH1 0x4 PUSH0 DUP5 DUP2 MSTORE PUSH1 0x20 ADD SWAP1 DUP2 MSTORE PUSH1 0x20 ADD PUSH0 KECCAK256 SWAP1 POP PUSH0 DUP2 PUSH0 ADD PUSH1 0x1E SWAP1 SLOAD SWAP1 PUSH2 0x100 EXP SWAP1 DIV PUSH1 0xFF AND SWAP1 POP PUSH0 DUP3 PUSH0 ADD PUSH1 0x1F SWAP1 SLOAD SWAP1 PUSH2 0x100 EXP SWAP1 DIV PUSH1 0xFF AND SWAP1 POP DUP2 ISZERO PUSH2 0x2FD8 JUMPI PUSH1 0x7 SWAP4 POP POP POP POP PUSH2 0x30DB JUMP JUMPDEST DUP1 ISZERO PUSH2 0x2FEA JUMPI PUSH1 0x2 SWAP4 POP POP POP POP PUSH2 0x30DB JUMP JUMPDEST PUSH0 PUSH2 0x2FF4 DUP7 PUSH2 0x11B6 JUMP JUMPDEST SWAP1 POP PUSH0 DUP2 SUB PUSH2 0x303A JUMPI DUP6 PUSH1 0x40 MLOAD PUSH32 0x6AD0607500000000000000000000000000000000000000000000000000000000 DUP2 MSTORE PUSH1 0x4 ADD PUSH2 0x3031 SWAP2 SWAP1 PUSH2 0x40B1 JUMP JUMPDEST PUSH1 0x40 MLOAD DUP1 SWAP2 SUB SWAP1 REVERT JUMPDEST PUSH0 PUSH2 0x3043 PUSH2 0x18A9 JUMP JUMPDEST PUSH6 0xFFFFFFFFFFFF AND SWAP1 POP DUP1 DUP3 LT PUSH2 0x3061 JUMPI PUSH0 SWAP6 POP POP POP POP POP POP PUSH2 0x30DB JUMP JUMPDEST PUSH0 PUSH2 0x306B DUP9 PUSH2 0x1A49 JUMP JUMPDEST SWAP1 POP DUP2 DUP2 LT PUSH2 0x3083 JUMPI PUSH1 0x1 SWAP7 POP POP POP POP POP POP POP PUSH2 0x30DB JUMP JUMPDEST PUSH2 0x308C DUP9 PUSH2 0x37A0 JUMP JUMPDEST ISZERO DUP1 PUSH2 0x309E JUMPI POP PUSH2 0x309C DUP9 PUSH2 0x37E4 JUMP JUMPDEST ISZERO JUMPDEST ISZERO PUSH2 0x30B2 JUMPI PUSH1 0x3 SWAP7 POP POP POP POP POP POP POP PUSH2 0x30DB JUMP JUMPDEST PUSH0 PUSH2 0x30BC DUP10 PUSH2 0x1985 JUMP JUMPDEST SUB PUSH2 0x30D0 JUMPI PUSH1 0x4 SWAP7 POP POP POP POP POP POP POP PUSH2 0x30DB JUMP JUMPDEST PUSH1 0x5 SWAP7 POP POP POP POP POP POP POP JUMPDEST SWAP2 SWAP1 POP JUMP JUMPDEST PUSH0 PUSH0 PUSH2 0x30EE DUP7 DUP7 DUP7 DUP7 PUSH2 0x380B JUMP JUMPDEST SWAP1 POP PUSH0 PUSH1 0xB PUSH0 DUP4 DUP2 MSTORE PUSH1 0x20 ADD SWAP1 DUP2 MSTORE PUSH1 0x20 ADD PUSH0 KECCAK256 SLOAD SWAP1 POP PUSH0 PUSH0 SHL DUP2 EQ PUSH2 0x31AA JUMPI PUSH1 0xA PUSH0 SWAP1 SLOAD SWAP1 PUSH2 0x100 EXP SWAP1 DIV PUSH20 0xFFFFFFFFFFFFFFFFFFFFFFFFFFFFFFFFFFFFFFFF AND PUSH20 0xFFFFFFFFFFFFFFFFFFFFFFFFFFFFFFFFFFFFFFFF AND PUSH4 0xC4D252F5 DUP3 PUSH1 0x40 MLOAD DUP3 PUSH4 0xFFFFFFFF AND PUSH1 0xE0 SHL DUP2 MSTORE PUSH1 0x4 ADD PUSH2 0x3168 SWAP2 SWAP1 PUSH2 0x4761 JUMP JUMPDEST PUSH0 PUSH1 0x40 MLOAD DUP1 DUP4 SUB DUP2 PUSH0 DUP8 DUP1 EXTCODESIZE ISZERO DUP1 ISZERO PUSH2 0x317F JUMPI PUSH0 PUSH0 REVERT JUMPDEST POP GAS CALL ISZERO DUP1 ISZERO PUSH2 0x3191 JUMPI RETURNDATASIZE PUSH0 PUSH0 RETURNDATACOPY RETURNDATASIZE PUSH0 REVERT JUMPDEST POP POP POP POP PUSH1 0xB PUSH0 DUP4 DUP2 MSTORE PUSH1 0x20 ADD SWAP1 DUP2 MSTORE PUSH1 0x20 ADD PUSH0 KECCAK256 PUSH0 SWAP1 SSTORE JUMPDEST DUP2 SWAP3 POP POP POP SWAP5 SWAP4 POP POP POP POP JUMP JUMPDEST PUSH0 PUSH1 0x2 PUSH0 DUP4 PUSH20 0xFFFFFFFFFFFFFFFFFFFFFFFFFFFFFFFFFFFFFFFF AND PUSH20 0xFFFFFFFFFFFFFFFFFFFFFFFFFFFFFFFFFFFFFFFF AND DUP2 MSTORE PUSH1 0x20 ADD SWAP1 DUP2 MSTORE PUSH1 0x20 ADD PUSH0 KECCAK256 PUSH0 DUP2 SLOAD DUP1 SWAP3 SWAP2 SWAP1 PUSH1 0x1 ADD SWAP2 SWAP1 POP SSTORE SWAP1 POP SWAP2 SWAP1 POP JUMP JUMPDEST PUSH0 PUSH2 0x321C PUSH2 0x3216 PUSH2 0x38ED JUMP JUMPDEST DUP4 PUSH2 0x39A3 JUMP JUMPDEST SWAP1 POP SWAP2 SWAP1 POP JUMP JUMPDEST PUSH0 PUSH0 DUP5 PUSH20 0xFFFFFFFFFFFFFFFFFFFFFFFFFFFFFFFFFFFFFFFF AND EXTCODESIZE SUB PUSH2 0x32BA JUMPI PUSH0 PUSH0 PUSH2 0x324E DUP6 DUP6 PUSH2 0x39E3 JUMP JUMPDEST POP SWAP2 POP SWAP2 POP PUSH0 PUSH1 0x3 DUP2 GT ISZERO PUSH2 0x3266 JUMPI PUSH2 0x3265 PUSH2 0x477A JUMP JUMPDEST JUMPDEST DUP2 PUSH1 0x3 DUP2 GT ISZERO PUSH2 0x3279 JUMPI PUSH2 0x3278 PUSH2 0x477A JUMP JUMPDEST JUMPDEST EQ DUP1 ISZERO PUSH2 0x32B1 JUMPI POP DUP6 PUSH20 0xFFFFFFFFFFFFFFFFFFFFFFFFFFFFFFFFFFFFFFFF AND DUP3 PUSH20 0xFFFFFFFFFFFFFFFFFFFFFFFFFFFFFFFFFFFFFFFF AND EQ JUMPDEST SWAP3 POP POP POP PUSH2 0x32C8 JUMP JUMPDEST PUSH2 0x32C5 DUP5 DUP5 DUP5 PUSH2 0x3A38 JUMP JUMPDEST SWAP1 POP JUMPDEST SWAP4 SWAP3 POP POP POP JUMP JUMPDEST PUSH0 PUSH0 PUSH1 0x9 PUSH0 DUP9 DUP2 MSTORE PUSH1 0x20 ADD SWAP1 DUP2 MSTORE PUSH1 0x20 ADD PUSH0 KECCAK256 SWAP1 POP DUP1 PUSH1 0x3 ADD PUSH0 DUP8 PUSH20 0xFFFFFFFFFFFFFFFFFFFFFFFFFFFFFFFFFFFFFFFF AND PUSH20 0xFFFFFFFFFFFFFFFFFFFFFFFFFFFFFFFFFFFFFFFF AND DUP2 MSTORE PUSH1 0x20 ADD SWAP1 DUP2 MSTORE PUSH1 0x20 ADD PUSH0 KECCAK256 PUSH0 SWAP1 SLOAD SWAP1 PUSH2 0x100 EXP SWAP1 DIV PUSH1 0xFF AND ISZERO PUSH2 0x3372 JUMPI DUP6 PUSH1 0x40 MLOAD PUSH32 0x71C6AF4900000000000000000000000000000000000000000000000000000000 DUP2 MSTORE PUSH1 0x4 ADD PUSH2 0x3369 SWAP2 SWAP1 PUSH2 0x41EE JUMP JUMPDEST PUSH1 0x40 MLOAD DUP1 SWAP2 SUB SWAP1 REVERT JUMPDEST PUSH1 0x1 DUP2 PUSH1 0x3 ADD PUSH0 DUP9 PUSH20 0xFFFFFFFFFFFFFFFFFFFFFFFFFFFFFFFFFFFFFFFF AND PUSH20 0xFFFFFFFFFFFFFFFFFFFFFFFFFFFFFFFFFFFFFFFF AND DUP2 MSTORE PUSH1 0x20 ADD SWAP1 DUP2 MSTORE PUSH1 0x20 ADD PUSH0 KECCAK256 PUSH0 PUSH2 0x100 EXP DUP2 SLOAD DUP2 PUSH1 0xFF MUL NOT AND SWAP1 DUP4 ISZERO ISZERO MUL OR SWAP1 SSTORE POP PUSH0 PUSH1 0x2 DUP2 GT ISZERO PUSH2 0x33DC JUMPI PUSH2 0x33DB PUSH2 0x477A JUMP JUMPDEST JUMPDEST PUSH1 0xFF AND DUP6 PUSH1 0xFF AND SUB PUSH2 0x3406 JUMPI DUP4 DUP2 PUSH0 ADD PUSH0 DUP3 DUP3 SLOAD PUSH2 0x33FA SWAP2 SWAP1 PUSH2 0x5AC4 JUMP JUMPDEST SWAP3 POP POP DUP2 SWAP1 SSTORE POP PUSH2 0x34B7 JUMP JUMPDEST PUSH1 0x1 PUSH1 0x2 DUP2 GT ISZERO PUSH2 0x341A JUMPI PUSH2 0x3419 PUSH2 0x477A JUMP JUMPDEST JUMPDEST PUSH1 0xFF AND DUP6 PUSH1 0xFF AND SUB PUSH2 0x3445 JUMPI DUP4 DUP2 PUSH1 0x1 ADD PUSH0 DUP3 DUP3 SLOAD PUSH2 0x3439 SWAP2 SWAP1 PUSH2 0x5AC4 JUMP JUMPDEST SWAP3 POP POP DUP2 SWAP1 SSTORE POP PUSH2 0x34B6 JUMP JUMPDEST PUSH1 0x2 DUP1 DUP2 GT ISZERO PUSH2 0x3458 JUMPI PUSH2 0x3457 PUSH2 0x477A JUMP JUMPDEST JUMPDEST PUSH1 0xFF AND DUP6 PUSH1 0xFF AND SUB PUSH2 0x3483 JUMPI DUP4 DUP2 PUSH1 0x2 ADD PUSH0 DUP3 DUP3 SLOAD PUSH2 0x3477 SWAP2 SWAP1 PUSH2 0x5AC4 JUMP JUMPDEST SWAP3 POP POP DUP2 SWAP1 SSTORE POP PUSH2 0x34B5 JUMP JUMPDEST PUSH1 0x40 MLOAD PUSH32 0x6B337C200000000000000000000000000000000000000000000000000000000 DUP2 MSTORE PUSH1 0x4 ADD PUSH1 0x40 MLOAD DUP1 SWAP2 SUB SWAP1 REVERT JUMPDEST JUMPDEST JUMPDEST DUP4 SWAP2 POP POP SWAP6 SWAP5 POP POP POP POP POP JUMP JUMPDEST POP JUMP JUMPDEST CALLDATASIZE PUSH0 PUSH0 CALLDATASIZE SWAP2 POP SWAP2 POP SWAP1 SWAP2 JUMP JUMPDEST PUSH0 PUSH0 PUSH0 PUSH2 0x34DF DUP5 PUSH2 0x3A89 JUMP JUMPDEST SWAP2 POP SWAP2 POP DUP2 PUSH2 0x34F3 JUMPI PUSH2 0x34F2 PUSH1 0x31 PUSH2 0x2EC4 JUMP JUMPDEST JUMPDEST DUP1 SWAP3 POP POP POP SWAP2 SWAP1 POP JUMP JUMPDEST PUSH0 DUP2 PUSH1 0x20 DUP5 ADD ADD MLOAD SWAP1 POP SWAP3 SWAP2 POP POP JUMP JUMPDEST PUSH0 PUSH0 DUP5 MLOAD DUP4 GT DUP1 PUSH2 0x351D JUMPI POP DUP3 DUP5 GT JUMPDEST ISZERO PUSH2 0x352D JUMPI PUSH0 PUSH0 SWAP2 POP SWAP2 POP PUSH2 0x3616 JUMP JUMPDEST PUSH0 PUSH1 0x1 DUP6 PUSH2 0x353B SWAP2 SWAP1 PUSH2 0x5AC4 JUMP JUMPDEST DUP5 GT DUP1 ISZERO PUSH2 0x35B3 JUMPI POP PUSH32 0x3078000000000000000000000000000000000000000000000000000000000000 PUSH30 0xFFFFFFFFFFFFFFFFFFFFFFFFFFFFFFFFFFFFFFFFFFFFFFFFFFFFFFFFFFFF NOT AND PUSH2 0x3590 DUP8 DUP8 PUSH2 0x3BC0 JUMP JUMPDEST PUSH30 0xFFFFFFFFFFFFFFFFFFFFFFFFFFFFFFFFFFFFFFFFFFFFFFFFFFFFFFFFFFFF NOT AND EQ JUMPDEST SWAP1 POP PUSH0 PUSH1 0x2 PUSH2 0x35C3 DUP4 ISZERO ISZERO PUSH2 0x3BD0 JUMP JUMPDEST PUSH2 0x35CD SWAP2 SWAP1 PUSH2 0x5FAA JUMP JUMPDEST PUSH1 0x28 PUSH2 0x35D9 SWAP2 SWAP1 PUSH2 0x5AC4 JUMP JUMPDEST SWAP1 POP DUP1 DUP7 DUP7 PUSH2 0x35E8 SWAP2 SWAP1 PUSH2 0x5FEB JUMP JUMPDEST SUB PUSH2 0x360D JUMPI PUSH0 PUSH0 PUSH2 0x35FA DUP10 DUP10 DUP10 PUSH2 0x3BDB JUMP JUMPDEST SWAP2 POP SWAP2 POP DUP2 DUP2 SWAP6 POP SWAP6 POP POP POP POP POP PUSH2 0x3616 JUMP JUMPDEST PUSH0 PUSH0 SWAP4 POP SWAP4 POP POP POP JUMPDEST SWAP4 POP SWAP4 SWAP2 POP POP JUMP JUMPDEST PUSH0 PUSH6 0xFFFFFFFFFFFF DUP1 AND DUP3 GT ISZERO PUSH2 0x366F JUMPI PUSH1 0x30 DUP3 PUSH1 0x40 MLOAD PUSH32 0x6DFCC65000000000000000000000000000000000000000000000000000000000 DUP2 MSTORE PUSH1 0x4 ADD PUSH2 0x3666 SWAP3 SWAP2 SWAP1 PUSH2 0x6057 JUMP JUMPDEST PUSH1 0x40 MLOAD DUP1 SWAP2 SUB SWAP1 REVERT JUMPDEST DUP2 SWAP1 POP SWAP2 SWAP1 POP JUMP JUMPDEST PUSH0 PUSH4 0xFFFFFFFF DUP1 AND DUP3 GT ISZERO PUSH2 0x36C6 JUMPI PUSH1 0x20 DUP3 PUSH1 0x40 MLOAD PUSH32 0x6DFCC65000000000000000000000000000000000000000000000000000000000 DUP2 MSTORE PUSH1 0x4 ADD PUSH2 0x36BD SWAP3 SWAP2 SWAP1 PUSH2 0x60B7 JUMP JUMPDEST PUSH1 0x40 MLOAD DUP1 SWAP2 SUB SWAP1 REVERT JUMPDEST DUP2 SWAP1 POP SWAP2 SWAP1 POP JUMP JUMPDEST PUSH1 0x60 PUSH1 0xFF PUSH0 SHL DUP4 EQ PUSH2 0x36EA JUMPI PUSH2 0x36E3 DUP4 PUSH2 0x3D09 JUMP JUMPDEST SWAP1 POP PUSH2 0x3775 JUMP JUMPDEST DUP2 DUP1 SLOAD PUSH2 0x36F6 SWAP1 PUSH2 0x53A1 JUMP JUMPDEST DUP1 PUSH1 0x1F ADD PUSH1 0x20 DUP1 SWAP2 DIV MUL PUSH1 0x20 ADD PUSH1 0x40 MLOAD SWAP1 DUP2 ADD PUSH1 0x40 MSTORE DUP1 SWAP3 SWAP2 SWAP1 DUP2 DUP2 MSTORE PUSH1 0x20 ADD DUP3 DUP1 SLOAD PUSH2 0x3722 SWAP1 PUSH2 0x53A1 JUMP JUMPDEST DUP1 ISZERO PUSH2 0x376D JUMPI DUP1 PUSH1 0x1F LT PUSH2 0x3744 JUMPI PUSH2 0x100 DUP1 DUP4 SLOAD DIV MUL DUP4 MSTORE SWAP2 PUSH1 0x20 ADD SWAP2 PUSH2 0x376D JUMP JUMPDEST DUP3 ADD SWAP2 SWAP1 PUSH0 MSTORE PUSH1 0x20 PUSH0 KECCAK256 SWAP1 JUMPDEST DUP2 SLOAD DUP2 MSTORE SWAP1 PUSH1 0x1 ADD SWAP1 PUSH1 0x20 ADD DUP1 DUP4 GT PUSH2 0x3750 JUMPI DUP3 SWAP1 SUB PUSH1 0x1F AND DUP3 ADD SWAP2 JUMPDEST POP POP POP POP POP SWAP1 POP JUMPDEST SWAP3 SWAP2 POP POP JUMP JUMPDEST DUP1 MLOAD PUSH1 0x20 DUP3 ADD REVERT JUMPDEST PUSH0 DUP2 ADDRESS PUSH1 0x60 SHL PUSH12 0xFFFFFFFFFFFFFFFFFFFFFFFF NOT AND XOR SWAP1 POP SWAP2 SWAP1 POP JUMP JUMPDEST PUSH0 PUSH0 PUSH1 0x9 PUSH0 DUP5 DUP2 MSTORE PUSH1 0x20 ADD SWAP1 DUP2 MSTORE PUSH1 0x20 ADD PUSH0 KECCAK256 SWAP1 POP DUP1 PUSH1 0x2 ADD SLOAD DUP2 PUSH1 0x1 ADD SLOAD PUSH2 0x37C9 SWAP2 SWAP1 PUSH2 0x5AC4 JUMP JUMPDEST PUSH2 0x37DA PUSH2 0x37D5 DUP6 PUSH2 0x11B6 JUMP JUMPDEST PUSH2 0x1CC2 JUMP JUMPDEST GT ISZERO SWAP2 POP POP SWAP2 SWAP1 POP JUMP JUMPDEST PUSH0 PUSH0 PUSH1 0x9 PUSH0 DUP5 DUP2 MSTORE PUSH1 0x20 ADD SWAP1 DUP2 MSTORE PUSH1 0x20 ADD PUSH0 KECCAK256 SWAP1 POP DUP1 PUSH0 ADD SLOAD DUP2 PUSH1 0x1 ADD SLOAD GT SWAP2 POP POP SWAP2 SWAP1 POP JUMP JUMPDEST PUSH0 PUSH0 PUSH2 0x3819 DUP7 DUP7 DUP7 DUP7 PUSH2 0x195D JUMP JUMPDEST SWAP1 POP PUSH2 0x387D DUP2 PUSH2 0x3829 PUSH1 0x7 PUSH2 0x1D8B JUMP JUMPDEST PUSH2 0x3833 PUSH1 0x6 PUSH2 0x1D8B JUMP JUMPDEST PUSH2 0x383D PUSH1 0x2 PUSH2 0x1D8B JUMP JUMPDEST PUSH1 0x1 DUP1 PUSH1 0x7 DUP1 DUP2 GT ISZERO PUSH2 0x3853 JUMPI PUSH2 0x3852 PUSH2 0x477A JUMP JUMPDEST JUMPDEST PUSH2 0x385D SWAP2 SWAP1 PUSH2 0x60DE JUMP JUMPDEST PUSH1 0x2 PUSH2 0x3869 SWAP2 SWAP1 PUSH2 0x6241 JUMP JUMPDEST PUSH2 0x3873 SWAP2 SWAP1 PUSH2 0x5FEB JUMP JUMPDEST PUSH0 SHL XOR XOR XOR PUSH2 0x1DAF JUMP JUMPDEST POP PUSH1 0x1 PUSH1 0x4 PUSH0 DUP4 DUP2 MSTORE PUSH1 0x20 ADD SWAP1 DUP2 MSTORE PUSH1 0x20 ADD PUSH0 KECCAK256 PUSH0 ADD PUSH1 0x1F PUSH2 0x100 EXP DUP2 SLOAD DUP2 PUSH1 0xFF MUL NOT AND SWAP1 DUP4 ISZERO ISZERO MUL OR SWAP1 SSTORE POP PUSH32 0x789CF55BE980739DAD1D0699B93B58E806B51C9D96619BFA8FE0A28ABAA7B30C DUP2 PUSH1 0x40 MLOAD PUSH2 0x38D9 SWAP2 SWAP1 PUSH2 0x40B1 JUMP JUMPDEST PUSH1 0x40 MLOAD DUP1 SWAP2 SUB SWAP1 LOG1 DUP1 SWAP2 POP POP SWAP5 SWAP4 POP POP POP POP JUMP JUMPDEST PUSH0 PUSH32 0x0 PUSH20 0xFFFFFFFFFFFFFFFFFFFFFFFFFFFFFFFFFFFFFFFF AND ADDRESS PUSH20 0xFFFFFFFFFFFFFFFFFFFFFFFFFFFFFFFFFFFFFFFF AND EQ DUP1 ISZERO PUSH2 0x3968 JUMPI POP PUSH32 0x0 CHAINID EQ JUMPDEST ISZERO PUSH2 0x3995 JUMPI PUSH32 0x0 SWAP1 POP PUSH2 0x39A0 JUMP JUMPDEST PUSH2 0x399D PUSH2 0x3D7B JUMP JUMPDEST SWAP1 POP JUMPDEST SWAP1 JUMP JUMPDEST PUSH0 PUSH1 0x40 MLOAD PUSH32 0x1901000000000000000000000000000000000000000000000000000000000000 DUP2 MSTORE DUP4 PUSH1 0x2 DUP3 ADD MSTORE DUP3 PUSH1 0x22 DUP3 ADD MSTORE PUSH1 0x42 DUP2 KECCAK256 SWAP2 POP POP SWAP3 SWAP2 POP POP JUMP JUMPDEST PUSH0 PUSH0 PUSH0 PUSH1 0x41 DUP5 MLOAD SUB PUSH2 0x3A23 JUMPI PUSH0 PUSH0 PUSH0 PUSH1 0x20 DUP8 ADD MLOAD SWAP3 POP PUSH1 0x40 DUP8 ADD MLOAD SWAP2 POP PUSH1 0x60 DUP8 ADD MLOAD PUSH0 BYTE SWAP1 POP PUSH2 0x3A15 DUP9 DUP3 DUP6 DUP6 PUSH2 0x3E10 JUMP JUMPDEST SWAP6 POP SWAP6 POP SWAP6 POP POP POP POP PUSH2 0x3A31 JUMP JUMPDEST PUSH0 PUSH1 0x2 DUP6 MLOAD PUSH0 SHL SWAP3 POP SWAP3 POP SWAP3 POP JUMPDEST SWAP3 POP SWAP3 POP SWAP3 JUMP JUMPDEST PUSH0 PUSH0 PUSH4 0x1626BA7E PUSH1 0xE0 SHL SWAP1 POP PUSH0 DUP4 MLOAD SWAP1 POP PUSH1 0x40 MLOAD DUP3 DUP2 MSTORE DUP6 PUSH1 0x4 DUP3 ADD MSTORE PUSH1 0x40 PUSH1 0x24 DUP3 ADD MSTORE PUSH1 0x20 DUP3 ADD DUP6 PUSH1 0x44 DUP4 ADD MCOPY PUSH1 0x20 PUSH0 PUSH1 0x64 DUP5 ADD DUP4 DUP11 GAS STATICCALL DUP4 PUSH0 MLOAD EQ PUSH1 0x1F RETURNDATASIZE GT AND DUP2 AND SWAP5 POP POP POP POP POP SWAP4 SWAP3 POP POP POP JUMP JUMPDEST PUSH0 PUSH0 PUSH0 DUP4 PUSH0 ADD PUSH0 SWAP1 SLOAD SWAP1 PUSH2 0x100 EXP SWAP1 DIV PUSH16 0xFFFFFFFFFFFFFFFFFFFFFFFFFFFFFFFF AND SWAP1 POP DUP4 PUSH0 ADD PUSH1 0x10 SWAP1 SLOAD SWAP1 PUSH2 0x100 EXP SWAP1 DIV PUSH16 0xFFFFFFFFFFFFFFFFFFFFFFFFFFFFFFFF AND PUSH16 0xFFFFFFFFFFFFFFFFFFFFFFFFFFFFFFFF AND DUP2 PUSH16 0xFFFFFFFFFFFFFFFFFFFFFFFFFFFFFFFF AND SUB PUSH2 0x3B05 JUMPI PUSH0 PUSH0 PUSH0 SHL SWAP3 POP SWAP3 POP POP PUSH2 0x3BBB JUMP JUMPDEST PUSH1 0x1 SWAP3 POP DUP4 PUSH1 0x1 ADD PUSH0 DUP3 PUSH16 0xFFFFFFFFFFFFFFFFFFFFFFFFFFFFFFFF AND PUSH16 0xFFFFFFFFFFFFFFFFFFFFFFFFFFFFFFFF AND DUP2 MSTORE PUSH1 0x20 ADD SWAP1 DUP2 MSTORE PUSH1 0x20 ADD PUSH0 KECCAK256 SLOAD SWAP2 POP DUP4 PUSH1 0x1 ADD PUSH0 DUP3 PUSH16 0xFFFFFFFFFFFFFFFFFFFFFFFFFFFFFFFF AND PUSH16 0xFFFFFFFFFFFFFFFFFFFFFFFFFFFFFFFF AND DUP2 MSTORE PUSH1 0x20 ADD SWAP1 DUP2 MSTORE PUSH1 0x20 ADD PUSH0 KECCAK256 PUSH0 SWAP1 SSTORE PUSH1 0x1 DUP2 ADD DUP5 PUSH0 ADD PUSH0 PUSH2 0x100 EXP DUP2 SLOAD DUP2 PUSH16 0xFFFFFFFFFFFFFFFFFFFFFFFFFFFFFFFF MUL NOT AND SWAP1 DUP4 PUSH16 0xFFFFFFFFFFFFFFFFFFFFFFFFFFFFFFFF AND MUL OR SWAP1 SSTORE POP POP JUMPDEST SWAP2 POP SWAP2 JUMP JUMPDEST PUSH0 DUP2 PUSH1 0x20 DUP5 ADD ADD MLOAD SWAP1 POP SWAP3 SWAP2 POP POP JUMP JUMPDEST PUSH0 DUP2 ISZERO ISZERO SWAP1 POP SWAP2 SWAP1 POP JUMP JUMPDEST PUSH0 PUSH0 PUSH0 DUP6 SWAP1 POP PUSH0 PUSH1 0x1 DUP7 PUSH2 0x3BEF SWAP2 SWAP1 PUSH2 0x5AC4 JUMP JUMPDEST DUP6 GT DUP1 ISZERO PUSH2 0x3C67 JUMPI POP PUSH32 0x3078000000000000000000000000000000000000000000000000000000000000 PUSH30 0xFFFFFFFFFFFFFFFFFFFFFFFFFFFFFFFFFFFFFFFFFFFFFFFFFFFFFFFFFFFF NOT AND PUSH2 0x3C44 DUP4 DUP9 PUSH2 0x3BC0 JUMP JUMPDEST PUSH30 0xFFFFFFFFFFFFFFFFFFFFFFFFFFFFFFFFFFFFFFFFFFFFFFFFFFFFFFFFFFFF NOT AND EQ JUMPDEST SWAP1 POP PUSH0 PUSH1 0x2 PUSH2 0x3C77 DUP4 ISZERO ISZERO PUSH2 0x3BD0 JUMP JUMPDEST PUSH2 0x3C81 SWAP2 SWAP1 PUSH2 0x5FAA JUMP JUMPDEST SWAP1 POP PUSH0 PUSH0 SWAP1 POP PUSH0 DUP3 DUP10 PUSH2 0x3C94 SWAP2 SWAP1 PUSH2 0x5AC4 JUMP JUMPDEST SWAP1 POP JUMPDEST DUP8 DUP2 LT ISZERO PUSH2 0x3CF4 JUMPI PUSH0 PUSH2 0x3CB2 PUSH2 0x3CAD DUP8 DUP5 PUSH2 0x3BC0 JUMP JUMPDEST PUSH2 0x3EF7 JUMP JUMPDEST SWAP1 POP PUSH1 0xF DUP2 PUSH1 0xFF AND GT ISZERO PUSH2 0x3CD1 JUMPI PUSH0 PUSH0 SWAP8 POP SWAP8 POP POP POP POP POP POP POP PUSH2 0x3D01 JUMP JUMPDEST PUSH1 0x10 DUP4 PUSH2 0x3CDE SWAP2 SWAP1 PUSH2 0x5FAA JUMP JUMPDEST SWAP3 POP DUP1 PUSH1 0xFF AND DUP4 ADD SWAP3 POP POP DUP1 PUSH1 0x1 ADD SWAP1 POP PUSH2 0x3C97 JUMP JUMPDEST POP PUSH1 0x1 DUP2 SWAP6 POP SWAP6 POP POP POP POP POP JUMPDEST SWAP4 POP SWAP4 SWAP2 POP POP JUMP JUMPDEST PUSH1 0x60 PUSH0 PUSH2 0x3D15 DUP4 PUSH2 0x3F87 JUMP JUMPDEST SWAP1 POP PUSH0 PUSH1 0x20 PUSH8 0xFFFFFFFFFFFFFFFF DUP2 GT ISZERO PUSH2 0x3D33 JUMPI PUSH2 0x3D32 PUSH2 0x4239 JUMP JUMPDEST JUMPDEST PUSH1 0x40 MLOAD SWAP1 DUP1 DUP3 MSTORE DUP1 PUSH1 0x1F ADD PUSH1 0x1F NOT AND PUSH1 0x20 ADD DUP3 ADD PUSH1 0x40 MSTORE DUP1 ISZERO PUSH2 0x3D65 JUMPI DUP2 PUSH1 0x20 ADD PUSH1 0x1 DUP3 MUL DUP1 CALLDATASIZE DUP4 CALLDATACOPY DUP1 DUP3 ADD SWAP2 POP POP SWAP1 POP JUMPDEST POP SWAP1 POP DUP2 DUP2 MSTORE DUP4 PUSH1 0x20 DUP3 ADD MSTORE DUP1 SWAP3 POP POP POP SWAP2 SWAP1 POP JUMP JUMPDEST PUSH0 PUSH32 0x8B73C3C69BB8FE3D512ECC4CF759CC79239F7B179B0FFACAA9A75D522B39400F PUSH32 0x0 PUSH32 0x0 CHAINID ADDRESS PUSH1 0x40 MLOAD PUSH1 0x20 ADD PUSH2 0x3DF5 SWAP6 SWAP5 SWAP4 SWAP3 SWAP2 SWAP1 PUSH2 0x628B JUMP JUMPDEST PUSH1 0x40 MLOAD PUSH1 0x20 DUP2 DUP4 SUB SUB DUP2 MSTORE SWAP1 PUSH1 0x40 MSTORE DUP1 MLOAD SWAP1 PUSH1 0x20 ADD KECCAK256 SWAP1 POP SWAP1 JUMP JUMPDEST PUSH0 PUSH0 PUSH0 PUSH32 0x7FFFFFFFFFFFFFFFFFFFFFFFFFFFFFFF5D576E7357A4501DDFE92F46681B20A0 DUP5 PUSH0 SHR GT ISZERO PUSH2 0x3E4C JUMPI PUSH0 PUSH1 0x3 DUP6 SWAP3 POP SWAP3 POP SWAP3 POP PUSH2 0x3EED JUMP JUMPDEST PUSH0 PUSH1 0x1 DUP9 DUP9 DUP9 DUP9 PUSH1 0x40 MLOAD PUSH0 DUP2 MSTORE PUSH1 0x20 ADD PUSH1 0x40 MSTORE PUSH1 0x40 MLOAD PUSH2 0x3E6F SWAP5 SWAP4 SWAP3 SWAP2 SWAP1 PUSH2 0x62DC JUMP JUMPDEST PUSH1 0x20 PUSH1 0x40 MLOAD PUSH1 0x20 DUP2 SUB SWAP1 DUP1 DUP5 SUB SWAP1 DUP6 GAS STATICCALL ISZERO DUP1 ISZERO PUSH2 0x3E8F JUMPI RETURNDATASIZE PUSH0 PUSH0 RETURNDATACOPY RETURNDATASIZE PUSH0 REVERT JUMPDEST POP POP POP PUSH1 0x20 PUSH1 0x40 MLOAD SUB MLOAD SWAP1 POP PUSH0 PUSH20 0xFFFFFFFFFFFFFFFFFFFFFFFFFFFFFFFFFFFFFFFF AND DUP2 PUSH20 0xFFFFFFFFFFFFFFFFFFFFFFFFFFFFFFFFFFFFFFFF AND SUB PUSH2 0x3EE0 JUMPI PUSH0 PUSH1 0x1 PUSH0 PUSH0 SHL SWAP4 POP SWAP4 POP SWAP4 POP POP PUSH2 0x3EED JUMP JUMPDEST DUP1 PUSH0 PUSH0 PUSH0 SHL SWAP4 POP SWAP4 POP SWAP4 POP POP JUMPDEST SWAP5 POP SWAP5 POP SWAP5 SWAP2 POP POP JUMP JUMPDEST PUSH0 PUSH0 DUP3 PUSH1 0xF8 SHR SWAP1 POP PUSH1 0x2F DUP2 PUSH1 0xFF AND GT DUP1 ISZERO PUSH2 0x3F15 JUMPI POP PUSH1 0x3A DUP2 PUSH1 0xFF AND LT JUMPDEST ISZERO PUSH2 0x3F25 JUMPI PUSH1 0x30 DUP2 SUB SWAP1 POP PUSH2 0x3F7D JUMP JUMPDEST PUSH1 0x60 DUP2 PUSH1 0xFF AND GT DUP1 ISZERO PUSH2 0x3F3B JUMPI POP PUSH1 0x67 DUP2 PUSH1 0xFF AND LT JUMPDEST ISZERO PUSH2 0x3F4B JUMPI PUSH1 0x57 DUP2 SUB SWAP1 POP PUSH2 0x3F7C JUMP JUMPDEST PUSH1 0x40 DUP2 PUSH1 0xFF AND GT DUP1 ISZERO PUSH2 0x3F61 JUMPI POP PUSH1 0x47 DUP2 PUSH1 0xFF AND LT JUMPDEST ISZERO PUSH2 0x3F71 JUMPI PUSH1 0x37 DUP2 SUB SWAP1 POP PUSH2 0x3F7B JUMP JUMPDEST PUSH1 0xFF SWAP2 POP POP PUSH2 0x3F82 JUMP JUMPDEST JUMPDEST JUMPDEST DUP1 SWAP2 POP POP JUMPDEST SWAP2 SWAP1 POP JUMP JUMPDEST PUSH0 PUSH0 PUSH1 0xFF DUP4 PUSH0 SHR AND SWAP1 POP PUSH1 0x1F DUP2 GT ISZERO PUSH2 0x3FCC JUMPI PUSH1 0x40 MLOAD PUSH32 0xB3512B0C00000000000000000000000000000000000000000000000000000000 DUP2 MSTORE PUSH1 0x4 ADD PUSH1 0x40 MLOAD DUP1 SWAP2 SUB SWAP1 REVERT JUMPDEST DUP1 SWAP2 POP POP SWAP2 SWAP1 POP JUMP JUMPDEST PUSH0 PUSH1 0x40 MLOAD SWAP1 POP SWAP1 JUMP JUMPDEST PUSH0 PUSH0 REVERT JUMPDEST PUSH0 PUSH0 REVERT JUMPDEST PUSH0 PUSH32 0xFFFFFFFF00000000000000000000000000000000000000000000000000000000 DUP3 AND SWAP1 POP SWAP2 SWAP1 POP JUMP JUMPDEST PUSH2 0x401A DUP2 PUSH2 0x3FE6 JUMP JUMPDEST DUP2 EQ PUSH2 0x4024 JUMPI PUSH0 PUSH0 REVERT JUMPDEST POP JUMP JUMPDEST PUSH0 DUP2 CALLDATALOAD SWAP1 POP PUSH2 0x4035 DUP2 PUSH2 0x4011 JUMP JUMPDEST SWAP3 SWAP2 POP POP JUMP JUMPDEST PUSH0 PUSH1 0x20 DUP3 DUP5 SUB SLT ISZERO PUSH2 0x4050 JUMPI PUSH2 0x404F PUSH2 0x3FDE JUMP JUMPDEST JUMPDEST PUSH0 PUSH2 0x405D DUP5 DUP3 DUP6 ADD PUSH2 0x4027 JUMP JUMPDEST SWAP2 POP POP SWAP3 SWAP2 POP POP JUMP JUMPDEST PUSH0 DUP2 ISZERO ISZERO SWAP1 POP SWAP2 SWAP1 POP JUMP JUMPDEST PUSH2 0x407A DUP2 PUSH2 0x4066 JUMP JUMPDEST DUP3 MSTORE POP POP JUMP JUMPDEST PUSH0 PUSH1 0x20 DUP3 ADD SWAP1 POP PUSH2 0x4093 PUSH0 DUP4 ADD DUP5 PUSH2 0x4071 JUMP JUMPDEST SWAP3 SWAP2 POP POP JUMP JUMPDEST PUSH0 DUP2 SWAP1 POP SWAP2 SWAP1 POP JUMP JUMPDEST PUSH2 0x40AB DUP2 PUSH2 0x4099 JUMP JUMPDEST DUP3 MSTORE POP POP JUMP JUMPDEST PUSH0 PUSH1 0x20 DUP3 ADD SWAP1 POP PUSH2 0x40C4 PUSH0 DUP4 ADD DUP5 PUSH2 0x40A2 JUMP JUMPDEST SWAP3 SWAP2 POP POP JUMP JUMPDEST PUSH0 DUP2 MLOAD SWAP1 POP SWAP2 SWAP1 POP JUMP JUMPDEST PUSH0 DUP3 DUP3 MSTORE PUSH1 0x20 DUP3 ADD SWAP1 POP SWAP3 SWAP2 POP POP JUMP JUMPDEST DUP3 DUP2 DUP4 MCOPY PUSH0 DUP4 DUP4 ADD MSTORE POP POP POP JUMP JUMPDEST PUSH0 PUSH1 0x1F NOT PUSH1 0x1F DUP4 ADD AND SWAP1 POP SWAP2 SWAP1 POP JUMP JUMPDEST PUSH0 PUSH2 0x410C DUP3 PUSH2 0x40CA JUMP JUMPDEST PUSH2 0x4116 DUP2 DUP6 PUSH2 0x40D4 JUMP JUMPDEST SWAP4 POP PUSH2 0x4126 DUP2 DUP6 PUSH1 0x20 DUP7 ADD PUSH2 0x40E4 JUMP JUMPDEST PUSH2 0x412F DUP2 PUSH2 0x40F2 JUMP JUMPDEST DUP5 ADD SWAP2 POP POP SWAP3 SWAP2 POP POP JUMP JUMPDEST PUSH0 PUSH1 0x20 DUP3 ADD SWAP1 POP DUP2 DUP2 SUB PUSH0 DUP4 ADD MSTORE PUSH2 0x4152 DUP2 DUP5 PUSH2 0x4102 JUMP JUMPDEST SWAP1 POP SWAP3 SWAP2 POP POP JUMP JUMPDEST PUSH2 0x4163 DUP2 PUSH2 0x4099 JUMP JUMPDEST DUP2 EQ PUSH2 0x416D JUMPI PUSH0 PUSH0 REVERT JUMPDEST POP JUMP JUMPDEST PUSH0 DUP2 CALLDATALOAD SWAP1 POP PUSH2 0x417E DUP2 PUSH2 0x415A JUMP JUMPDEST SWAP3 SWAP2 POP POP JUMP JUMPDEST PUSH0 PUSH1 0x20 DUP3 DUP5 SUB SLT ISZERO PUSH2 0x4199 JUMPI PUSH2 0x4198 PUSH2 0x3FDE JUMP JUMPDEST JUMPDEST PUSH0 PUSH2 0x41A6 DUP5 DUP3 DUP6 ADD PUSH2 0x4170 JUMP JUMPDEST SWAP2 POP POP SWAP3 SWAP2 POP POP JUMP JUMPDEST PUSH0 PUSH20 0xFFFFFFFFFFFFFFFFFFFFFFFFFFFFFFFFFFFFFFFF DUP3 AND SWAP1 POP SWAP2 SWAP1 POP JUMP JUMPDEST PUSH0 PUSH2 0x41D8 DUP3 PUSH2 0x41AF JUMP JUMPDEST SWAP1 POP SWAP2 SWAP1 POP JUMP JUMPDEST PUSH2 0x41E8 DUP2 PUSH2 0x41CE JUMP JUMPDEST DUP3 MSTORE POP POP JUMP JUMPDEST PUSH0 PUSH1 0x20 DUP3 ADD SWAP1 POP PUSH2 0x4201 PUSH0 DUP4 ADD DUP5 PUSH2 0x41DF JUMP JUMPDEST SWAP3 SWAP2 POP POP JUMP JUMPDEST PUSH2 0x4210 DUP2 PUSH2 0x41CE JUMP JUMPDEST DUP2 EQ PUSH2 0x421A JUMPI PUSH0 PUSH0 REVERT JUMPDEST POP JUMP JUMPDEST PUSH0 DUP2 CALLDATALOAD SWAP1 POP PUSH2 0x422B DUP2 PUSH2 0x4207 JUMP JUMPDEST SWAP3 SWAP2 POP POP JUMP JUMPDEST PUSH0 PUSH0 REVERT JUMPDEST PUSH0 PUSH0 REVERT JUMPDEST PUSH32 0x4E487B7100000000000000000000000000000000000000000000000000000000 PUSH0 MSTORE PUSH1 0x41 PUSH1 0x4 MSTORE PUSH1 0x24 PUSH0 REVERT JUMPDEST PUSH2 0x426F DUP3 PUSH2 0x40F2 JUMP JUMPDEST DUP2 ADD DUP2 DUP2 LT PUSH8 0xFFFFFFFFFFFFFFFF DUP3 GT OR ISZERO PUSH2 0x428E JUMPI PUSH2 0x428D PUSH2 0x4239 JUMP JUMPDEST JUMPDEST DUP1 PUSH1 0x40 MSTORE POP POP POP JUMP JUMPDEST PUSH0 PUSH2 0x42A0 PUSH2 0x3FD5 JUMP JUMPDEST SWAP1 POP PUSH2 0x42AC DUP3 DUP3 PUSH2 0x4266 JUMP JUMPDEST SWAP2 SWAP1 POP JUMP JUMPDEST PUSH0 PUSH8 0xFFFFFFFFFFFFFFFF DUP3 GT ISZERO PUSH2 0x42CB JUMPI PUSH2 0x42CA PUSH2 0x4239 JUMP JUMPDEST JUMPDEST PUSH2 0x42D4 DUP3 PUSH2 0x40F2 JUMP JUMPDEST SWAP1 POP PUSH1 0x20 DUP2 ADD SWAP1 POP SWAP2 SWAP1 POP JUMP JUMPDEST DUP3 DUP2 DUP4 CALLDATACOPY PUSH0 DUP4 DUP4 ADD MSTORE POP POP POP JUMP JUMPDEST PUSH0 PUSH2 0x4301 PUSH2 0x42FC DUP5 PUSH2 0x42B1 JUMP JUMPDEST PUSH2 0x4297 JUMP JUMPDEST SWAP1 POP DUP3 DUP2 MSTORE PUSH1 0x20 DUP2 ADD DUP5 DUP5 DUP5 ADD GT ISZERO PUSH2 0x431D JUMPI PUSH2 0x431C PUSH2 0x4235 JUMP JUMPDEST JUMPDEST PUSH2 0x4328 DUP5 DUP3 DUP6 PUSH2 0x42E1 JUMP JUMPDEST POP SWAP4 SWAP3 POP POP POP JUMP JUMPDEST PUSH0 DUP3 PUSH1 0x1F DUP4 ADD SLT PUSH2 0x4344 JUMPI PUSH2 0x4343 PUSH2 0x4231 JUMP JUMPDEST JUMPDEST DUP2 CALLDATALOAD PUSH2 0x4354 DUP5 DUP3 PUSH1 0x20 DUP7 ADD PUSH2 0x42EF JUMP JUMPDEST SWAP2 POP POP SWAP3 SWAP2 POP POP JUMP JUMPDEST PUSH0 PUSH0 PUSH0 PUSH0 PUSH1 0x80 DUP6 DUP8 SUB SLT ISZERO PUSH2 0x4375 JUMPI PUSH2 0x4374 PUSH2 0x3FDE JUMP JUMPDEST JUMPDEST PUSH0 PUSH2 0x4382 DUP8 DUP3 DUP9 ADD PUSH2 0x421D JUMP JUMPDEST SWAP5 POP POP PUSH1 0x20 PUSH2 0x4393 DUP8 DUP3 DUP9 ADD PUSH2 0x421D JUMP JUMPDEST SWAP4 POP POP PUSH1 0x40 PUSH2 0x43A4 DUP8 DUP3 DUP9 ADD PUSH2 0x4170 JUMP JUMPDEST SWAP3 POP POP PUSH1 0x60 DUP6 ADD CALLDATALOAD PUSH8 0xFFFFFFFFFFFFFFFF DUP2 GT ISZERO PUSH2 0x43C5 JUMPI PUSH2 0x43C4 PUSH2 0x3FE2 JUMP JUMPDEST JUMPDEST PUSH2 0x43D1 DUP8 DUP3 DUP9 ADD PUSH2 0x4330 JUMP JUMPDEST SWAP2 POP POP SWAP3 SWAP6 SWAP2 SWAP5 POP SWAP3 POP JUMP JUMPDEST PUSH2 0x43E6 DUP2 PUSH2 0x3FE6 JUMP JUMPDEST DUP3 MSTORE POP POP JUMP JUMPDEST PUSH0 PUSH1 0x20 DUP3 ADD SWAP1 POP PUSH2 0x43FF PUSH0 DUP4 ADD DUP5 PUSH2 0x43DD JUMP JUMPDEST SWAP3 SWAP2 POP POP JUMP JUMPDEST PUSH0 PUSH8 0xFFFFFFFFFFFFFFFF DUP3 GT ISZERO PUSH2 0x441F JUMPI PUSH2 0x441E PUSH2 0x4239 JUMP JUMPDEST JUMPDEST PUSH1 0x20 DUP3 MUL SWAP1 POP PUSH1 0x20 DUP2 ADD SWAP1 POP SWAP2 SWAP1 POP JUMP JUMPDEST PUSH0 PUSH0 REVERT JUMPDEST PUSH0 PUSH2 0x4446 PUSH2 0x4441 DUP5 PUSH2 0x4405 JUMP JUMPDEST PUSH2 0x4297 JUMP JUMPDEST SWAP1 POP DUP1 DUP4 DUP3 MSTORE PUSH1 0x20 DUP3 ADD SWAP1 POP PUSH1 0x20 DUP5 MUL DUP4 ADD DUP6 DUP2 GT ISZERO PUSH2 0x4469 JUMPI PUSH2 0x4468 PUSH2 0x4430 JUMP JUMPDEST JUMPDEST DUP4 JUMPDEST DUP2 DUP2 LT ISZERO PUSH2 0x4492 JUMPI DUP1 PUSH2 0x447E DUP9 DUP3 PUSH2 0x421D JUMP JUMPDEST DUP5 MSTORE PUSH1 0x20 DUP5 ADD SWAP4 POP POP PUSH1 0x20 DUP2 ADD SWAP1 POP PUSH2 0x446B JUMP JUMPDEST POP POP POP SWAP4 SWAP3 POP POP POP JUMP JUMPDEST PUSH0 DUP3 PUSH1 0x1F DUP4 ADD SLT PUSH2 0x44B0 JUMPI PUSH2 0x44AF PUSH2 0x4231 JUMP JUMPDEST JUMPDEST DUP2 CALLDATALOAD PUSH2 0x44C0 DUP5 DUP3 PUSH1 0x20 DUP7 ADD PUSH2 0x4434 JUMP JUMPDEST SWAP2 POP POP SWAP3 SWAP2 POP POP JUMP JUMPDEST PUSH0 PUSH8 0xFFFFFFFFFFFFFFFF DUP3 GT ISZERO PUSH2 0x44E3 JUMPI PUSH2 0x44E2 PUSH2 0x4239 JUMP JUMPDEST JUMPDEST PUSH1 0x20 DUP3 MUL SWAP1 POP PUSH1 0x20 DUP2 ADD SWAP1 POP SWAP2 SWAP1 POP JUMP JUMPDEST PUSH0 PUSH2 0x4506 PUSH2 0x4501 DUP5 PUSH2 0x44C9 JUMP JUMPDEST PUSH2 0x4297 JUMP JUMPDEST SWAP1 POP DUP1 DUP4 DUP3 MSTORE PUSH1 0x20 DUP3 ADD SWAP1 POP PUSH1 0x20 DUP5 MUL DUP4 ADD DUP6 DUP2 GT ISZERO PUSH2 0x4529 JUMPI PUSH2 0x4528 PUSH2 0x4430 JUMP JUMPDEST JUMPDEST DUP4 JUMPDEST DUP2 DUP2 LT ISZERO PUSH2 0x4552 JUMPI DUP1 PUSH2 0x453E DUP9 DUP3 PUSH2 0x4170 JUMP JUMPDEST DUP5 MSTORE PUSH1 0x20 DUP5 ADD SWAP4 POP POP PUSH1 0x20 DUP2 ADD SWAP1 POP PUSH2 0x452B JUMP JUMPDEST POP POP POP SWAP4 SWAP3 POP POP POP JUMP JUMPDEST PUSH0 DUP3 PUSH1 0x1F DUP4 ADD SLT PUSH2 0x4570 JUMPI PUSH2 0x456F PUSH2 0x4231 JUMP JUMPDEST JUMPDEST DUP2 CALLDATALOAD PUSH2 0x4580 DUP5 DUP3 PUSH1 0x20 DUP7 ADD PUSH2 0x44F4 JUMP JUMPDEST SWAP2 POP POP SWAP3 SWAP2 POP POP JUMP JUMPDEST PUSH0 PUSH8 0xFFFFFFFFFFFFFFFF DUP3 GT ISZERO PUSH2 0x45A3 JUMPI PUSH2 0x45A2 PUSH2 0x4239 JUMP JUMPDEST JUMPDEST PUSH1 0x20 DUP3 MUL SWAP1 POP PUSH1 0x20 DUP2 ADD SWAP1 POP SWAP2 SWAP1 POP JUMP JUMPDEST PUSH0 PUSH2 0x45C6 PUSH2 0x45C1 DUP5 PUSH2 0x4589 JUMP JUMPDEST PUSH2 0x4297 JUMP JUMPDEST SWAP1 POP DUP1 DUP4 DUP3 MSTORE PUSH1 0x20 DUP3 ADD SWAP1 POP PUSH1 0x20 DUP5 MUL DUP4 ADD DUP6 DUP2 GT ISZERO PUSH2 0x45E9 JUMPI PUSH2 0x45E8 PUSH2 0x4430 JUMP JUMPDEST JUMPDEST DUP4 JUMPDEST DUP2 DUP2 LT ISZERO PUSH2 0x4630 JUMPI DUP1 CALLDATALOAD PUSH8 0xFFFFFFFFFFFFFFFF DUP2 GT ISZERO PUSH2 0x460E JUMPI PUSH2 0x460D PUSH2 0x4231 JUMP JUMPDEST JUMPDEST DUP1 DUP7 ADD PUSH2 0x461B DUP10 DUP3 PUSH2 0x4330 JUMP JUMPDEST DUP6 MSTORE PUSH1 0x20 DUP6 ADD SWAP5 POP POP POP PUSH1 0x20 DUP2 ADD SWAP1 POP PUSH2 0x45EB JUMP JUMPDEST POP POP POP SWAP4 SWAP3 POP POP POP JUMP JUMPDEST PUSH0 DUP3 PUSH1 0x1F DUP4 ADD SLT PUSH2 0x464E JUMPI PUSH2 0x464D PUSH2 0x4231 JUMP JUMPDEST JUMPDEST DUP2 CALLDATALOAD PUSH2 0x465E DUP5 DUP3 PUSH1 0x20 DUP7 ADD PUSH2 0x45B4 JUMP JUMPDEST SWAP2 POP POP SWAP3 SWAP2 POP POP JUMP JUMPDEST PUSH0 DUP2 SWAP1 POP SWAP2 SWAP1 POP JUMP JUMPDEST PUSH2 0x4679 DUP2 PUSH2 0x4667 JUMP JUMPDEST DUP2 EQ PUSH2 0x4683 JUMPI PUSH0 PUSH0 REVERT JUMPDEST POP JUMP JUMPDEST PUSH0 DUP2 CALLDATALOAD SWAP1 POP PUSH2 0x4694 DUP2 PUSH2 0x4670 JUMP JUMPDEST SWAP3 SWAP2 POP POP JUMP JUMPDEST PUSH0 PUSH0 PUSH0 PUSH0 PUSH1 0x80 DUP6 DUP8 SUB SLT ISZERO PUSH2 0x46B2 JUMPI PUSH2 0x46B1 PUSH2 0x3FDE JUMP JUMPDEST JUMPDEST PUSH0 DUP6 ADD CALLDATALOAD PUSH8 0xFFFFFFFFFFFFFFFF DUP2 GT ISZERO PUSH2 0x46CF JUMPI PUSH2 0x46CE PUSH2 0x3FE2 JUMP JUMPDEST JUMPDEST PUSH2 0x46DB DUP8 DUP3 DUP9 ADD PUSH2 0x449C JUMP JUMPDEST SWAP5 POP POP PUSH1 0x20 DUP6 ADD CALLDATALOAD PUSH8 0xFFFFFFFFFFFFFFFF DUP2 GT ISZERO PUSH2 0x46FC JUMPI PUSH2 0x46FB PUSH2 0x3FE2 JUMP JUMPDEST JUMPDEST PUSH2 0x4708 DUP8 DUP3 DUP9 ADD PUSH2 0x455C JUMP JUMPDEST SWAP4 POP POP PUSH1 0x40 DUP6 ADD CALLDATALOAD PUSH8 0xFFFFFFFFFFFFFFFF DUP2 GT ISZERO PUSH2 0x4729 JUMPI PUSH2 0x4728 PUSH2 0x3FE2 JUMP JUMPDEST JUMPDEST PUSH2 0x4735 DUP8 DUP3 DUP9 ADD PUSH2 0x463A JUMP JUMPDEST SWAP3 POP POP PUSH1 0x60 PUSH2 0x4746 DUP8 DUP3 DUP9 ADD PUSH2 0x4686 JUMP JUMPDEST SWAP2 POP POP SWAP3 SWAP6 SWAP2 SWAP5 POP SWAP3 POP JUMP JUMPDEST PUSH2 0x475B DUP2 PUSH2 0x4667 JUMP JUMPDEST DUP3 MSTORE POP POP JUMP JUMPDEST PUSH0 PUSH1 0x20 DUP3 ADD SWAP1 POP PUSH2 0x4774 PUSH0 DUP4 ADD DUP5 PUSH2 0x4752 JUMP JUMPDEST SWAP3 SWAP2 POP POP JUMP JUMPDEST PUSH32 0x4E487B7100000000000000000000000000000000000000000000000000000000 PUSH0 MSTORE PUSH1 0x21 PUSH1 0x4 MSTORE PUSH1 0x24 PUSH0 REVERT JUMPDEST PUSH1 0x8 DUP2 LT PUSH2 0x47B8 JUMPI PUSH2 0x47B7 PUSH2 0x477A JUMP JUMPDEST JUMPDEST POP JUMP JUMPDEST PUSH0 DUP2 SWAP1 POP PUSH2 0x47C8 DUP3 PUSH2 0x47A7 JUMP JUMPDEST SWAP2 SWAP1 POP JUMP JUMPDEST PUSH0 PUSH2 0x47D7 DUP3 PUSH2 0x47BB JUMP JUMPDEST SWAP1 POP SWAP2 SWAP1 POP JUMP JUMPDEST PUSH2 0x47E7 DUP2 PUSH2 0x47CD JUMP JUMPDEST DUP3 MSTORE POP POP JUMP JUMPDEST PUSH0 PUSH1 0x20 DUP3 ADD SWAP1 POP PUSH2 0x4800 PUSH0 DUP4 ADD DUP5 PUSH2 0x47DE JUMP JUMPDEST SWAP3 SWAP2 POP POP JUMP JUMPDEST PUSH0 PUSH0 PUSH1 0x40 DUP4 DUP6 SUB SLT ISZERO PUSH2 0x481C JUMPI PUSH2 0x481B PUSH2 0x3FDE JUMP JUMPDEST JUMPDEST PUSH0 PUSH2 0x4829 DUP6 DUP3 DUP7 ADD PUSH2 0x4170 JUMP JUMPDEST SWAP3 POP POP PUSH1 0x20 PUSH2 0x483A DUP6 DUP3 DUP7 ADD PUSH2 0x421D JUMP JUMPDEST SWAP2 POP POP SWAP3 POP SWAP3 SWAP1 POP JUMP JUMPDEST PUSH0 PUSH1 0x60 DUP3 ADD SWAP1 POP PUSH2 0x4857 PUSH0 DUP4 ADD DUP7 PUSH2 0x40A2 JUMP JUMPDEST PUSH2 0x4864 PUSH1 0x20 DUP4 ADD DUP6 PUSH2 0x40A2 JUMP JUMPDEST PUSH2 0x4871 PUSH1 0x40 DUP4 ADD DUP5 PUSH2 0x40A2 JUMP JUMPDEST SWAP5 SWAP4 POP POP POP POP JUMP JUMPDEST PUSH0 PUSH1 0xFF DUP3 AND SWAP1 POP SWAP2 SWAP1 POP JUMP JUMPDEST PUSH2 0x488E DUP2 PUSH2 0x4879 JUMP JUMPDEST DUP2 EQ PUSH2 0x4898 JUMPI PUSH0 PUSH0 REVERT JUMPDEST POP JUMP JUMPDEST PUSH0 DUP2 CALLDATALOAD SWAP1 POP PUSH2 0x48A9 DUP2 PUSH2 0x4885 JUMP JUMPDEST SWAP3 SWAP2 POP POP JUMP JUMPDEST PUSH0 PUSH0 PUSH1 0x40 DUP4 DUP6 SUB SLT ISZERO PUSH2 0x48C5 JUMPI PUSH2 0x48C4 PUSH2 0x3FDE JUMP JUMPDEST JUMPDEST PUSH0 PUSH2 0x48D2 DUP6 DUP3 DUP7 ADD PUSH2 0x4170 JUMP JUMPDEST SWAP3 POP POP PUSH1 0x20 PUSH2 0x48E3 DUP6 DUP3 DUP7 ADD PUSH2 0x489B JUMP JUMPDEST SWAP2 POP POP SWAP3 POP SWAP3 SWAP1 POP JUMP JUMPDEST PUSH0 PUSH0 REVERT JUMPDEST PUSH0 PUSH0 DUP4 PUSH1 0x1F DUP5 ADD SLT PUSH2 0x4906 JUMPI PUSH2 0x4905 PUSH2 0x4231 JUMP JUMPDEST JUMPDEST DUP3 CALLDATALOAD SWAP1 POP PUSH8 0xFFFFFFFFFFFFFFFF DUP2 GT ISZERO PUSH2 0x4923 JUMPI PUSH2 0x4922 PUSH2 0x48ED JUMP JUMPDEST JUMPDEST PUSH1 0x20 DUP4 ADD SWAP2 POP DUP4 PUSH1 0x1 DUP3 MUL DUP4 ADD GT ISZERO PUSH2 0x493F JUMPI PUSH2 0x493E PUSH2 0x4430 JUMP JUMPDEST JUMPDEST SWAP3 POP SWAP3 SWAP1 POP JUMP JUMPDEST PUSH0 PUSH0 PUSH0 PUSH0 PUSH0 PUSH0 PUSH0 PUSH1 0xC0 DUP9 DUP11 SUB SLT ISZERO PUSH2 0x4961 JUMPI PUSH2 0x4960 PUSH2 0x3FDE JUMP JUMPDEST JUMPDEST PUSH0 PUSH2 0x496E DUP11 DUP3 DUP12 ADD PUSH2 0x4170 JUMP JUMPDEST SWAP8 POP POP PUSH1 0x20 PUSH2 0x497F DUP11 DUP3 DUP12 ADD PUSH2 0x489B JUMP JUMPDEST SWAP7 POP POP PUSH1 0x40 PUSH2 0x4990 DUP11 DUP3 DUP12 ADD PUSH2 0x421D JUMP JUMPDEST SWAP6 POP POP PUSH1 0x60 DUP9 ADD CALLDATALOAD PUSH8 0xFFFFFFFFFFFFFFFF DUP2 GT ISZERO PUSH2 0x49B1 JUMPI PUSH2 0x49B0 PUSH2 0x3FE2 JUMP JUMPDEST JUMPDEST PUSH2 0x49BD DUP11 DUP3 DUP12 ADD PUSH2 0x48F1 JUMP JUMPDEST SWAP5 POP SWAP5 POP POP PUSH1 0x80 DUP9 ADD CALLDATALOAD PUSH8 0xFFFFFFFFFFFFFFFF DUP2 GT ISZERO PUSH2 0x49E0 JUMPI PUSH2 0x49DF PUSH2 0x3FE2 JUMP JUMPDEST JUMPDEST PUSH2 0x49EC DUP11 DUP3 DUP12 ADD PUSH2 0x4330 JUMP JUMPDEST SWAP3 POP POP PUSH1 0xA0 DUP9 ADD CALLDATALOAD PUSH8 0xFFFFFFFFFFFFFFFF DUP2 GT ISZERO PUSH2 0x4A0D JUMPI PUSH2 0x4A0C PUSH2 0x3FE2 JUMP JUMPDEST JUMPDEST PUSH2 0x4A19 DUP11 DUP3 DUP12 ADD PUSH2 0x4330 JUMP JUMPDEST SWAP2 POP POP SWAP3 SWAP6 SWAP9 SWAP2 SWAP5 SWAP8 POP SWAP3 SWAP6 POP JUMP JUMPDEST PUSH0 PUSH0 PUSH0 PUSH0 PUSH0 PUSH1 0x80 DUP7 DUP9 SUB SLT ISZERO PUSH2 0x4A41 JUMPI PUSH2 0x4A40 PUSH2 0x3FDE JUMP JUMPDEST JUMPDEST PUSH0 PUSH2 0x4A4E DUP9 DUP3 DUP10 ADD PUSH2 0x4170 JUMP JUMPDEST SWAP6 POP POP PUSH1 0x20 PUSH2 0x4A5F DUP9 DUP3 DUP10 ADD PUSH2 0x489B JUMP JUMPDEST SWAP5 POP POP PUSH1 0x40 DUP7 ADD CALLDATALOAD PUSH8 0xFFFFFFFFFFFFFFFF DUP2 GT ISZERO PUSH2 0x4A80 JUMPI PUSH2 0x4A7F PUSH2 0x3FE2 JUMP JUMPDEST JUMPDEST PUSH2 0x4A8C DUP9 DUP3 DUP10 ADD PUSH2 0x48F1 JUMP JUMPDEST SWAP4 POP SWAP4 POP POP PUSH1 0x60 DUP7 ADD CALLDATALOAD PUSH8 0xFFFFFFFFFFFFFFFF DUP2 GT ISZERO PUSH2 0x4AAF JUMPI PUSH2 0x4AAE PUSH2 0x3FE2 JUMP JUMPDEST JUMPDEST PUSH2 0x4ABB DUP9 DUP3 DUP10 ADD PUSH2 0x4330 JUMP JUMPDEST SWAP2 POP POP SWAP3 SWAP6 POP SWAP3 SWAP6 SWAP1 SWAP4 POP JUMP JUMPDEST PUSH0 PUSH6 0xFFFFFFFFFFFF DUP3 AND SWAP1 POP SWAP2 SWAP1 POP JUMP JUMPDEST PUSH2 0x4AE2 DUP2 PUSH2 0x4AC8 JUMP JUMPDEST DUP2 EQ PUSH2 0x4AEC JUMPI PUSH0 PUSH0 REVERT JUMPDEST POP JUMP JUMPDEST PUSH0 DUP2 CALLDATALOAD SWAP1 POP PUSH2 0x4AFD DUP2 PUSH2 0x4AD9 JUMP JUMPDEST SWAP3 SWAP2 POP POP JUMP JUMPDEST PUSH0 PUSH1 0x20 DUP3 DUP5 SUB SLT ISZERO PUSH2 0x4B18 JUMPI PUSH2 0x4B17 PUSH2 0x3FDE JUMP JUMPDEST JUMPDEST PUSH0 PUSH2 0x4B25 DUP5 DUP3 DUP6 ADD PUSH2 0x4AEF JUMP JUMPDEST SWAP2 POP POP SWAP3 SWAP2 POP POP JUMP JUMPDEST PUSH0 PUSH0 PUSH0 PUSH0 PUSH1 0x60 DUP6 DUP8 SUB SLT ISZERO PUSH2 0x4B46 JUMPI PUSH2 0x4B45 PUSH2 0x3FDE JUMP JUMPDEST JUMPDEST PUSH0 PUSH2 0x4B53 DUP8 DUP3 DUP9 ADD PUSH2 0x4170 JUMP JUMPDEST SWAP5 POP POP PUSH1 0x20 PUSH2 0x4B64 DUP8 DUP3 DUP9 ADD PUSH2 0x489B JUMP JUMPDEST SWAP4 POP POP PUSH1 0x40 DUP6 ADD CALLDATALOAD PUSH8 0xFFFFFFFFFFFFFFFF DUP2 GT ISZERO PUSH2 0x4B85 JUMPI PUSH2 0x4B84 PUSH2 0x3FE2 JUMP JUMPDEST JUMPDEST PUSH2 0x4B91 DUP8 DUP3 DUP9 ADD PUSH2 0x48F1 JUMP JUMPDEST SWAP3 POP SWAP3 POP POP SWAP3 SWAP6 SWAP2 SWAP5 POP SWAP3 POP JUMP JUMPDEST PUSH0 PUSH8 0xFFFFFFFFFFFFFFFF DUP3 GT ISZERO PUSH2 0x4BB9 JUMPI PUSH2 0x4BB8 PUSH2 0x4239 JUMP JUMPDEST JUMPDEST PUSH2 0x4BC2 DUP3 PUSH2 0x40F2 JUMP JUMPDEST SWAP1 POP PUSH1 0x20 DUP2 ADD SWAP1 POP SWAP2 SWAP1 POP JUMP JUMPDEST PUSH0 PUSH2 0x4BE1 PUSH2 0x4BDC DUP5 PUSH2 0x4B9F JUMP JUMPDEST PUSH2 0x4297 JUMP JUMPDEST SWAP1 POP DUP3 DUP2 MSTORE PUSH1 0x20 DUP2 ADD DUP5 DUP5 DUP5 ADD GT ISZERO PUSH2 0x4BFD JUMPI PUSH2 0x4BFC PUSH2 0x4235 JUMP JUMPDEST JUMPDEST PUSH2 0x4C08 DUP5 DUP3 DUP6 PUSH2 0x42E1 JUMP JUMPDEST POP SWAP4 SWAP3 POP POP POP JUMP JUMPDEST PUSH0 DUP3 PUSH1 0x1F DUP4 ADD SLT PUSH2 0x4C24 JUMPI PUSH2 0x4C23 PUSH2 0x4231 JUMP JUMPDEST JUMPDEST DUP2 CALLDATALOAD PUSH2 0x4C34 DUP5 DUP3 PUSH1 0x20 DUP7 ADD PUSH2 0x4BCF JUMP JUMPDEST SWAP2 POP POP SWAP3 SWAP2 POP POP JUMP JUMPDEST PUSH0 PUSH0 PUSH0 PUSH0 PUSH1 0x80 DUP6 DUP8 SUB SLT ISZERO PUSH2 0x4C55 JUMPI PUSH2 0x4C54 PUSH2 0x3FDE JUMP JUMPDEST JUMPDEST PUSH0 DUP6 ADD CALLDATALOAD PUSH8 0xFFFFFFFFFFFFFFFF DUP2 GT ISZERO PUSH2 0x4C72 JUMPI PUSH2 0x4C71 PUSH2 0x3FE2 JUMP JUMPDEST JUMPDEST PUSH2 0x4C7E DUP8 DUP3 DUP9 ADD PUSH2 0x449C JUMP JUMPDEST SWAP5 POP POP PUSH1 0x20 DUP6 ADD CALLDATALOAD PUSH8 0xFFFFFFFFFFFFFFFF DUP2 GT ISZERO PUSH2 0x4C9F JUMPI PUSH2 0x4C9E PUSH2 0x3FE2 JUMP JUMPDEST JUMPDEST PUSH2 0x4CAB DUP8 DUP3 DUP9 ADD PUSH2 0x455C JUMP JUMPDEST SWAP4 POP POP PUSH1 0x40 DUP6 ADD CALLDATALOAD PUSH8 0xFFFFFFFFFFFFFFFF DUP2 GT ISZERO PUSH2 0x4CCC JUMPI PUSH2 0x4CCB PUSH2 0x3FE2 JUMP JUMPDEST JUMPDEST PUSH2 0x4CD8 DUP8 DUP3 DUP9 ADD PUSH2 0x463A JUMP JUMPDEST SWAP3 POP POP PUSH1 0x60 DUP6 ADD CALLDATALOAD PUSH8 0xFFFFFFFFFFFFFFFF DUP2 GT ISZERO PUSH2 0x4CF9 JUMPI PUSH2 0x4CF8 PUSH2 0x3FE2 JUMP JUMPDEST JUMPDEST PUSH2 0x4D05 DUP8 DUP3 DUP9 ADD PUSH2 0x4C10 JUMP JUMPDEST SWAP2 POP POP SWAP3 SWAP6 SWAP2 SWAP5 POP SWAP3 POP JUMP JUMPDEST PUSH0 PUSH1 0x20 DUP3 DUP5 SUB SLT ISZERO PUSH2 0x4D26 JUMPI PUSH2 0x4D25 PUSH2 0x3FDE JUMP JUMPDEST JUMPDEST PUSH0 PUSH2 0x4D33 DUP5 DUP3 DUP6 ADD PUSH2 0x421D JUMP JUMPDEST SWAP2 POP POP SWAP3 SWAP2 POP POP JUMP JUMPDEST PUSH0 PUSH32 0xFF00000000000000000000000000000000000000000000000000000000000000 DUP3 AND SWAP1 POP SWAP2 SWAP1 POP JUMP JUMPDEST PUSH2 0x4D70 DUP2 PUSH2 0x4D3C JUMP JUMPDEST DUP3 MSTORE POP POP JUMP JUMPDEST PUSH0 DUP2 MLOAD SWAP1 POP SWAP2 SWAP1 POP JUMP JUMPDEST PUSH0 DUP3 DUP3 MSTORE PUSH1 0x20 DUP3 ADD SWAP1 POP SWAP3 SWAP2 POP POP JUMP JUMPDEST PUSH0 DUP2 SWAP1 POP PUSH1 0x20 DUP3 ADD SWAP1 POP SWAP2 SWAP1 POP JUMP JUMPDEST PUSH2 0x4DA8 DUP2 PUSH2 0x4099 JUMP JUMPDEST DUP3 MSTORE POP POP JUMP JUMPDEST PUSH0 PUSH2 0x4DB9 DUP4 DUP4 PUSH2 0x4D9F JUMP JUMPDEST PUSH1 0x20 DUP4 ADD SWAP1 POP SWAP3 SWAP2 POP POP JUMP JUMPDEST PUSH0 PUSH1 0x20 DUP3 ADD SWAP1 POP SWAP2 SWAP1 POP JUMP JUMPDEST PUSH0 PUSH2 0x4DDB DUP3 PUSH2 0x4D76 JUMP JUMPDEST PUSH2 0x4DE5 DUP2 DUP6 PUSH2 0x4D80 JUMP JUMPDEST SWAP4 POP PUSH2 0x4DF0 DUP4 PUSH2 0x4D90 JUMP JUMPDEST DUP1 PUSH0 JUMPDEST DUP4 DUP2 LT ISZERO PUSH2 0x4E20 JUMPI DUP2 MLOAD PUSH2 0x4E07 DUP9 DUP3 PUSH2 0x4DAE JUMP JUMPDEST SWAP8 POP PUSH2 0x4E12 DUP4 PUSH2 0x4DC5 JUMP JUMPDEST SWAP3 POP POP PUSH1 0x1 DUP2 ADD SWAP1 POP PUSH2 0x4DF3 JUMP JUMPDEST POP DUP6 SWAP4 POP POP POP POP SWAP3 SWAP2 POP POP JUMP JUMPDEST PUSH0 PUSH1 0xE0 DUP3 ADD SWAP1 POP PUSH2 0x4E40 PUSH0 DUP4 ADD DUP11 PUSH2 0x4D67 JUMP JUMPDEST DUP2 DUP2 SUB PUSH1 0x20 DUP4 ADD MSTORE PUSH2 0x4E52 DUP2 DUP10 PUSH2 0x4102 JUMP JUMPDEST SWAP1 POP DUP2 DUP2 SUB PUSH1 0x40 DUP4 ADD MSTORE PUSH2 0x4E66 DUP2 DUP9 PUSH2 0x4102 JUMP JUMPDEST SWAP1 POP PUSH2 0x4E75 PUSH1 0x60 DUP4 ADD DUP8 PUSH2 0x40A2 JUMP JUMPDEST PUSH2 0x4E82 PUSH1 0x80 DUP4 ADD DUP7 PUSH2 0x41DF JUMP JUMPDEST PUSH2 0x4E8F PUSH1 0xA0 DUP4 ADD DUP6 PUSH2 0x4752 JUMP JUMPDEST DUP2 DUP2 SUB PUSH1 0xC0 DUP4 ADD MSTORE PUSH2 0x4EA1 DUP2 DUP5 PUSH2 0x4DD1 JUMP JUMPDEST SWAP1 POP SWAP9 SWAP8 POP POP POP POP POP POP POP POP JUMP JUMPDEST PUSH0 PUSH0 PUSH0 PUSH0 PUSH1 0x80 DUP6 DUP8 SUB SLT ISZERO PUSH2 0x4EC7 JUMPI PUSH2 0x4EC6 PUSH2 0x3FDE JUMP JUMPDEST JUMPDEST PUSH0 PUSH2 0x4ED4 DUP8 DUP3 DUP9 ADD PUSH2 0x4170 JUMP JUMPDEST SWAP5 POP POP PUSH1 0x20 PUSH2 0x4EE5 DUP8 DUP3 DUP9 ADD PUSH2 0x489B JUMP JUMPDEST SWAP4 POP POP PUSH1 0x40 PUSH2 0x4EF6 DUP8 DUP3 DUP9 ADD PUSH2 0x421D JUMP JUMPDEST SWAP3 POP POP PUSH1 0x60 DUP6 ADD CALLDATALOAD PUSH8 0xFFFFFFFFFFFFFFFF DUP2 GT ISZERO PUSH2 0x4F17 JUMPI PUSH2 0x4F16 PUSH2 0x3FE2 JUMP JUMPDEST JUMPDEST PUSH2 0x4F23 DUP8 DUP3 DUP9 ADD PUSH2 0x4330 JUMP JUMPDEST SWAP2 POP POP SWAP3 SWAP6 SWAP2 SWAP5 POP SWAP3 POP JUMP JUMPDEST PUSH2 0x4F38 DUP2 PUSH2 0x4AC8 JUMP JUMPDEST DUP3 MSTORE POP POP JUMP JUMPDEST PUSH0 PUSH1 0x20 DUP3 ADD SWAP1 POP PUSH2 0x4F51 PUSH0 DUP4 ADD DUP5 PUSH2 0x4F2F JUMP JUMPDEST SWAP3 SWAP2 POP POP JUMP JUMPDEST PUSH0 PUSH0 PUSH0 PUSH1 0x60 DUP5 DUP7 SUB SLT ISZERO PUSH2 0x4F6E JUMPI PUSH2 0x4F6D PUSH2 0x3FDE JUMP JUMPDEST JUMPDEST PUSH0 PUSH2 0x4F7B DUP7 DUP3 DUP8 ADD PUSH2 0x421D JUMP JUMPDEST SWAP4 POP POP PUSH1 0x20 PUSH2 0x4F8C DUP7 DUP3 DUP8 ADD PUSH2 0x4170 JUMP JUMPDEST SWAP3 POP POP PUSH1 0x40 DUP5 ADD CALLDATALOAD PUSH8 0xFFFFFFFFFFFFFFFF DUP2 GT ISZERO PUSH2 0x4FAD JUMPI PUSH2 0x4FAC PUSH2 0x3FE2 JUMP JUMPDEST JUMPDEST PUSH2 0x4FB9 DUP7 DUP3 DUP8 ADD PUSH2 0x4330 JUMP JUMPDEST SWAP2 POP POP SWAP3 POP SWAP3 POP SWAP3 JUMP JUMPDEST PUSH0 PUSH2 0x4FCD DUP3 PUSH2 0x41AF JUMP JUMPDEST SWAP1 POP SWAP2 SWAP1 POP JUMP JUMPDEST PUSH0 PUSH2 0x4FDE DUP3 PUSH2 0x4FC3 JUMP JUMPDEST SWAP1 POP SWAP2 SWAP1 POP JUMP JUMPDEST PUSH2 0x4FEE DUP2 PUSH2 0x4FD4 JUMP JUMPDEST DUP2 EQ PUSH2 0x4FF8 JUMPI PUSH0 PUSH0 REVERT JUMPDEST POP JUMP JUMPDEST PUSH0 DUP2 CALLDATALOAD SWAP1 POP PUSH2 0x5009 DUP2 PUSH2 0x4FE5 JUMP JUMPDEST SWAP3 SWAP2 POP POP JUMP JUMPDEST PUSH0 PUSH1 0x20 DUP3 DUP5 SUB SLT ISZERO PUSH2 0x5024 JUMPI PUSH2 0x5023 PUSH2 0x3FDE JUMP JUMPDEST JUMPDEST PUSH0 PUSH2 0x5031 DUP5 DUP3 DUP6 ADD PUSH2 0x4FFB JUMP JUMPDEST SWAP2 POP POP SWAP3 SWAP2 POP POP JUMP JUMPDEST PUSH0 PUSH0 PUSH0 PUSH0 PUSH0 PUSH1 0xA0 DUP7 DUP9 SUB SLT ISZERO PUSH2 0x5053 JUMPI PUSH2 0x5052 PUSH2 0x3FDE JUMP JUMPDEST JUMPDEST PUSH0 PUSH2 0x5060 DUP9 DUP3 DUP10 ADD PUSH2 0x421D JUMP JUMPDEST SWAP6 POP POP PUSH1 0x20 PUSH2 0x5071 DUP9 DUP3 DUP10 ADD PUSH2 0x421D JUMP JUMPDEST SWAP5 POP POP PUSH1 0x40 DUP7 ADD CALLDATALOAD PUSH8 0xFFFFFFFFFFFFFFFF DUP2 GT ISZERO PUSH2 0x5092 JUMPI PUSH2 0x5091 PUSH2 0x3FE2 JUMP JUMPDEST JUMPDEST PUSH2 0x509E DUP9 DUP3 DUP10 ADD PUSH2 0x455C JUMP JUMPDEST SWAP4 POP POP PUSH1 0x60 DUP7 ADD CALLDATALOAD PUSH8 0xFFFFFFFFFFFFFFFF DUP2 GT ISZERO PUSH2 0x50BF JUMPI PUSH2 0x50BE PUSH2 0x3FE2 JUMP JUMPDEST JUMPDEST PUSH2 0x50CB DUP9 DUP3 DUP10 ADD PUSH2 0x455C JUMP JUMPDEST SWAP3 POP POP PUSH1 0x80 DUP7 ADD CALLDATALOAD PUSH8 0xFFFFFFFFFFFFFFFF DUP2 GT ISZERO PUSH2 0x50EC JUMPI PUSH2 0x50EB PUSH2 0x3FE2 JUMP JUMPDEST JUMPDEST PUSH2 0x50F8 DUP9 DUP3 DUP10 ADD PUSH2 0x4330 JUMP JUMPDEST SWAP2 POP POP SWAP3 SWAP6 POP SWAP3 SWAP6 SWAP1 SWAP4 POP JUMP JUMPDEST PUSH0 PUSH0 DUP4 PUSH1 0x1F DUP5 ADD SLT PUSH2 0x511A JUMPI PUSH2 0x5119 PUSH2 0x4231 JUMP JUMPDEST JUMPDEST DUP3 CALLDATALOAD SWAP1 POP PUSH8 0xFFFFFFFFFFFFFFFF DUP2 GT ISZERO PUSH2 0x5137 JUMPI PUSH2 0x5136 PUSH2 0x48ED JUMP JUMPDEST JUMPDEST PUSH1 0x20 DUP4 ADD SWAP2 POP DUP4 PUSH1 0x1 DUP3 MUL DUP4 ADD GT ISZERO PUSH2 0x5153 JUMPI PUSH2 0x5152 PUSH2 0x4430 JUMP JUMPDEST JUMPDEST SWAP3 POP SWAP3 SWAP1 POP JUMP JUMPDEST PUSH0 PUSH0 PUSH0 PUSH0 PUSH1 0x60 DUP6 DUP8 SUB SLT ISZERO PUSH2 0x5172 JUMPI PUSH2 0x5171 PUSH2 0x3FDE JUMP JUMPDEST JUMPDEST PUSH0 PUSH2 0x517F DUP8 DUP3 DUP9 ADD PUSH2 0x421D JUMP JUMPDEST SWAP5 POP POP PUSH1 0x20 PUSH2 0x5190 DUP8 DUP3 DUP9 ADD PUSH2 0x4170 JUMP JUMPDEST SWAP4 POP POP PUSH1 0x40 DUP6 ADD CALLDATALOAD PUSH8 0xFFFFFFFFFFFFFFFF DUP2 GT ISZERO PUSH2 0x51B1 JUMPI PUSH2 0x51B0 PUSH2 0x3FE2 JUMP JUMPDEST JUMPDEST PUSH2 0x51BD DUP8 DUP3 DUP9 ADD PUSH2 0x5105 JUMP JUMPDEST SWAP3 POP SWAP3 POP POP SWAP3 SWAP6 SWAP2 SWAP5 POP SWAP3 POP JUMP JUMPDEST PUSH0 PUSH4 0xFFFFFFFF DUP3 AND SWAP1 POP SWAP2 SWAP1 POP JUMP JUMPDEST PUSH2 0x51E3 DUP2 PUSH2 0x51CB JUMP JUMPDEST DUP2 EQ PUSH2 0x51ED JUMPI PUSH0 PUSH0 REVERT JUMPDEST POP JUMP JUMPDEST PUSH0 DUP2 CALLDATALOAD SWAP1 POP PUSH2 0x51FE DUP2 PUSH2 0x51DA JUMP JUMPDEST SWAP3 SWAP2 POP POP JUMP JUMPDEST PUSH0 PUSH1 0x20 DUP3 DUP5 SUB SLT ISZERO PUSH2 0x5219 JUMPI PUSH2 0x5218 PUSH2 0x3FDE JUMP JUMPDEST JUMPDEST PUSH0 PUSH2 0x5226 DUP5 DUP3 DUP6 ADD PUSH2 0x51F0 JUMP JUMPDEST SWAP2 POP POP SWAP3 SWAP2 POP POP JUMP JUMPDEST PUSH0 PUSH0 PUSH1 0x40 DUP4 DUP6 SUB SLT ISZERO PUSH2 0x5245 JUMPI PUSH2 0x5244 PUSH2 0x3FDE JUMP JUMPDEST JUMPDEST PUSH0 PUSH2 0x5252 DUP6 DUP3 DUP7 ADD PUSH2 0x421D JUMP JUMPDEST SWAP3 POP POP PUSH1 0x20 PUSH2 0x5263 DUP6 DUP3 DUP7 ADD PUSH2 0x4170 JUMP JUMPDEST SWAP2 POP POP SWAP3 POP SWAP3 SWAP1 POP JUMP JUMPDEST PUSH0 PUSH0 PUSH0 PUSH0 PUSH0 PUSH1 0xA0 DUP7 DUP9 SUB SLT ISZERO PUSH2 0x5286 JUMPI PUSH2 0x5285 PUSH2 0x3FDE JUMP JUMPDEST JUMPDEST PUSH0 PUSH2 0x5293 DUP9 DUP3 DUP10 ADD PUSH2 0x421D JUMP JUMPDEST SWAP6 POP POP PUSH1 0x20 PUSH2 0x52A4 DUP9 DUP3 DUP10 ADD PUSH2 0x421D JUMP JUMPDEST SWAP5 POP POP PUSH1 0x40 PUSH2 0x52B5 DUP9 DUP3 DUP10 ADD PUSH2 0x4170 JUMP JUMPDEST SWAP4 POP POP PUSH1 0x60 PUSH2 0x52C6 DUP9 DUP3 DUP10 ADD PUSH2 0x4170 JUMP JUMPDEST SWAP3 POP POP PUSH1 0x80 DUP7 ADD CALLDATALOAD PUSH8 0xFFFFFFFFFFFFFFFF DUP2 GT ISZERO PUSH2 0x52E7 JUMPI PUSH2 0x52E6 PUSH2 0x3FE2 JUMP JUMPDEST JUMPDEST PUSH2 0x52F3 DUP9 DUP3 DUP10 ADD PUSH2 0x4330 JUMP JUMPDEST SWAP2 POP POP SWAP3 SWAP6 POP SWAP3 SWAP6 SWAP1 SWAP4 POP JUMP JUMPDEST PUSH0 DUP2 SWAP1 POP SWAP2 SWAP1 POP JUMP JUMPDEST PUSH0 PUSH2 0x5323 PUSH2 0x531E PUSH2 0x5319 DUP5 PUSH2 0x41AF JUMP JUMPDEST PUSH2 0x5300 JUMP JUMPDEST PUSH2 0x41AF JUMP JUMPDEST SWAP1 POP SWAP2 SWAP1 POP JUMP JUMPDEST PUSH0 PUSH2 0x5334 DUP3 PUSH2 0x5309 JUMP JUMPDEST SWAP1 POP SWAP2 SWAP1 POP JUMP JUMPDEST PUSH0 PUSH2 0x5345 DUP3 PUSH2 0x532A JUMP JUMPDEST SWAP1 POP SWAP2 SWAP1 POP JUMP JUMPDEST PUSH2 0x5355 DUP2 PUSH2 0x533B JUMP JUMPDEST DUP3 MSTORE POP POP JUMP JUMPDEST PUSH0 PUSH1 0x20 DUP3 ADD SWAP1 POP PUSH2 0x536E PUSH0 DUP4 ADD DUP5 PUSH2 0x534C JUMP JUMPDEST SWAP3 SWAP2 POP POP JUMP JUMPDEST PUSH32 0x4E487B7100000000000000000000000000000000000000000000000000000000 PUSH0 MSTORE PUSH1 0x22 PUSH1 0x4 MSTORE PUSH1 0x24 PUSH0 REVERT JUMPDEST PUSH0 PUSH1 0x2 DUP3 DIV SWAP1 POP PUSH1 0x1 DUP3 AND DUP1 PUSH2 0x53B8 JUMPI PUSH1 0x7F DUP3 AND SWAP2 POP JUMPDEST PUSH1 0x20 DUP3 LT DUP2 SUB PUSH2 0x53CB JUMPI PUSH2 0x53CA PUSH2 0x5374 JUMP JUMPDEST JUMPDEST POP SWAP2 SWAP1 POP JUMP JUMPDEST PUSH0 PUSH2 0x53EB PUSH2 0x53E6 PUSH2 0x53E1 DUP5 PUSH2 0x4AC8 JUMP JUMPDEST PUSH2 0x5300 JUMP JUMPDEST PUSH2 0x4099 JUMP JUMPDEST SWAP1 POP SWAP2 SWAP1 POP JUMP JUMPDEST PUSH2 0x53FB DUP2 PUSH2 0x53D1 JUMP JUMPDEST DUP3 MSTORE POP POP JUMP JUMPDEST PUSH0 PUSH1 0x40 DUP3 ADD SWAP1 POP PUSH2 0x5414 PUSH0 DUP4 ADD DUP6 PUSH2 0x40A2 JUMP JUMPDEST PUSH2 0x5421 PUSH1 0x20 DUP4 ADD DUP5 PUSH2 0x53F2 JUMP JUMPDEST SWAP4 SWAP3 POP POP POP JUMP JUMPDEST PUSH32 0x4E487B7100000000000000000000000000000000000000000000000000000000 PUSH0 MSTORE PUSH1 0x32 PUSH1 0x4 MSTORE PUSH1 0x24 PUSH0 REVERT JUMPDEST PUSH0 PUSH1 0x40 DUP3 ADD SWAP1 POP PUSH2 0x5468 PUSH0 DUP4 ADD DUP6 PUSH2 0x40A2 JUMP JUMPDEST PUSH2 0x5475 PUSH1 0x20 DUP4 ADD DUP5 PUSH2 0x41DF JUMP JUMPDEST SWAP4 SWAP3 POP POP POP JUMP JUMPDEST PUSH0 PUSH2 0x548E PUSH2 0x5489 DUP5 PUSH2 0x4B9F JUMP JUMPDEST PUSH2 0x4297 JUMP JUMPDEST SWAP1 POP DUP3 DUP2 MSTORE PUSH1 0x20 DUP2 ADD DUP5 DUP5 DUP5 ADD GT ISZERO PUSH2 0x54AA JUMPI PUSH2 0x54A9 PUSH2 0x4235 JUMP JUMPDEST JUMPDEST PUSH2 0x54B5 DUP5 DUP3 DUP6 PUSH2 0x40E4 JUMP JUMPDEST POP SWAP4 SWAP3 POP POP POP JUMP JUMPDEST PUSH0 DUP3 PUSH1 0x1F DUP4 ADD SLT PUSH2 0x54D1 JUMPI PUSH2 0x54D0 PUSH2 0x4231 JUMP JUMPDEST JUMPDEST DUP2 MLOAD PUSH2 0x54E1 DUP5 DUP3 PUSH1 0x20 DUP7 ADD PUSH2 0x547C JUMP JUMPDEST SWAP2 POP POP SWAP3 SWAP2 POP POP JUMP JUMPDEST PUSH0 PUSH1 0x20 DUP3 DUP5 SUB SLT ISZERO PUSH2 0x54FF JUMPI PUSH2 0x54FE PUSH2 0x3FDE JUMP JUMPDEST JUMPDEST PUSH0 DUP3 ADD MLOAD PUSH8 0xFFFFFFFFFFFFFFFF DUP2 GT ISZERO PUSH2 0x551C JUMPI PUSH2 0x551B PUSH2 0x3FE2 JUMP JUMPDEST JUMPDEST PUSH2 0x5528 DUP5 DUP3 DUP6 ADD PUSH2 0x54BD JUMP JUMPDEST SWAP2 POP POP SWAP3 SWAP2 POP POP JUMP JUMPDEST PUSH32 0x4E487B7100000000000000000000000000000000000000000000000000000000 PUSH0 MSTORE PUSH1 0x11 PUSH1 0x4 MSTORE PUSH1 0x24 PUSH0 REVERT JUMPDEST PUSH0 PUSH2 0x5568 DUP3 PUSH2 0x4AC8 JUMP JUMPDEST SWAP2 POP PUSH2 0x5573 DUP4 PUSH2 0x4AC8 JUMP JUMPDEST SWAP3 POP DUP3 DUP3 SUB SWAP1 POP PUSH6 0xFFFFFFFFFFFF DUP2 GT ISZERO PUSH2 0x5591 JUMPI PUSH2 0x5590 PUSH2 0x5531 JUMP JUMPDEST JUMPDEST SWAP3 SWAP2 POP POP JUMP JUMPDEST PUSH0 PUSH1 0x60 DUP3 ADD SWAP1 POP PUSH2 0x55AA PUSH0 DUP4 ADD DUP7 PUSH2 0x41DF JUMP JUMPDEST PUSH2 0x55B7 PUSH1 0x20 DUP4 ADD DUP6 PUSH2 0x40A2 JUMP JUMPDEST PUSH2 0x55C4 PUSH1 0x40 DUP4 ADD DUP5 PUSH2 0x40A2 JUMP JUMPDEST SWAP5 SWAP4 POP POP POP POP JUMP JUMPDEST PUSH0 DUP2 MLOAD SWAP1 POP PUSH2 0x55DA DUP2 PUSH2 0x4AD9 JUMP JUMPDEST SWAP3 SWAP2 POP POP JUMP JUMPDEST PUSH0 PUSH1 0x20 DUP3 DUP5 SUB SLT ISZERO PUSH2 0x55F5 JUMPI PUSH2 0x55F4 PUSH2 0x3FDE JUMP JUMPDEST JUMPDEST PUSH0 PUSH2 0x5602 DUP5 DUP3 DUP6 ADD PUSH2 0x55CC JUMP JUMPDEST SWAP2 POP POP SWAP3 SWAP2 POP POP JUMP JUMPDEST PUSH0 PUSH2 0x5615 DUP3 PUSH2 0x4AC8 JUMP JUMPDEST SWAP2 POP PUSH2 0x5620 DUP4 PUSH2 0x4AC8 JUMP JUMPDEST SWAP3 POP DUP3 DUP3 ADD SWAP1 POP PUSH6 0xFFFFFFFFFFFF DUP2 GT ISZERO PUSH2 0x563E JUMPI PUSH2 0x563D PUSH2 0x5531 JUMP JUMPDEST JUMPDEST SWAP3 SWAP2 POP POP JUMP JUMPDEST PUSH0 DUP2 SWAP1 POP SWAP3 SWAP2 POP POP JUMP JUMPDEST PUSH0 PUSH2 0x5659 DUP4 DUP6 PUSH2 0x5644 JUMP JUMPDEST SWAP4 POP PUSH2 0x5666 DUP4 DUP6 DUP5 PUSH2 0x42E1 JUMP JUMPDEST DUP3 DUP5 ADD SWAP1 POP SWAP4 SWAP3 POP POP POP JUMP JUMPDEST PUSH0 PUSH2 0x567E DUP3 DUP5 DUP7 PUSH2 0x564E JUMP JUMPDEST SWAP2 POP DUP2 SWAP1 POP SWAP4 SWAP3 POP POP POP JUMP JUMPDEST PUSH0 DUP2 MLOAD SWAP1 POP SWAP2 SWAP1 POP JUMP JUMPDEST PUSH0 DUP3 DUP3 MSTORE PUSH1 0x20 DUP3 ADD SWAP1 POP SWAP3 SWAP2 POP POP JUMP JUMPDEST PUSH0 DUP2 SWAP1 POP PUSH1 0x20 DUP3 ADD SWAP1 POP SWAP2 SWAP1 POP JUMP JUMPDEST PUSH2 0x56BC DUP2 PUSH2 0x41CE JUMP JUMPDEST DUP3 MSTORE POP POP JUMP JUMPDEST PUSH0 PUSH2 0x56CD DUP4 DUP4 PUSH2 0x56B3 JUMP JUMPDEST PUSH1 0x20 DUP4 ADD SWAP1 POP SWAP3 SWAP2 POP POP JUMP JUMPDEST PUSH0 PUSH1 0x20 DUP3 ADD SWAP1 POP SWAP2 SWAP1 POP JUMP JUMPDEST PUSH0 PUSH2 0x56EF DUP3 PUSH2 0x568A JUMP JUMPDEST PUSH2 0x56F9 DUP2 DUP6 PUSH2 0x5694 JUMP JUMPDEST SWAP4 POP PUSH2 0x5704 DUP4 PUSH2 0x56A4 JUMP JUMPDEST DUP1 PUSH0 JUMPDEST DUP4 DUP2 LT ISZERO PUSH2 0x5734 JUMPI DUP2 MLOAD PUSH2 0x571B DUP9 DUP3 PUSH2 0x56C2 JUMP JUMPDEST SWAP8 POP PUSH2 0x5726 DUP4 PUSH2 0x56D9 JUMP JUMPDEST SWAP3 POP POP PUSH1 0x1 DUP2 ADD SWAP1 POP PUSH2 0x5707 JUMP JUMPDEST POP DUP6 SWAP4 POP POP POP POP SWAP3 SWAP2 POP POP JUMP JUMPDEST PUSH0 DUP2 MLOAD SWAP1 POP SWAP2 SWAP1 POP JUMP JUMPDEST PUSH0 DUP3 DUP3 MSTORE PUSH1 0x20 DUP3 ADD SWAP1 POP SWAP3 SWAP2 POP POP JUMP JUMPDEST PUSH0 DUP2 SWAP1 POP PUSH1 0x20 DUP3 ADD SWAP1 POP SWAP2 SWAP1 POP JUMP JUMPDEST PUSH0 DUP2 MLOAD SWAP1 POP SWAP2 SWAP1 POP JUMP JUMPDEST PUSH0 DUP3 DUP3 MSTORE PUSH1 0x20 DUP3 ADD SWAP1 POP SWAP3 SWAP2 POP POP JUMP JUMPDEST PUSH0 PUSH2 0x578E DUP3 PUSH2 0x576A JUMP JUMPDEST PUSH2 0x5798 DUP2 DUP6 PUSH2 0x5774 JUMP JUMPDEST SWAP4 POP PUSH2 0x57A8 DUP2 DUP6 PUSH1 0x20 DUP7 ADD PUSH2 0x40E4 JUMP JUMPDEST PUSH2 0x57B1 DUP2 PUSH2 0x40F2 JUMP JUMPDEST DUP5 ADD SWAP2 POP POP SWAP3 SWAP2 POP POP JUMP JUMPDEST PUSH0 PUSH2 0x57C7 DUP4 DUP4 PUSH2 0x5784 JUMP JUMPDEST SWAP1 POP SWAP3 SWAP2 POP POP JUMP JUMPDEST PUSH0 PUSH1 0x20 DUP3 ADD SWAP1 POP SWAP2 SWAP1 POP JUMP JUMPDEST PUSH0 PUSH2 0x57E5 DUP3 PUSH2 0x5741 JUMP JUMPDEST PUSH2 0x57EF DUP2 DUP6 PUSH2 0x574B JUMP JUMPDEST SWAP4 POP DUP4 PUSH1 0x20 DUP3 MUL DUP6 ADD PUSH2 0x5801 DUP6 PUSH2 0x575B JUMP JUMPDEST DUP1 PUSH0 JUMPDEST DUP6 DUP2 LT ISZERO PUSH2 0x583C JUMPI DUP5 DUP5 SUB DUP10 MSTORE DUP2 MLOAD PUSH2 0x581D DUP6 DUP3 PUSH2 0x57BC JUMP JUMPDEST SWAP5 POP PUSH2 0x5828 DUP4 PUSH2 0x57CF JUMP JUMPDEST SWAP3 POP PUSH1 0x20 DUP11 ADD SWAP10 POP POP PUSH1 0x1 DUP2 ADD SWAP1 POP PUSH2 0x5804 JUMP JUMPDEST POP DUP3 SWAP8 POP DUP8 SWAP6 POP POP POP POP POP POP SWAP3 SWAP2 POP POP JUMP JUMPDEST PUSH0 PUSH1 0x80 DUP3 ADD SWAP1 POP DUP2 DUP2 SUB PUSH0 DUP4 ADD MSTORE PUSH2 0x5866 DUP2 DUP8 PUSH2 0x56E5 JUMP JUMPDEST SWAP1 POP DUP2 DUP2 SUB PUSH1 0x20 DUP4 ADD MSTORE PUSH2 0x587A DUP2 DUP7 PUSH2 0x4DD1 JUMP JUMPDEST SWAP1 POP DUP2 DUP2 SUB PUSH1 0x40 DUP4 ADD MSTORE PUSH2 0x588E DUP2 DUP6 PUSH2 0x57DB JUMP JUMPDEST SWAP1 POP PUSH2 0x589D PUSH1 0x60 DUP4 ADD DUP5 PUSH2 0x4752 JUMP JUMPDEST SWAP6 SWAP5 POP POP POP POP POP JUMP JUMPDEST PUSH0 PUSH1 0x60 DUP3 ADD SWAP1 POP PUSH2 0x58B9 PUSH0 DUP4 ADD DUP7 PUSH2 0x40A2 JUMP JUMPDEST PUSH2 0x58C6 PUSH1 0x20 DUP4 ADD DUP6 PUSH2 0x47DE JUMP JUMPDEST PUSH2 0x58D3 PUSH1 0x40 DUP4 ADD DUP5 PUSH2 0x4752 JUMP JUMPDEST SWAP5 SWAP4 POP POP POP POP JUMP JUMPDEST PUSH2 0x58E4 DUP2 PUSH2 0x4066 JUMP JUMPDEST DUP2 EQ PUSH2 0x58EE JUMPI PUSH0 PUSH0 REVERT JUMPDEST POP JUMP JUMPDEST PUSH0 DUP2 MLOAD SWAP1 POP PUSH2 0x58FF DUP2 PUSH2 0x58DB JUMP JUMPDEST SWAP3 SWAP2 POP POP JUMP JUMPDEST PUSH0 PUSH1 0x20 DUP3 DUP5 SUB SLT ISZERO PUSH2 0x591A JUMPI PUSH2 0x5919 PUSH2 0x3FDE JUMP JUMPDEST JUMPDEST PUSH0 PUSH2 0x5927 DUP5 DUP3 DUP6 ADD PUSH2 0x58F1 JUMP JUMPDEST SWAP2 POP POP SWAP3 SWAP2 POP POP JUMP JUMPDEST PUSH2 0x5939 DUP2 PUSH2 0x4879 JUMP JUMPDEST DUP3 MSTORE POP POP JUMP JUMPDEST PUSH0 PUSH1 0xE0 DUP3 ADD SWAP1 POP PUSH2 0x5952 PUSH0 DUP4 ADD DUP11 PUSH2 0x4752 JUMP JUMPDEST PUSH2 0x595F PUSH1 0x20 DUP4 ADD DUP10 PUSH2 0x40A2 JUMP JUMPDEST PUSH2 0x596C PUSH1 0x40 DUP4 ADD DUP9 PUSH2 0x5930 JUMP JUMPDEST PUSH2 0x5979 PUSH1 0x60 DUP4 ADD DUP8 PUSH2 0x41DF JUMP JUMPDEST PUSH2 0x5986 PUSH1 0x80 DUP4 ADD DUP7 PUSH2 0x40A2 JUMP JUMPDEST PUSH2 0x5993 PUSH1 0xA0 DUP4 ADD DUP6 PUSH2 0x4752 JUMP JUMPDEST PUSH2 0x59A0 PUSH1 0xC0 DUP4 ADD DUP5 PUSH2 0x4752 JUMP JUMPDEST SWAP9 SWAP8 POP POP POP POP POP POP POP POP JUMP JUMPDEST PUSH0 PUSH1 0x80 DUP3 ADD SWAP1 POP PUSH2 0x59BF PUSH0 DUP4 ADD DUP8 PUSH2 0x40A2 JUMP JUMPDEST PUSH2 0x59CC PUSH1 0x20 DUP4 ADD DUP7 PUSH2 0x5930 JUMP JUMPDEST PUSH2 0x59D9 PUSH1 0x40 DUP4 ADD DUP6 PUSH2 0x40A2 JUMP JUMPDEST DUP2 DUP2 SUB PUSH1 0x60 DUP4 ADD MSTORE PUSH2 0x59EB DUP2 DUP5 PUSH2 0x4102 JUMP JUMPDEST SWAP1 POP SWAP6 SWAP5 POP POP POP POP POP JUMP JUMPDEST PUSH0 DUP3 DUP3 MSTORE PUSH1 0x20 DUP3 ADD SWAP1 POP SWAP3 SWAP2 POP POP JUMP JUMPDEST PUSH0 PUSH2 0x5A10 DUP3 PUSH2 0x576A JUMP JUMPDEST PUSH2 0x5A1A DUP2 DUP6 PUSH2 0x59F6 JUMP JUMPDEST SWAP4 POP PUSH2 0x5A2A DUP2 DUP6 PUSH1 0x20 DUP7 ADD PUSH2 0x40E4 JUMP JUMPDEST PUSH2 0x5A33 DUP2 PUSH2 0x40F2 JUMP JUMPDEST DUP5 ADD SWAP2 POP POP SWAP3 SWAP2 POP POP JUMP JUMPDEST PUSH0 PUSH1 0xA0 DUP3 ADD SWAP1 POP PUSH2 0x5A51 PUSH0 DUP4 ADD DUP9 PUSH2 0x40A2 JUMP JUMPDEST PUSH2 0x5A5E PUSH1 0x20 DUP4 ADD DUP8 PUSH2 0x5930 JUMP JUMPDEST PUSH2 0x5A6B PUSH1 0x40 DUP4 ADD DUP7 PUSH2 0x40A2 JUMP JUMPDEST DUP2 DUP2 SUB PUSH1 0x60 DUP4 ADD MSTORE PUSH2 0x5A7D DUP2 DUP6 PUSH2 0x4102 JUMP JUMPDEST SWAP1 POP DUP2 DUP2 SUB PUSH1 0x80 DUP4 ADD MSTORE PUSH2 0x5A91 DUP2 DUP5 PUSH2 0x5A06 JUMP JUMPDEST SWAP1 POP SWAP7 SWAP6 POP POP POP POP POP POP JUMP JUMPDEST PUSH0 PUSH1 0x40 DUP3 ADD SWAP1 POP PUSH2 0x5AB0 PUSH0 DUP4 ADD DUP6 PUSH2 0x53F2 JUMP JUMPDEST PUSH2 0x5ABD PUSH1 0x20 DUP4 ADD DUP5 PUSH2 0x53F2 JUMP JUMPDEST SWAP4 SWAP3 POP POP POP JUMP JUMPDEST PUSH0 PUSH2 0x5ACE DUP3 PUSH2 0x4099 JUMP JUMPDEST SWAP2 POP PUSH2 0x5AD9 DUP4 PUSH2 0x4099 JUMP JUMPDEST SWAP3 POP DUP3 DUP3 ADD SWAP1 POP DUP1 DUP3 GT ISZERO PUSH2 0x5AF1 JUMPI PUSH2 0x5AF0 PUSH2 0x5531 JUMP JUMPDEST JUMPDEST SWAP3 SWAP2 POP POP JUMP JUMPDEST PUSH0 DUP2 MLOAD SWAP1 POP SWAP2 SWAP1 POP JUMP JUMPDEST PUSH0 DUP3 DUP3 MSTORE PUSH1 0x20 DUP3 ADD SWAP1 POP SWAP3 SWAP2 POP POP JUMP JUMPDEST PUSH0 DUP2 SWAP1 POP PUSH1 0x20 DUP3 ADD SWAP1 POP SWAP2 SWAP1 POP JUMP JUMPDEST PUSH0 DUP3 DUP3 MSTORE PUSH1 0x20 DUP3 ADD SWAP1 POP SWAP3 SWAP2 POP POP JUMP JUMPDEST PUSH0 PUSH2 0x5B3A DUP3 PUSH2 0x40CA JUMP JUMPDEST PUSH2 0x5B44 DUP2 DUP6 PUSH2 0x5B20 JUMP JUMPDEST SWAP4 POP PUSH2 0x5B54 DUP2 DUP6 PUSH1 0x20 DUP7 ADD PUSH2 0x40E4 JUMP JUMPDEST PUSH2 0x5B5D DUP2 PUSH2 0x40F2 JUMP JUMPDEST DUP5 ADD SWAP2 POP POP SWAP3 SWAP2 POP POP JUMP JUMPDEST PUSH0 PUSH2 0x5B73 DUP4 DUP4 PUSH2 0x5B30 JUMP JUMPDEST SWAP1 POP SWAP3 SWAP2 POP POP JUMP JUMPDEST PUSH0 PUSH1 0x20 DUP3 ADD SWAP1 POP SWAP2 SWAP1 POP JUMP JUMPDEST PUSH0 PUSH2 0x5B91 DUP3 PUSH2 0x5AF7 JUMP JUMPDEST PUSH2 0x5B9B DUP2 DUP6 PUSH2 0x5B01 JUMP JUMPDEST SWAP4 POP DUP4 PUSH1 0x20 DUP3 MUL DUP6 ADD PUSH2 0x5BAD DUP6 PUSH2 0x5B11 JUMP JUMPDEST DUP1 PUSH0 JUMPDEST DUP6 DUP2 LT ISZERO PUSH2 0x5BE8 JUMPI DUP5 DUP5 SUB DUP10 MSTORE DUP2 MLOAD PUSH2 0x5BC9 DUP6 DUP3 PUSH2 0x5B68 JUMP JUMPDEST SWAP5 POP PUSH2 0x5BD4 DUP4 PUSH2 0x5B7B JUMP JUMPDEST SWAP3 POP PUSH1 0x20 DUP11 ADD SWAP10 POP POP PUSH1 0x1 DUP2 ADD SWAP1 POP PUSH2 0x5BB0 JUMP JUMPDEST POP DUP3 SWAP8 POP DUP8 SWAP6 POP POP POP POP POP POP SWAP3 SWAP2 POP POP JUMP JUMPDEST PUSH0 PUSH2 0x120 DUP3 ADD SWAP1 POP PUSH2 0x5C0E PUSH0 DUP4 ADD DUP13 PUSH2 0x40A2 JUMP JUMPDEST PUSH2 0x5C1B PUSH1 0x20 DUP4 ADD DUP12 PUSH2 0x41DF JUMP JUMPDEST DUP2 DUP2 SUB PUSH1 0x40 DUP4 ADD MSTORE PUSH2 0x5C2D DUP2 DUP11 PUSH2 0x56E5 JUMP JUMPDEST SWAP1 POP DUP2 DUP2 SUB PUSH1 0x60 DUP4 ADD MSTORE PUSH2 0x5C41 DUP2 DUP10 PUSH2 0x4DD1 JUMP JUMPDEST SWAP1 POP DUP2 DUP2 SUB PUSH1 0x80 DUP4 ADD MSTORE PUSH2 0x5C55 DUP2 DUP9 PUSH2 0x5B87 JUMP JUMPDEST SWAP1 POP DUP2 DUP2 SUB PUSH1 0xA0 DUP4 ADD MSTORE PUSH2 0x5C69 DUP2 DUP8 PUSH2 0x57DB JUMP JUMPDEST SWAP1 POP PUSH2 0x5C78 PUSH1 0xC0 DUP4 ADD DUP7 PUSH2 0x40A2 JUMP JUMPDEST PUSH2 0x5C85 PUSH1 0xE0 DUP4 ADD DUP6 PUSH2 0x40A2 JUMP JUMPDEST DUP2 DUP2 SUB PUSH2 0x100 DUP4 ADD MSTORE PUSH2 0x5C98 DUP2 DUP5 PUSH2 0x4102 JUMP JUMPDEST SWAP1 POP SWAP11 SWAP10 POP POP POP POP POP POP POP POP POP POP JUMP JUMPDEST PUSH0 PUSH1 0xA0 DUP3 ADD SWAP1 POP PUSH2 0x5CBB PUSH0 DUP4 ADD DUP9 PUSH2 0x4752 JUMP JUMPDEST PUSH2 0x5CC8 PUSH1 0x20 DUP4 ADD DUP8 PUSH2 0x40A2 JUMP JUMPDEST PUSH2 0x5CD5 PUSH1 0x40 DUP4 ADD DUP7 PUSH2 0x5930 JUMP JUMPDEST PUSH2 0x5CE2 PUSH1 0x60 DUP4 ADD DUP6 PUSH2 0x41DF JUMP JUMPDEST PUSH2 0x5CEF PUSH1 0x80 DUP4 ADD DUP5 PUSH2 0x40A2 JUMP JUMPDEST SWAP7 SWAP6 POP POP POP POP POP POP JUMP JUMPDEST PUSH0 PUSH1 0x40 DUP3 ADD SWAP1 POP PUSH2 0x5D0C PUSH0 DUP4 ADD DUP6 PUSH2 0x41DF JUMP JUMPDEST PUSH2 0x5D19 PUSH1 0x20 DUP4 ADD DUP5 PUSH2 0x40A2 JUMP JUMPDEST SWAP4 SWAP3 POP POP POP JUMP JUMPDEST PUSH0 DUP2 MLOAD SWAP1 POP PUSH2 0x5D2E DUP2 PUSH2 0x415A JUMP JUMPDEST SWAP3 SWAP2 POP POP JUMP JUMPDEST PUSH0 PUSH1 0x20 DUP3 DUP5 SUB SLT ISZERO PUSH2 0x5D49 JUMPI PUSH2 0x5D48 PUSH2 0x3FDE JUMP JUMPDEST JUMPDEST PUSH0 PUSH2 0x5D56 DUP5 DUP3 DUP6 ADD PUSH2 0x5D20 JUMP JUMPDEST SWAP2 POP POP SWAP3 SWAP2 POP POP JUMP JUMPDEST PUSH0 PUSH1 0x40 DUP3 ADD SWAP1 POP PUSH2 0x5D72 PUSH0 DUP4 ADD DUP6 PUSH2 0x41DF JUMP JUMPDEST PUSH2 0x5D7F PUSH1 0x20 DUP4 ADD DUP5 PUSH2 0x41DF JUMP JUMPDEST SWAP4 SWAP3 POP POP POP JUMP JUMPDEST PUSH0 DUP2 SWAP1 POP SWAP2 SWAP1 POP JUMP JUMPDEST PUSH0 PUSH2 0x5DA9 PUSH2 0x5DA4 PUSH2 0x5D9F DUP5 PUSH2 0x5D86 JUMP JUMPDEST PUSH2 0x5300 JUMP JUMPDEST PUSH2 0x4099 JUMP JUMPDEST SWAP1 POP SWAP2 SWAP1 POP JUMP JUMPDEST PUSH2 0x5DB9 DUP2 PUSH2 0x5D8F JUMP JUMPDEST DUP3 MSTORE POP POP JUMP JUMPDEST PUSH0 PUSH1 0x20 DUP3 ADD SWAP1 POP PUSH2 0x5DD2 PUSH0 DUP4 ADD DUP5 PUSH2 0x5DB0 JUMP JUMPDEST SWAP3 SWAP2 POP POP JUMP JUMPDEST PUSH0 PUSH2 0x5DF2 PUSH2 0x5DED PUSH2 0x5DE8 DUP5 PUSH2 0x51CB JUMP JUMPDEST PUSH2 0x5300 JUMP JUMPDEST PUSH2 0x4099 JUMP JUMPDEST SWAP1 POP SWAP2 SWAP1 POP JUMP JUMPDEST PUSH2 0x5E02 DUP2 PUSH2 0x5DD8 JUMP JUMPDEST DUP3 MSTORE POP POP JUMP JUMPDEST PUSH0 PUSH1 0x40 DUP3 ADD SWAP1 POP PUSH2 0x5E1B PUSH0 DUP4 ADD DUP6 PUSH2 0x5DF9 JUMP JUMPDEST PUSH2 0x5E28 PUSH1 0x20 DUP4 ADD DUP5 PUSH2 0x5DF9 JUMP JUMPDEST SWAP4 SWAP3 POP POP POP JUMP JUMPDEST PUSH0 PUSH1 0x40 DUP3 ADD SWAP1 POP PUSH2 0x5E42 PUSH0 DUP4 ADD DUP6 PUSH2 0x40A2 JUMP JUMPDEST PUSH2 0x5E4F PUSH1 0x20 DUP4 ADD DUP5 PUSH2 0x40A2 JUMP JUMPDEST SWAP4 SWAP3 POP POP POP JUMP JUMPDEST PUSH0 DUP2 PUSH0 SHL SWAP1 POP SWAP2 SWAP1 POP JUMP JUMPDEST PUSH0 PUSH2 0x5E7B PUSH2 0x5E76 PUSH2 0x5E71 DUP5 PUSH2 0x5D86 JUMP JUMPDEST PUSH2 0x5E56 JUMP JUMPDEST PUSH2 0x4667 JUMP JUMPDEST SWAP1 POP SWAP2 SWAP1 POP JUMP JUMPDEST PUSH2 0x5E8B DUP2 PUSH2 0x5E61 JUMP JUMPDEST DUP3 MSTORE POP POP JUMP JUMPDEST PUSH0 PUSH1 0xA0 DUP3 ADD SWAP1 POP DUP2 DUP2 SUB PUSH0 DUP4 ADD MSTORE PUSH2 0x5EA9 DUP2 DUP9 PUSH2 0x56E5 JUMP JUMPDEST SWAP1 POP DUP2 DUP2 SUB PUSH1 0x20 DUP4 ADD MSTORE PUSH2 0x5EBD DUP2 DUP8 PUSH2 0x4DD1 JUMP JUMPDEST SWAP1 POP DUP2 DUP2 SUB PUSH1 0x40 DUP4 ADD MSTORE PUSH2 0x5ED1 DUP2 DUP7 PUSH2 0x57DB JUMP JUMPDEST SWAP1 POP PUSH2 0x5EE0 PUSH1 0x60 DUP4 ADD DUP6 PUSH2 0x5E82 JUMP JUMPDEST PUSH2 0x5EED PUSH1 0x80 DUP4 ADD DUP5 PUSH2 0x4752 JUMP JUMPDEST SWAP7 SWAP6 POP POP POP POP POP POP JUMP JUMPDEST PUSH0 DUP2 MLOAD SWAP1 POP PUSH2 0x5F05 DUP2 PUSH2 0x4670 JUMP JUMPDEST SWAP3 SWAP2 POP POP JUMP JUMPDEST PUSH0 PUSH1 0x20 DUP3 DUP5 SUB SLT ISZERO PUSH2 0x5F20 JUMPI PUSH2 0x5F1F PUSH2 0x3FDE JUMP JUMPDEST JUMPDEST PUSH0 PUSH2 0x5F2D DUP5 DUP3 DUP6 ADD PUSH2 0x5EF7 JUMP JUMPDEST SWAP2 POP POP SWAP3 SWAP2 POP POP JUMP JUMPDEST PUSH0 PUSH1 0xC0 DUP3 ADD SWAP1 POP DUP2 DUP2 SUB PUSH0 DUP4 ADD MSTORE PUSH2 0x5F4E DUP2 DUP10 PUSH2 0x56E5 JUMP JUMPDEST SWAP1 POP DUP2 DUP2 SUB PUSH1 0x20 DUP4 ADD MSTORE PUSH2 0x5F62 DUP2 DUP9 PUSH2 0x4DD1 JUMP JUMPDEST SWAP1 POP DUP2 DUP2 SUB PUSH1 0x40 DUP4 ADD MSTORE PUSH2 0x5F76 DUP2 DUP8 PUSH2 0x57DB JUMP JUMPDEST SWAP1 POP PUSH2 0x5F85 PUSH1 0x60 DUP4 ADD DUP7 PUSH2 0x5E82 JUMP JUMPDEST PUSH2 0x5F92 PUSH1 0x80 DUP4 ADD DUP6 PUSH2 0x4752 JUMP JUMPDEST PUSH2 0x5F9F PUSH1 0xA0 DUP4 ADD DUP5 PUSH2 0x40A2 JUMP JUMPDEST SWAP8 SWAP7 POP POP POP POP POP POP POP JUMP JUMPDEST PUSH0 PUSH2 0x5FB4 DUP3 PUSH2 0x4099 JUMP JUMPDEST SWAP2 POP PUSH2 0x5FBF DUP4 PUSH2 0x4099 JUMP JUMPDEST SWAP3 POP DUP3 DUP3 MUL PUSH2 0x5FCD DUP2 PUSH2 0x4099 JUMP JUMPDEST SWAP2 POP DUP3 DUP3 DIV DUP5 EQ DUP4 ISZERO OR PUSH2 0x5FE4 JUMPI PUSH2 0x5FE3 PUSH2 0x5531 JUMP JUMPDEST JUMPDEST POP SWAP3 SWAP2 POP POP JUMP JUMPDEST PUSH0 PUSH2 0x5FF5 DUP3 PUSH2 0x4099 JUMP JUMPDEST SWAP2 POP PUSH2 0x6000 DUP4 PUSH2 0x4099 JUMP JUMPDEST SWAP3 POP DUP3 DUP3 SUB SWAP1 POP DUP2 DUP2 GT ISZERO PUSH2 0x6018 JUMPI PUSH2 0x6017 PUSH2 0x5531 JUMP JUMPDEST JUMPDEST SWAP3 SWAP2 POP POP JUMP JUMPDEST PUSH0 DUP2 SWAP1 POP SWAP2 SWAP1 POP JUMP JUMPDEST PUSH0 PUSH2 0x6041 PUSH2 0x603C PUSH2 0x6037 DUP5 PUSH2 0x601E JUMP JUMPDEST PUSH2 0x5300 JUMP JUMPDEST PUSH2 0x4879 JUMP JUMPDEST SWAP1 POP SWAP2 SWAP1 POP JUMP JUMPDEST PUSH2 0x6051 DUP2 PUSH2 0x6027 JUMP JUMPDEST DUP3 MSTORE POP POP JUMP JUMPDEST PUSH0 PUSH1 0x40 DUP3 ADD SWAP1 POP PUSH2 0x606A PUSH0 DUP4 ADD DUP6 PUSH2 0x6048 JUMP JUMPDEST PUSH2 0x6077 PUSH1 0x20 DUP4 ADD DUP5 PUSH2 0x40A2 JUMP JUMPDEST SWAP4 SWAP3 POP POP POP JUMP JUMPDEST PUSH0 DUP2 SWAP1 POP SWAP2 SWAP1 POP JUMP JUMPDEST PUSH0 PUSH2 0x60A1 PUSH2 0x609C PUSH2 0x6097 DUP5 PUSH2 0x607E JUMP JUMPDEST PUSH2 0x5300 JUMP JUMPDEST PUSH2 0x4879 JUMP JUMPDEST SWAP1 POP SWAP2 SWAP1 POP JUMP JUMPDEST PUSH2 0x60B1 DUP2 PUSH2 0x6087 JUMP JUMPDEST DUP3 MSTORE POP POP JUMP JUMPDEST PUSH0 PUSH1 0x40 DUP3 ADD SWAP1 POP PUSH2 0x60CA PUSH0 DUP4 ADD DUP6 PUSH2 0x60A8 JUMP JUMPDEST PUSH2 0x60D7 PUSH1 0x20 DUP4 ADD DUP5 PUSH2 0x40A2 JUMP JUMPDEST SWAP4 SWAP3 POP POP POP JUMP JUMPDEST PUSH0 PUSH2 0x60E8 DUP3 PUSH2 0x4879 JUMP JUMPDEST SWAP2 POP PUSH2 0x60F3 DUP4 PUSH2 0x4879 JUMP JUMPDEST SWAP3 POP DUP3 DUP3 ADD SWAP1 POP PUSH1 0xFF DUP2 GT ISZERO PUSH2 0x610C JUMPI PUSH2 0x610B PUSH2 0x5531 JUMP JUMPDEST JUMPDEST SWAP3 SWAP2 POP POP JUMP JUMPDEST PUSH0 DUP2 PUSH1 0x1 SHR SWAP1 POP SWAP2 SWAP1 POP JUMP JUMPDEST PUSH0 PUSH0 DUP3 SWAP2 POP DUP4 SWAP1 POP JUMPDEST PUSH1 0x1 DUP6 GT ISZERO PUSH2 0x6167 JUMPI DUP1 DUP7 DIV DUP2 GT ISZERO PUSH2 0x6143 JUMPI PUSH2 0x6142 PUSH2 0x5531 JUMP JUMPDEST JUMPDEST PUSH1 0x1 DUP6 AND ISZERO PUSH2 0x6152 JUMPI DUP1 DUP3 MUL SWAP2 POP JUMPDEST DUP1 DUP2 MUL SWAP1 POP PUSH2 0x6160 DUP6 PUSH2 0x6112 JUMP JUMPDEST SWAP5 POP PUSH2 0x6127 JUMP JUMPDEST SWAP5 POP SWAP5 SWAP3 POP POP POP JUMP JUMPDEST PUSH0 DUP3 PUSH2 0x617F JUMPI PUSH1 0x1 SWAP1 POP PUSH2 0x623A JUMP JUMPDEST DUP2 PUSH2 0x618C JUMPI PUSH0 SWAP1 POP PUSH2 0x623A JUMP JUMPDEST DUP2 PUSH1 0x1 DUP2 EQ PUSH2 0x61A2 JUMPI PUSH1 0x2 DUP2 EQ PUSH2 0x61AC JUMPI PUSH2 0x61DB JUMP JUMPDEST PUSH1 0x1 SWAP2 POP POP PUSH2 0x623A JUMP JUMPDEST PUSH1 0xFF DUP5 GT ISZERO PUSH2 0x61BE JUMPI PUSH2 0x61BD PUSH2 0x5531 JUMP JUMPDEST JUMPDEST DUP4 PUSH1 0x2 EXP SWAP2 POP DUP5 DUP3 GT ISZERO PUSH2 0x61D5 JUMPI PUSH2 0x61D4 PUSH2 0x5531 JUMP JUMPDEST JUMPDEST POP PUSH2 0x623A JUMP JUMPDEST POP PUSH1 0x20 DUP4 LT PUSH2 0x133 DUP4 LT AND PUSH1 0x4E DUP5 LT PUSH1 0xB DUP5 LT AND OR ISZERO PUSH2 0x6210 JUMPI DUP3 DUP3 EXP SWAP1 POP DUP4 DUP2 GT ISZERO PUSH2 0x620B JUMPI PUSH2 0x620A PUSH2 0x5531 JUMP JUMPDEST JUMPDEST PUSH2 0x623A JUMP JUMPDEST PUSH2 0x621D DUP5 DUP5 DUP5 PUSH1 0x1 PUSH2 0x611E JUMP JUMPDEST SWAP3 POP SWAP1 POP DUP2 DUP5 DIV DUP2 GT ISZERO PUSH2 0x6234 JUMPI PUSH2 0x6233 PUSH2 0x5531 JUMP JUMPDEST JUMPDEST DUP2 DUP2 MUL SWAP1 POP JUMPDEST SWAP4 SWAP3 POP POP POP JUMP JUMPDEST PUSH0 PUSH2 0x624B DUP3 PUSH2 0x4099 JUMP JUMPDEST SWAP2 POP PUSH2 0x6256 DUP4 PUSH2 0x4879 JUMP JUMPDEST SWAP3 POP PUSH2 0x6283 PUSH32 0xFFFFFFFFFFFFFFFFFFFFFFFFFFFFFFFFFFFFFFFFFFFFFFFFFFFFFFFFFFFFFFFF DUP5 DUP5 PUSH2 0x6170 JUMP JUMPDEST SWAP1 POP SWAP3 SWAP2 POP POP JUMP JUMPDEST PUSH0 PUSH1 0xA0 DUP3 ADD SWAP1 POP PUSH2 0x629E PUSH0 DUP4 ADD DUP9 PUSH2 0x4752 JUMP JUMPDEST PUSH2 0x62AB PUSH1 0x20 DUP4 ADD DUP8 PUSH2 0x4752 JUMP JUMPDEST PUSH2 0x62B8 PUSH1 0x40 DUP4 ADD DUP7 PUSH2 0x4752 JUMP JUMPDEST PUSH2 0x62C5 PUSH1 0x60 DUP4 ADD DUP6 PUSH2 0x40A2 JUMP JUMPDEST PUSH2 0x62D2 PUSH1 0x80 DUP4 ADD DUP5 PUSH2 0x41DF JUMP JUMPDEST SWAP7 SWAP6 POP POP POP POP POP POP JUMP JUMPDEST PUSH0 PUSH1 0x80 DUP3 ADD SWAP1 POP PUSH2 0x62EF PUSH0 DUP4 ADD DUP8 PUSH2 0x4752 JUMP JUMPDEST PUSH2 0x62FC PUSH1 0x20 DUP4 ADD DUP7 PUSH2 0x5930 JUMP JUMPDEST PUSH2 0x6309 PUSH1 0x40 DUP4 ADD DUP6 PUSH2 0x4752 JUMP JUMPDEST PUSH2 0x6316 PUSH1 0x60 DUP4 ADD DUP5 PUSH2 0x4752 JUMP JUMPDEST SWAP6 SWAP5 POP POP POP POP POP JUMP INVALID LOG2 PUSH5 0x6970667358 0x22 SLT KECCAK256 ADDMOD COINBASE 0xB6 0xA7 LOG4 0xB7 0xE9 DUP4 DUP16 PUSH8 0x7DC953EBB844EFED POP DUP16 0xC3 0x2E 0xBF PUSH31 0xEE3D010F9C94EDB864736F6C634300081F0033000000000000000000000000 "
		},
		"gasEstimates": {
			"creation": {
				"codeDepositCost": "5085800",
				"executionCost": "infinite",
				"totalCost": "infinite"
			},
			"external": {
				"BALLOT_TYPEHASH()": "480",
				"CLOCK_MODE()": "infinite",
				"COUNTING_MODE()": "infinite",
				"EXTENDED_BALLOT_TYPEHASH()": "437",
				"cancel(address[],uint256[],bytes[],bytes32)": "infinite",
				"castVote(uint256,uint8)": "infinite",
				"castVoteBySig(uint256,uint8,address,bytes)": "infinite",
				"castVoteWithReason(uint256,uint8,string)": "infinite",
				"castVoteWithReasonAndParams(uint256,uint8,string,bytes)": "infinite",
				"castVoteWithReasonAndParamsBySig(uint256,uint8,address,string,bytes,bytes)": "infinite",
				"clock()": "infinite",
				"eip712Domain()": "infinite",
				"execute(address[],uint256[],bytes[],bytes32)": "infinite",
				"getProposalId(address[],uint256[],bytes[],bytes32)": "infinite",
				"getVotes(address,uint256)": "infinite",
				"getVotesWithParams(address,uint256,bytes)": "infinite",
				"hasVoted(uint256,address)": "3168",
				"hashProposal(address[],uint256[],bytes[],bytes32)": "infinite",
				"name()": "infinite",
				"nonces(address)": "2875",
				"onERC1155BatchReceived(address,address,uint256[],uint256[],bytes)": "infinite",
				"onERC1155Received(address,address,uint256,uint256,bytes)": "infinite",
				"onERC721Received(address,address,uint256,bytes)": "infinite",
				"proposalDeadline(uint256)": "infinite",
				"proposalEta(uint256)": "infinite",
				"proposalNeedsQueuing(uint256)": "730",
				"proposalProposer(uint256)": "2970",
				"proposalSnapshot(uint256)": "infinite",
				"proposalThreshold()": "2599",
				"proposalVotes(uint256)": "infinite",
				"propose(address[],uint256[],bytes[],string)": "infinite",
				"queue(address[],uint256[],bytes[],bytes32)": "infinite",
				"quorum(uint256)": "infinite",
				"relay(address,uint256,bytes)": "infinite",
				"setProposalThreshold(uint256)": "infinite",
				"setVotingDelay(uint48)": "infinite",
				"setVotingPeriod(uint32)": "infinite",
				"state(uint256)": "infinite",
				"supportsInterface(bytes4)": "868",
				"timelock()": "2626",
				"token()": "infinite",
				"updateTimelock(address)": "infinite",
				"version()": "infinite",
				"votingDelay()": "2607",
				"votingPeriod()": "2593"
			},
			"internal": {
				"_cancel(address[] memory,uint256[] memory,bytes memory[] memory,bytes32)": "infinite",
				"_executeOperations(uint256,address[] memory,uint256[] memory,bytes memory[] memory,bytes32)": "infinite",
				"_executor()": "2191",
				"_queueOperations(uint256,address[] memory,uint256[] memory,bytes memory[] memory,bytes32)": "infinite"
			}
		},
		"methodIdentifiers": {
			"BALLOT_TYPEHASH()": "deaaa7cc",
			"CLOCK_MODE()": "4bf5d7e9",
			"COUNTING_MODE()": "dd4e2ba5",
			"EXTENDED_BALLOT_TYPEHASH()": "2fe3e261",
			"cancel(address[],uint256[],bytes[],bytes32)": "452115d6",
			"castVote(uint256,uint8)": "56781388",
			"castVoteBySig(uint256,uint8,address,bytes)": "8ff262e3",
			"castVoteWithReason(uint256,uint8,string)": "7b3c71d3",
			"castVoteWithReasonAndParams(uint256,uint8,string,bytes)": "5f398a14",
			"castVoteWithReasonAndParamsBySig(uint256,uint8,address,string,bytes,bytes)": "5b8d0e0d",
			"clock()": "91ddadf4",
			"eip712Domain()": "84b0196e",
			"execute(address[],uint256[],bytes[],bytes32)": "2656227d",
			"getProposalId(address[],uint256[],bytes[],bytes32)": "a8f8a668",
			"getVotes(address,uint256)": "eb9019d4",
			"getVotesWithParams(address,uint256,bytes)": "9a802a6d",
			"hasVoted(uint256,address)": "43859632",
			"hashProposal(address[],uint256[],bytes[],bytes32)": "c59057e4",
			"name()": "06fdde03",
			"nonces(address)": "7ecebe00",
			"onERC1155BatchReceived(address,address,uint256[],uint256[],bytes)": "bc197c81",
			"onERC1155Received(address,address,uint256,uint256,bytes)": "f23a6e61",
			"onERC721Received(address,address,uint256,bytes)": "150b7a02",
			"proposalDeadline(uint256)": "c01f9e37",
			"proposalEta(uint256)": "ab58fb8e",
			"proposalNeedsQueuing(uint256)": "a9a95294",
			"proposalProposer(uint256)": "143489d0",
			"proposalSnapshot(uint256)": "2d63f693",
			"proposalThreshold()": "b58131b0",
			"proposalVotes(uint256)": "544ffc9c",
			"propose(address[],uint256[],bytes[],string)": "7d5e81e2",
			"queue(address[],uint256[],bytes[],bytes32)": "160cbed7",
			"quorum(uint256)": "f8ce560a",
			"relay(address,uint256,bytes)": "c28bc2fa",
			"setProposalThreshold(uint256)": "ece40cc1",
			"setVotingDelay(uint48)": "79051887",
			"setVotingPeriod(uint32)": "e540d01d",
			"state(uint256)": "3e4f49e6",
			"supportsInterface(bytes4)": "01ffc9a7",
			"timelock()": "d33219b4",
			"token()": "fc0c546a",
			"updateTimelock(address)": "a890c910",
			"version()": "54fd4d50",
			"votingDelay()": "3932abb1",
			"votingPeriod()": "02a251a3"
		}
	},
	"abi": [
		{
			"inputs": [
				{
					"internalType": "contract IVotes",
					"name": "_token",
					"type": "address"
				},
				{
					"internalType": "contract TimelockController",
					"name": "_timelock",
					"type": "address"
				}
			],
			"stateMutability": "nonpayable",
			"type": "constructor"
		},
		{
			"inputs": [],
			"name": "FailedCall",
			"type": "error"
		},
		{
			"inputs": [
				{
					"internalType": "address",
					"name": "voter",
					"type": "address"
				}
			],
			"name": "GovernorAlreadyCastVote",
			"type": "error"
		},
		{
			"inputs": [
				{
					"internalType": "uint256",
					"name": "proposalId",
					"type": "uint256"
				}
			],
			"name": "GovernorAlreadyQueuedProposal",
			"type": "error"
		},
		{
			"inputs": [],
			"name": "GovernorDisabledDeposit",
			"type": "error"
		},
		{
			"inputs": [
				{
					"internalType": "address",
					"name": "proposer",
					"type": "address"
				},
				{
					"internalType": "uint256",
					"name": "votes",
					"type": "uint256"
				},
				{
					"internalType": "uint256",
					"name": "threshold",
					"type": "uint256"
				}
			],
			"name": "GovernorInsufficientProposerVotes",
			"type": "error"
		},
		{
			"inputs": [
				{
					"internalType": "uint256",
					"name": "targets",
					"type": "uint256"
				},
				{
					"internalType": "uint256",
					"name": "calldatas",
					"type": "uint256"
				},
				{
					"internalType": "uint256",
					"name": "values",
					"type": "uint256"
				}
			],
			"name": "GovernorInvalidProposalLength",
			"type": "error"
		},
		{
			"inputs": [
				{
					"internalType": "address",
					"name": "voter",
					"type": "address"
				}
			],
			"name": "GovernorInvalidSignature",
			"type": "error"
		},
		{
			"inputs": [],
			"name": "GovernorInvalidVoteParams",
			"type": "error"
		},
		{
			"inputs": [],
			"name": "GovernorInvalidVoteType",
			"type": "error"
		},
		{
			"inputs": [
				{
					"internalType": "uint256",
					"name": "votingPeriod",
					"type": "uint256"
				}
			],
			"name": "GovernorInvalidVotingPeriod",
			"type": "error"
		},
		{
			"inputs": [
				{
					"internalType": "uint256",
					"name": "proposalId",
					"type": "uint256"
				}
			],
			"name": "GovernorNonexistentProposal",
			"type": "error"
		},
		{
			"inputs": [
				{
					"internalType": "uint256",
					"name": "proposalId",
					"type": "uint256"
				}
			],
			"name": "GovernorNotQueuedProposal",
			"type": "error"
		},
		{
			"inputs": [
				{
					"internalType": "address",
					"name": "account",
					"type": "address"
				}
			],
			"name": "GovernorOnlyExecutor",
			"type": "error"
		},
		{
			"inputs": [],
			"name": "GovernorQueueNotImplemented",
			"type": "error"
		},
		{
			"inputs": [
				{
					"internalType": "address",
					"name": "proposer",
					"type": "address"
				}
			],
			"name": "GovernorRestrictedProposer",
			"type": "error"
		},
		{
			"inputs": [
				{
					"internalType": "uint256",
					"name": "proposalId",
					"type": "uint256"
				},
				{
					"internalType": "address",
					"name": "account",
					"type": "address"
				}
			],
			"name": "GovernorUnableToCancel",
			"type": "error"
		},
		{
			"inputs": [
				{
					"internalType": "uint256",
					"name": "proposalId",
					"type": "uint256"
				},
				{
					"internalType": "enum IGovernor.ProposalState",
					"name": "current",
					"type": "uint8"
				},
				{
					"internalType": "bytes32",
					"name": "expectedStates",
					"type": "bytes32"
				}
			],
			"name": "GovernorUnexpectedProposalState",
			"type": "error"
		},
		{
			"inputs": [
				{
					"internalType": "address",
					"name": "account",
					"type": "address"
				},
				{
					"internalType": "uint256",
					"name": "currentNonce",
					"type": "uint256"
				}
			],
			"name": "InvalidAccountNonce",
			"type": "error"
		},
		{
			"inputs": [],
			"name": "InvalidShortString",
			"type": "error"
		},
		{
			"inputs": [
				{
					"internalType": "uint8",
					"name": "bits",
					"type": "uint8"
				},
				{
					"internalType": "uint256",
					"name": "value",
					"type": "uint256"
				}
			],
			"name": "SafeCastOverflowedUintDowncast",
			"type": "error"
		},
		{
			"inputs": [
				{
					"internalType": "string",
					"name": "str",
					"type": "string"
				}
			],
			"name": "StringTooLong",
			"type": "error"
		},
		{
			"anonymous": false,
			"inputs": [],
			"name": "EIP712DomainChanged",
			"type": "event"
		},
		{
			"anonymous": false,
			"inputs": [
				{
					"indexed": false,
					"internalType": "uint256",
					"name": "proposalId",
					"type": "uint256"
				}
			],
			"name": "ProposalCanceled",
			"type": "event"
		},
		{
			"anonymous": false,
			"inputs": [
				{
					"indexed": false,
					"internalType": "uint256",
					"name": "proposalId",
					"type": "uint256"
				},
				{
					"indexed": false,
					"internalType": "address",
					"name": "proposer",
					"type": "address"
				},
				{
					"indexed": false,
					"internalType": "address[]",
					"name": "targets",
					"type": "address[]"
				},
				{
					"indexed": false,
					"internalType": "uint256[]",
					"name": "values",
					"type": "uint256[]"
				},
				{
					"indexed": false,
					"internalType": "string[]",
					"name": "signatures",
					"type": "string[]"
				},
				{
					"indexed": false,
					"internalType": "bytes[]",
					"name": "calldatas",
					"type": "bytes[]"
				},
				{
					"indexed": false,
					"internalType": "uint256",
					"name": "voteStart",
					"type": "uint256"
				},
				{
					"indexed": false,
					"internalType": "uint256",
					"name": "voteEnd",
					"type": "uint256"
				},
				{
					"indexed": false,
					"internalType": "string",
					"name": "description",
					"type": "string"
				}
			],
			"name": "ProposalCreated",
			"type": "event"
		},
		{
			"anonymous": false,
			"inputs": [
				{
					"indexed": false,
					"internalType": "uint256",
					"name": "proposalId",
					"type": "uint256"
				}
			],
			"name": "ProposalExecuted",
			"type": "event"
		},
		{
			"anonymous": false,
			"inputs": [
				{
					"indexed": false,
					"internalType": "uint256",
					"name": "proposalId",
					"type": "uint256"
				},
				{
					"indexed": false,
					"internalType": "uint256",
					"name": "etaSeconds",
					"type": "uint256"
				}
			],
			"name": "ProposalQueued",
			"type": "event"
		},
		{
			"anonymous": false,
			"inputs": [
				{
					"indexed": false,
					"internalType": "uint256",
					"name": "oldProposalThreshold",
					"type": "uint256"
				},
				{
					"indexed": false,
					"internalType": "uint256",
					"name": "newProposalThreshold",
					"type": "uint256"
				}
			],
			"name": "ProposalThresholdSet",
			"type": "event"
		},
		{
			"anonymous": false,
			"inputs": [
				{
					"indexed": false,
					"internalType": "address",
					"name": "oldTimelock",
					"type": "address"
				},
				{
					"indexed": false,
					"internalType": "address",
					"name": "newTimelock",
					"type": "address"
				}
			],
			"name": "TimelockChange",
			"type": "event"
		},
		{
			"anonymous": false,
			"inputs": [
				{
					"indexed": true,
					"internalType": "address",
					"name": "voter",
					"type": "address"
				},
				{
					"indexed": false,
					"internalType": "uint256",
					"name": "proposalId",
					"type": "uint256"
				},
				{
					"indexed": false,
					"internalType": "uint8",
					"name": "support",
					"type": "uint8"
				},
				{
					"indexed": false,
					"internalType": "uint256",
					"name": "weight",
					"type": "uint256"
				},
				{
					"indexed": false,
					"internalType": "string",
					"name": "reason",
					"type": "string"
				}
			],
			"name": "VoteCast",
			"type": "event"
		},
		{
			"anonymous": false,
			"inputs": [
				{
					"indexed": true,
					"internalType": "address",
					"name": "voter",
					"type": "address"
				},
				{
					"indexed": false,
					"internalType": "uint256",
					"name": "proposalId",
					"type": "uint256"
				},
				{
					"indexed": false,
					"internalType": "uint8",
					"name": "support",
					"type": "uint8"
				},
				{
					"indexed": false,
					"internalType": "uint256",
					"name": "weight",
					"type": "uint256"
				},
				{
					"indexed": false,
					"internalType": "string",
					"name": "reason",
					"type": "string"
				},
				{
					"indexed": false,
					"internalType": "bytes",
					"name": "params",
					"type": "bytes"
				}
			],
			"name": "VoteCastWithParams",
			"type": "event"
		},
		{
			"anonymous": false,
			"inputs": [
				{
					"indexed": false,
					"internalType": "uint256",
					"name": "oldVotingDelay",
					"type": "uint256"
				},
				{
					"indexed": false,
					"internalType": "uint256",
					"name": "newVotingDelay",
					"type": "uint256"
				}
			],
			"name": "VotingDelaySet",
			"type": "event"
		},
		{
			"anonymous": false,
			"inputs": [
				{
					"indexed": false,
					"internalType": "uint256",
					"name": "oldVotingPeriod",
					"type": "uint256"
				},
				{
					"indexed": false,
					"internalType": "uint256",
					"name": "newVotingPeriod",
					"type": "uint256"
				}
			],
			"name": "VotingPeriodSet",
			"type": "event"
		},
		{
			"inputs": [],
			"name": "BALLOT_TYPEHASH",
			"outputs": [
				{
					"internalType": "bytes32",
					"name": "",
					"type": "bytes32"
				}
			],
			"stateMutability": "view",
			"type": "function"
		},
		{
			"inputs": [],
			"name": "CLOCK_MODE",
			"outputs": [
				{
					"internalType": "string",
					"name": "",
					"type": "string"
				}
			],
			"stateMutability": "view",
			"type": "function"
		},
		{
			"inputs": [],
			"name": "COUNTING_MODE",
			"outputs": [
				{
					"internalType": "string",
					"name": "",
					"type": "string"
				}
			],
			"stateMutability": "pure",
			"type": "function"
		},
		{
			"inputs": [],
			"name": "EXTENDED_BALLOT_TYPEHASH",
			"outputs": [
				{
					"internalType": "bytes32",
					"name": "",
					"type": "bytes32"
				}
			],
			"stateMutability": "view",
			"type": "function"
		},
		{
			"inputs": [
				{
					"internalType": "address[]",
					"name": "targets",
					"type": "address[]"
				},
				{
					"internalType": "uint256[]",
					"name": "values",
					"type": "uint256[]"
				},
				{
					"internalType": "bytes[]",
					"name": "calldatas",
					"type": "bytes[]"
				},
				{
					"internalType": "bytes32",
					"name": "descriptionHash",
					"type": "bytes32"
				}
			],
			"name": "cancel",
			"outputs": [
				{
					"internalType": "uint256",
					"name": "",
					"type": "uint256"
				}
			],
			"stateMutability": "nonpayable",
			"type": "function"
		},
		{
			"inputs": [
				{
					"internalType": "uint256",
					"name": "proposalId",
					"type": "uint256"
				},
				{
					"internalType": "uint8",
					"name": "support",
					"type": "uint8"
				}
			],
			"name": "castVote",
			"outputs": [
				{
					"internalType": "uint256",
					"name": "",
					"type": "uint256"
				}
			],
			"stateMutability": "nonpayable",
			"type": "function"
		},
		{
			"inputs": [
				{
					"internalType": "uint256",
					"name": "proposalId",
					"type": "uint256"
				},
				{
					"internalType": "uint8",
					"name": "support",
					"type": "uint8"
				},
				{
					"internalType": "address",
					"name": "voter",
					"type": "address"
				},
				{
					"internalType": "bytes",
					"name": "signature",
					"type": "bytes"
				}
			],
			"name": "castVoteBySig",
			"outputs": [
				{
					"internalType": "uint256",
					"name": "",
					"type": "uint256"
				}
			],
			"stateMutability": "nonpayable",
			"type": "function"
		},
		{
			"inputs": [
				{
					"internalType": "uint256",
					"name": "proposalId",
					"type": "uint256"
				},
				{
					"internalType": "uint8",
					"name": "support",
					"type": "uint8"
				},
				{
					"internalType": "string",
					"name": "reason",
					"type": "string"
				}
			],
			"name": "castVoteWithReason",
			"outputs": [
				{
					"internalType": "uint256",
					"name": "",
					"type": "uint256"
				}
			],
			"stateMutability": "nonpayable",
			"type": "function"
		},
		{
			"inputs": [
				{
					"internalType": "uint256",
					"name": "proposalId",
					"type": "uint256"
				},
				{
					"internalType": "uint8",
					"name": "support",
					"type": "uint8"
				},
				{
					"internalType": "string",
					"name": "reason",
					"type": "string"
				},
				{
					"internalType": "bytes",
					"name": "params",
					"type": "bytes"
				}
			],
			"name": "castVoteWithReasonAndParams",
			"outputs": [
				{
					"internalType": "uint256",
					"name": "",
					"type": "uint256"
				}
			],
			"stateMutability": "nonpayable",
			"type": "function"
		},
		{
			"inputs": [
				{
					"internalType": "uint256",
					"name": "proposalId",
					"type": "uint256"
				},
				{
					"internalType": "uint8",
					"name": "support",
					"type": "uint8"
				},
				{
					"internalType": "address",
					"name": "voter",
					"type": "address"
				},
				{
					"internalType": "string",
					"name": "reason",
					"type": "string"
				},
				{
					"internalType": "bytes",
					"name": "params",
					"type": "bytes"
				},
				{
					"internalType": "bytes",
					"name": "signature",
					"type": "bytes"
				}
			],
			"name": "castVoteWithReasonAndParamsBySig",
			"outputs": [
				{
					"internalType": "uint256",
					"name": "",
					"type": "uint256"
				}
			],
			"stateMutability": "nonpayable",
			"type": "function"
		},
		{
			"inputs": [],
			"name": "clock",
			"outputs": [
				{
					"internalType": "uint48",
					"name": "",
					"type": "uint48"
				}
			],
			"stateMutability": "view",
			"type": "function"
		},
		{
			"inputs": [],
			"name": "eip712Domain",
			"outputs": [
				{
					"internalType": "bytes1",
					"name": "fields",
					"type": "bytes1"
				},
				{
					"internalType": "string",
					"name": "name",
					"type": "string"
				},
				{
					"internalType": "string",
					"name": "version",
					"type": "string"
				},
				{
					"internalType": "uint256",
					"name": "chainId",
					"type": "uint256"
				},
				{
					"internalType": "address",
					"name": "verifyingContract",
					"type": "address"
				},
				{
					"internalType": "bytes32",
					"name": "salt",
					"type": "bytes32"
				},
				{
					"internalType": "uint256[]",
					"name": "extensions",
					"type": "uint256[]"
				}
			],
			"stateMutability": "view",
			"type": "function"
		},
		{
			"inputs": [
				{
					"internalType": "address[]",
					"name": "targets",
					"type": "address[]"
				},
				{
					"internalType": "uint256[]",
					"name": "values",
					"type": "uint256[]"
				},
				{
					"internalType": "bytes[]",
					"name": "calldatas",
					"type": "bytes[]"
				},
				{
					"internalType": "bytes32",
					"name": "descriptionHash",
					"type": "bytes32"
				}
			],
			"name": "execute",
			"outputs": [
				{
					"internalType": "uint256",
					"name": "",
					"type": "uint256"
				}
			],
			"stateMutability": "payable",
			"type": "function"
		},
		{
			"inputs": [
				{
					"internalType": "address[]",
					"name": "targets",
					"type": "address[]"
				},
				{
					"internalType": "uint256[]",
					"name": "values",
					"type": "uint256[]"
				},
				{
					"internalType": "bytes[]",
					"name": "calldatas",
					"type": "bytes[]"
				},
				{
					"internalType": "bytes32",
					"name": "descriptionHash",
					"type": "bytes32"
				}
			],
			"name": "getProposalId",
			"outputs": [
				{
					"internalType": "uint256",
					"name": "",
					"type": "uint256"
				}
			],
			"stateMutability": "view",
			"type": "function"
		},
		{
			"inputs": [
				{
					"internalType": "address",
					"name": "account",
					"type": "address"
				},
				{
					"internalType": "uint256",
					"name": "timepoint",
					"type": "uint256"
				}
			],
			"name": "getVotes",
			"outputs": [
				{
					"internalType": "uint256",
					"name": "",
					"type": "uint256"
				}
			],
			"stateMutability": "view",
			"type": "function"
		},
		{
			"inputs": [
				{
					"internalType": "address",
					"name": "account",
					"type": "address"
				},
				{
					"internalType": "uint256",
					"name": "timepoint",
					"type": "uint256"
				},
				{
					"internalType": "bytes",
					"name": "params",
					"type": "bytes"
				}
			],
			"name": "getVotesWithParams",
			"outputs": [
				{
					"internalType": "uint256",
					"name": "",
					"type": "uint256"
				}
			],
			"stateMutability": "view",
			"type": "function"
		},
		{
			"inputs": [
				{
					"internalType": "uint256",
					"name": "proposalId",
					"type": "uint256"
				},
				{
					"internalType": "address",
					"name": "account",
					"type": "address"
				}
			],
			"name": "hasVoted",
			"outputs": [
				{
					"internalType": "bool",
					"name": "",
					"type": "bool"
				}
			],
			"stateMutability": "view",
			"type": "function"
		},
		{
			"inputs": [
				{
					"internalType": "address[]",
					"name": "targets",
					"type": "address[]"
				},
				{
					"internalType": "uint256[]",
					"name": "values",
					"type": "uint256[]"
				},
				{
					"internalType": "bytes[]",
					"name": "calldatas",
					"type": "bytes[]"
				},
				{
					"internalType": "bytes32",
					"name": "descriptionHash",
					"type": "bytes32"
				}
			],
			"name": "hashProposal",
			"outputs": [
				{
					"internalType": "uint256",
					"name": "",
					"type": "uint256"
				}
			],
			"stateMutability": "pure",
			"type": "function"
		},
		{
			"inputs": [],
			"name": "name",
			"outputs": [
				{
					"internalType": "string",
					"name": "",
					"type": "string"
				}
			],
			"stateMutability": "view",
			"type": "function"
		},
		{
			"inputs": [
				{
					"internalType": "address",
					"name": "owner",
					"type": "address"
				}
			],
			"name": "nonces",
			"outputs": [
				{
					"internalType": "uint256",
					"name": "",
					"type": "uint256"
				}
			],
			"stateMutability": "view",
			"type": "function"
		},
		{
			"inputs": [
				{
					"internalType": "address",
					"name": "",
					"type": "address"
				},
				{
					"internalType": "address",
					"name": "",
					"type": "address"
				},
				{
					"internalType": "uint256[]",
					"name": "",
					"type": "uint256[]"
				},
				{
					"internalType": "uint256[]",
					"name": "",
					"type": "uint256[]"
				},
				{
					"internalType": "bytes",
					"name": "",
					"type": "bytes"
				}
			],
			"name": "onERC1155BatchReceived",
			"outputs": [
				{
					"internalType": "bytes4",
					"name": "",
					"type": "bytes4"
				}
			],
			"stateMutability": "nonpayable",
			"type": "function"
		},
		{
			"inputs": [
				{
					"internalType": "address",
					"name": "",
					"type": "address"
				},
				{
					"internalType": "address",
					"name": "",
					"type": "address"
				},
				{
					"internalType": "uint256",
					"name": "",
					"type": "uint256"
				},
				{
					"internalType": "uint256",
					"name": "",
					"type": "uint256"
				},
				{
					"internalType": "bytes",
					"name": "",
					"type": "bytes"
				}
			],
			"name": "onERC1155Received",
			"outputs": [
				{
					"internalType": "bytes4",
					"name": "",
					"type": "bytes4"
				}
			],
			"stateMutability": "nonpayable",
			"type": "function"
		},
		{
			"inputs": [
				{
					"internalType": "address",
					"name": "",
					"type": "address"
				},
				{
					"internalType": "address",
					"name": "",
					"type": "address"
				},
				{
					"internalType": "uint256",
					"name": "",
					"type": "uint256"
				},
				{
					"internalType": "bytes",
					"name": "",
					"type": "bytes"
				}
			],
			"name": "onERC721Received",
			"outputs": [
				{
					"internalType": "bytes4",
					"name": "",
					"type": "bytes4"
				}
			],
			"stateMutability": "nonpayable",
			"type": "function"
		},
		{
			"inputs": [
				{
					"internalType": "uint256",
					"name": "proposalId",
					"type": "uint256"
				}
			],
			"name": "proposalDeadline",
			"outputs": [
				{
					"internalType": "uint256",
					"name": "",
					"type": "uint256"
				}
			],
			"stateMutability": "view",
			"type": "function"
		},
		{
			"inputs": [
				{
					"internalType": "uint256",
					"name": "proposalId",
					"type": "uint256"
				}
			],
			"name": "proposalEta",
			"outputs": [
				{
					"internalType": "uint256",
					"name": "",
					"type": "uint256"
				}
			],
			"stateMutability": "view",
			"type": "function"
		},
		{
			"inputs": [
				{
					"internalType": "uint256",
					"name": "proposalId",
					"type": "uint256"
				}
			],
			"name": "proposalNeedsQueuing",
			"outputs": [
				{
					"internalType": "bool",
					"name": "",
					"type": "bool"
				}
			],
			"stateMutability": "view",
			"type": "function"
		},
		{
			"inputs": [
				{
					"internalType": "uint256",
					"name": "proposalId",
					"type": "uint256"
				}
			],
			"name": "proposalProposer",
			"outputs": [
				{
					"internalType": "address",
					"name": "",
					"type": "address"
				}
			],
			"stateMutability": "view",
			"type": "function"
		},
		{
			"inputs": [
				{
					"internalType": "uint256",
					"name": "proposalId",
					"type": "uint256"
				}
			],
			"name": "proposalSnapshot",
			"outputs": [
				{
					"internalType": "uint256",
					"name": "",
					"type": "uint256"
				}
			],
			"stateMutability": "view",
			"type": "function"
		},
		{
			"inputs": [],
			"name": "proposalThreshold",
			"outputs": [
				{
					"internalType": "uint256",
					"name": "",
					"type": "uint256"
				}
			],
			"stateMutability": "view",
			"type": "function"
		},
		{
			"inputs": [
				{
					"internalType": "uint256",
					"name": "proposalId",
					"type": "uint256"
				}
			],
			"name": "proposalVotes",
			"outputs": [
				{
					"internalType": "uint256",
					"name": "againstVotes",
					"type": "uint256"
				},
				{
					"internalType": "uint256",
					"name": "forVotes",
					"type": "uint256"
				},
				{
					"internalType": "uint256",
					"name": "abstainVotes",
					"type": "uint256"
				}
			],
			"stateMutability": "view",
			"type": "function"
		},
		{
			"inputs": [
				{
					"internalType": "address[]",
					"name": "targets",
					"type": "address[]"
				},
				{
					"internalType": "uint256[]",
					"name": "values",
					"type": "uint256[]"
				},
				{
					"internalType": "bytes[]",
					"name": "calldatas",
					"type": "bytes[]"
				},
				{
					"internalType": "string",
					"name": "description",
					"type": "string"
				}
			],
			"name": "propose",
			"outputs": [
				{
					"internalType": "uint256",
					"name": "",
					"type": "uint256"
				}
			],
			"stateMutability": "nonpayable",
			"type": "function"
		},
		{
			"inputs": [
				{
					"internalType": "address[]",
					"name": "targets",
					"type": "address[]"
				},
				{
					"internalType": "uint256[]",
					"name": "values",
					"type": "uint256[]"
				},
				{
					"internalType": "bytes[]",
					"name": "calldatas",
					"type": "bytes[]"
				},
				{
					"internalType": "bytes32",
					"name": "descriptionHash",
					"type": "bytes32"
				}
			],
			"name": "queue",
			"outputs": [
				{
					"internalType": "uint256",
					"name": "",
					"type": "uint256"
				}
			],
			"stateMutability": "nonpayable",
			"type": "function"
		},
		{
			"inputs": [
				{
					"internalType": "uint256",
					"name": "blockNumber",
					"type": "uint256"
				}
			],
			"name": "quorum",
			"outputs": [
				{
					"internalType": "uint256",
					"name": "",
					"type": "uint256"
				}
			],
			"stateMutability": "pure",
			"type": "function"
		},
		{
			"inputs": [
				{
					"internalType": "address",
					"name": "target",
					"type": "address"
				},
				{
					"internalType": "uint256",
					"name": "value",
					"type": "uint256"
				},
				{
					"internalType": "bytes",
					"name": "data",
					"type": "bytes"
				}
			],
			"name": "relay",
			"outputs": [],
			"stateMutability": "payable",
			"type": "function"
		},
		{
			"inputs": [
				{
					"internalType": "uint256",
					"name": "newProposalThreshold",
					"type": "uint256"
				}
			],
			"name": "setProposalThreshold",
			"outputs": [],
			"stateMutability": "nonpayable",
			"type": "function"
		},
		{
			"inputs": [
				{
					"internalType": "uint48",
					"name": "newVotingDelay",
					"type": "uint48"
				}
			],
			"name": "setVotingDelay",
			"outputs": [],
			"stateMutability": "nonpayable",
			"type": "function"
		},
		{
			"inputs": [
				{
					"internalType": "uint32",
					"name": "newVotingPeriod",
					"type": "uint32"
				}
			],
			"name": "setVotingPeriod",
			"outputs": [],
			"stateMutability": "nonpayable",
			"type": "function"
		},
		{
			"inputs": [
				{
					"internalType": "uint256",
					"name": "proposalId",
					"type": "uint256"
				}
			],
			"name": "state",
			"outputs": [
				{
					"internalType": "enum IGovernor.ProposalState",
					"name": "",
					"type": "uint8"
				}
			],
			"stateMutability": "view",
			"type": "function"
		},
		{
			"inputs": [
				{
					"internalType": "bytes4",
					"name": "interfaceId",
					"type": "bytes4"
				}
			],
			"name": "supportsInterface",
			"outputs": [
				{
					"internalType": "bool",
					"name": "",
					"type": "bool"
				}
			],
			"stateMutability": "view",
			"type": "function"
		},
		{
			"inputs": [],
			"name": "timelock",
			"outputs": [
				{
					"internalType": "address",
					"name": "",
					"type": "address"
				}
			],
			"stateMutability": "view",
			"type": "function"
		},
		{
			"inputs": [],
			"name": "token",
			"outputs": [
				{
					"internalType": "contract IERC5805",
					"name": "",
					"type": "address"
				}
			],
			"stateMutability": "view",
			"type": "function"
		},
		{
			"inputs": [
				{
					"internalType": "contract TimelockController",
					"name": "newTimelock",
					"type": "address"
				}
			],
			"name": "updateTimelock",
			"outputs": [],
			"stateMutability": "nonpayable",
			"type": "function"
		},
		{
			"inputs": [],
			"name": "version",
			"outputs": [
				{
					"internalType": "string",
					"name": "",
					"type": "string"
				}
			],
			"stateMutability": "view",
			"type": "function"
		},
		{
			"inputs": [],
			"name": "votingDelay",
			"outputs": [
				{
					"internalType": "uint256",
					"name": "",
					"type": "uint256"
				}
			],
			"stateMutability": "view",
			"type": "function"
		},
		{
			"inputs": [],
			"name": "votingPeriod",
			"outputs": [
				{
					"internalType": "uint256",
					"name": "",
					"type": "uint256"
				}
			],
			"stateMutability": "view",
			"type": "function"
		},
		{
			"stateMutability": "payable",
			"type": "receive"
		}
	]
}